{
  "contractName": "DynamixLotteryPrice",
  "abi": [
    {
      "inputs": [],
      "stateMutability": "nonpayable",
      "type": "constructor"
    },
    {
      "anonymous": false,
      "inputs": [
        {
          "indexed": true,
          "internalType": "address",
          "name": "previousOwner",
          "type": "address"
        },
        {
          "indexed": true,
          "internalType": "address",
          "name": "newOwner",
          "type": "address"
        }
      ],
      "name": "OwnershipTransferred",
      "type": "event"
    },
    {
      "inputs": [],
      "name": "BNB",
      "outputs": [
        {
          "internalType": "address",
          "name": "",
          "type": "address"
        }
      ],
      "stateMutability": "view",
      "type": "function"
    },
    {
      "inputs": [],
      "name": "BUSD",
      "outputs": [
        {
          "internalType": "address",
          "name": "",
          "type": "address"
        }
      ],
      "stateMutability": "view",
      "type": "function"
    },
    {
      "inputs": [],
      "name": "DYNA",
      "outputs": [
        {
          "internalType": "address",
          "name": "",
          "type": "address"
        }
      ],
      "stateMutability": "view",
      "type": "function"
    },
    {
      "inputs": [],
      "name": "owner",
      "outputs": [
        {
          "internalType": "address",
          "name": "",
          "type": "address"
        }
      ],
      "stateMutability": "view",
      "type": "function"
    },
    {
      "inputs": [],
      "name": "renounceOwnership",
      "outputs": [],
      "stateMutability": "nonpayable",
      "type": "function"
    },
    {
      "inputs": [],
      "name": "router",
      "outputs": [
        {
          "internalType": "contract IUniswapV2Router02",
          "name": "",
          "type": "address"
        }
      ],
      "stateMutability": "view",
      "type": "function"
    },
    {
      "inputs": [
        {
          "internalType": "address",
          "name": "newOwner",
          "type": "address"
        }
      ],
      "name": "transferOwnership",
      "outputs": [],
      "stateMutability": "nonpayable",
      "type": "function"
    },
    {
      "inputs": [
        {
          "internalType": "uint256",
          "name": "numberOfTickets",
          "type": "uint256"
        },
        {
          "internalType": "uint256",
          "name": "ticketPriceInUSD",
          "type": "uint256"
        }
      ],
      "name": "getDYNAPrice",
      "outputs": [
        {
          "internalType": "uint256",
          "name": "",
          "type": "uint256"
        }
      ],
      "stateMutability": "view",
      "type": "function"
    },
    {
      "inputs": [
        {
          "internalType": "address",
          "name": "from",
          "type": "address"
        },
        {
          "internalType": "uint256",
          "name": "numberOfTickets",
          "type": "uint256"
        },
        {
          "internalType": "address",
          "name": "betInToken",
          "type": "address"
        },
        {
          "internalType": "address",
          "name": "lottery",
          "type": "address"
        },
        {
          "internalType": "uint256",
          "name": "ticketPriceInUSD",
          "type": "uint256"
        }
      ],
      "name": "swapAndTransfer",
      "outputs": [
        {
          "internalType": "uint256",
          "name": "",
          "type": "uint256"
        }
      ],
      "stateMutability": "nonpayable",
      "type": "function"
    }
  ],
  "bytecode": "0x60a06040527378867bbeef44f2326bf8ddd1941a4439382ef2a7600160006101000a81548173ffffffffffffffffffffffffffffffffffffffff021916908373ffffffffffffffffffffffffffffffffffffffff16021790555073ae13d989dac2f0debff460ac112a837c89baa7cd600260006101000a81548173ffffffffffffffffffffffffffffffffffffffff021916908373ffffffffffffffffffffffffffffffffffffffff1602179055507364fc4fe4ef8a36d464766ddbd8246e05f154e104600360006101000a81548173ffffffffffffffffffffffffffffffffffffffff021916908373ffffffffffffffffffffffffffffffffffffffff16021790555034801561010f57600080fd5b50600061012061020b60201b60201c565b9050806000806101000a81548173ffffffffffffffffffffffffffffffffffffffff021916908373ffffffffffffffffffffffffffffffffffffffff1602179055508073ffffffffffffffffffffffffffffffffffffffff16600073ffffffffffffffffffffffffffffffffffffffff167f8be0079c531659141344cd1fd0a4f28419497f9722a3daafe3b4186f6b6457e060405160405180910390a350739ac64cc6e4415144c455bd8e4837fea55603e5c373ffffffffffffffffffffffffffffffffffffffff1660808173ffffffffffffffffffffffffffffffffffffffff1681525050610213565b600033905090565b608051611ae7610243600039600081816103670152818161056901528181610a280152610bde0152611ae76000f3fe608060405234801561001057600080fd5b50600436106100935760003560e01c80638da5cb5b116100665780638da5cb5b1461010e578063a2b578b81461012c578063db121f4f1461015c578063f2fde38b1461017a578063f887ea401461019657610093565b8063484f4ea9146100985780635377a6a1146100b657806358f7f6d2146100e6578063715018a614610104575b600080fd5b6100a06101b4565b6040516100ad9190610fe6565b60405180910390f35b6100d060048036038101906100cb9190611077565b6101da565b6040516100dd9190611101565b60405180910390f35b6100ee610697565b6040516100fb9190610fe6565b60405180910390f35b61010c6106bd565b005b6101166107f7565b6040516101239190610fe6565b60405180910390f35b6101466004803603810190610141919061111c565b610820565b6040516101539190611101565b60405180910390f35b610164610857565b6040516101719190610fe6565b60405180910390f35b610194600480360381019061018f919061115c565b61087d565b005b61019e610a26565b6040516101ab91906111e8565b60405180910390f35b600160009054906101000a900473ffffffffffffffffffffffffffffffffffffffff1681565b600080600360009054906101000a900473ffffffffffffffffffffffffffffffffffffffff16905060008173ffffffffffffffffffffffffffffffffffffffff166370a08231866040518263ffffffff1660e01b815260040161023d9190610fe6565b602060405180830381865afa15801561025a573d6000803e3d6000fd5b505050506040513d601f19601f8201168201806040525081019061027e9190611218565b9050600061028d888689610a4a565b90506000879050600360009054906101000a900473ffffffffffffffffffffffffffffffffffffffff1673ffffffffffffffffffffffffffffffffffffffff168873ffffffffffffffffffffffffffffffffffffffff16141561031c576103178a88848473ffffffffffffffffffffffffffffffffffffffff16610ca7909392919063ffffffff16565b6105fd565b6103498a30848473ffffffffffffffffffffffffffffffffffffffff16610ca7909392919063ffffffff16565b8073ffffffffffffffffffffffffffffffffffffffff1663095ea7b37f0000000000000000000000000000000000000000000000000000000000000000846040518363ffffffff1660e01b81526004016103a4929190611245565b6020604051808303816000875af11580156103c3573d6000803e3d6000fd5b505050506040513d601f19601f820116820180604052508101906103e791906112a6565b506000600367ffffffffffffffff811115610405576104046112d3565b5b6040519080825280602002602001820160405280156104335781602001602082028036833780820191505090505b509050888160008151811061044b5761044a611302565b5b602002602001019073ffffffffffffffffffffffffffffffffffffffff16908173ffffffffffffffffffffffffffffffffffffffff1681525050600260009054906101000a900473ffffffffffffffffffffffffffffffffffffffff16816001815181106104bc576104bb611302565b5b602002602001019073ffffffffffffffffffffffffffffffffffffffff16908173ffffffffffffffffffffffffffffffffffffffff1681525050600360009054906101000a900473ffffffffffffffffffffffffffffffffffffffff168160028151811061052d5761052c611302565b5b602002602001019073ffffffffffffffffffffffffffffffffffffffff16908173ffffffffffffffffffffffffffffffffffffffff16815250507f000000000000000000000000000000000000000000000000000000000000000073ffffffffffffffffffffffffffffffffffffffff16635c11d795846000848c426040518663ffffffff1660e01b81526004016105c995949392919061142a565b600060405180830381600087803b1580156105e357600080fd5b505af11580156105f7573d6000803e3d6000fd5b50505050505b60008473ffffffffffffffffffffffffffffffffffffffff166370a08231896040518263ffffffff1660e01b81526004016106389190610fe6565b602060405180830381865afa158015610655573d6000803e3d6000fd5b505050506040513d601f19601f820116820180604052508101906106799190611218565b9050838161068791906114b3565b9550505050505095945050505050565b600260009054906101000a900473ffffffffffffffffffffffffffffffffffffffff1681565b6106c5610d30565b73ffffffffffffffffffffffffffffffffffffffff166106e36107f7565b73ffffffffffffffffffffffffffffffffffffffff1614610739576040517f08c379a000000000000000000000000000000000000000000000000000000000815260040161073090611544565b60405180910390fd5b600073ffffffffffffffffffffffffffffffffffffffff1660008054906101000a900473ffffffffffffffffffffffffffffffffffffffff1673ffffffffffffffffffffffffffffffffffffffff167f8be0079c531659141344cd1fd0a4f28419497f9722a3daafe3b4186f6b6457e060405160405180910390a360008060006101000a81548173ffffffffffffffffffffffffffffffffffffffff021916908373ffffffffffffffffffffffffffffffffffffffff160217905550565b60008060009054906101000a900473ffffffffffffffffffffffffffffffffffffffff16905090565b600061084f8383600360009054906101000a900473ffffffffffffffffffffffffffffffffffffffff16610a4a565b905092915050565b600360009054906101000a900473ffffffffffffffffffffffffffffffffffffffff1681565b610885610d30565b73ffffffffffffffffffffffffffffffffffffffff166108a36107f7565b73ffffffffffffffffffffffffffffffffffffffff16146108f9576040517f08c379a00000000000000000000000000000000000000000000000000000000081526004016108f090611544565b60405180910390fd5b600073ffffffffffffffffffffffffffffffffffffffff168173ffffffffffffffffffffffffffffffffffffffff161415610969576040517f08c379a0000000000000000000000000000000000000000000000000000000008152600401610960906115d6565b60405180910390fd5b8073ffffffffffffffffffffffffffffffffffffffff1660008054906101000a900473ffffffffffffffffffffffffffffffffffffffff1673ffffffffffffffffffffffffffffffffffffffff167f8be0079c531659141344cd1fd0a4f28419497f9722a3daafe3b4186f6b6457e060405160405180910390a3806000806101000a81548173ffffffffffffffffffffffffffffffffffffffff021916908373ffffffffffffffffffffffffffffffffffffffff16021790555050565b7f000000000000000000000000000000000000000000000000000000000000000081565b6000808385610a5991906115f6565b90506000600367ffffffffffffffff811115610a7857610a776112d3565b5b604051908082528060200260200182016040528015610aa65781602001602082028036833780820191505090505b509050600160009054906101000a900473ffffffffffffffffffffffffffffffffffffffff1681600081518110610ae057610adf611302565b5b602002602001019073ffffffffffffffffffffffffffffffffffffffff16908173ffffffffffffffffffffffffffffffffffffffff1681525050600260009054906101000a900473ffffffffffffffffffffffffffffffffffffffff1681600181518110610b5157610b50611302565b5b602002602001019073ffffffffffffffffffffffffffffffffffffffff16908173ffffffffffffffffffffffffffffffffffffffff16815250508381600281518110610ba057610b9f611302565b5b602002602001019073ffffffffffffffffffffffffffffffffffffffff16908173ffffffffffffffffffffffffffffffffffffffff168152505060007f000000000000000000000000000000000000000000000000000000000000000073ffffffffffffffffffffffffffffffffffffffff1663d06ca61f84846040518363ffffffff1660e01b8152600401610c37929190611650565b600060405180830381865afa158015610c54573d6000803e3d6000fd5b505050506040513d6000823e3d601f19601f82011682018060405250810190610c7d91906117aa565b905080600281518110610c9357610c92611302565b5b602002602001015193505050509392505050565b610d2a846323b872dd60e01b858585604051602401610cc8939291906117f3565b604051602081830303815290604052907bffffffffffffffffffffffffffffffffffffffffffffffffffffffff19166020820180517bffffffffffffffffffffffffffffffffffffffffffffffffffffffff8381831617835250505050610d38565b50505050565b600033905090565b6000610d9a826040518060400160405280602081526020017f5361666545524332303a206c6f772d6c6576656c2063616c6c206661696c65648152508573ffffffffffffffffffffffffffffffffffffffff16610dff9092919063ffffffff16565b9050600081511115610dfa5780806020019051810190610dba91906112a6565b610df9576040517f08c379a0000000000000000000000000000000000000000000000000000000008152600401610df09061189c565b60405180910390fd5b5b505050565b6060610e0e8484600085610e17565b90509392505050565b606082471015610e5c576040517f08c379a0000000000000000000000000000000000000000000000000000000008152600401610e539061192e565b60405180910390fd5b610e6585610f2b565b610ea4576040517f08c379a0000000000000000000000000000000000000000000000000000000008152600401610e9b9061199a565b60405180910390fd5b6000808673ffffffffffffffffffffffffffffffffffffffff168587604051610ecd9190611a34565b60006040518083038185875af1925050503d8060008114610f0a576040519150601f19603f3d011682016040523d82523d6000602084013e610f0f565b606091505b5091509150610f1f828286610f3e565b92505050949350505050565b600080823b905060008111915050919050565b60608315610f4e57829050610f9e565b600083511115610f615782518084602001fd5b816040517f08c379a0000000000000000000000000000000000000000000000000000000008152600401610f959190611a8f565b60405180910390fd5b9392505050565b600073ffffffffffffffffffffffffffffffffffffffff82169050919050565b6000610fd082610fa5565b9050919050565b610fe081610fc5565b82525050565b6000602082019050610ffb6000830184610fd7565b92915050565b6000604051905090565b600080fd5b600080fd5b61101e81610fc5565b811461102957600080fd5b50565b60008135905061103b81611015565b92915050565b6000819050919050565b61105481611041565b811461105f57600080fd5b50565b6000813590506110718161104b565b92915050565b600080600080600060a086880312156110935761109261100b565b5b60006110a18882890161102c565b95505060206110b288828901611062565b94505060406110c38882890161102c565b93505060606110d48882890161102c565b92505060806110e588828901611062565b9150509295509295909350565b6110fb81611041565b82525050565b600060208201905061111660008301846110f2565b92915050565b600080604083850312156111335761113261100b565b5b600061114185828601611062565b925050602061115285828601611062565b9150509250929050565b6000602082840312156111725761117161100b565b5b60006111808482850161102c565b91505092915050565b6000819050919050565b60006111ae6111a96111a484610fa5565b611189565b610fa5565b9050919050565b60006111c082611193565b9050919050565b60006111d2826111b5565b9050919050565b6111e2816111c7565b82525050565b60006020820190506111fd60008301846111d9565b92915050565b6000815190506112128161104b565b92915050565b60006020828403121561122e5761122d61100b565b5b600061123c84828501611203565b91505092915050565b600060408201905061125a6000830185610fd7565b61126760208301846110f2565b9392505050565b60008115159050919050565b6112838161126e565b811461128e57600080fd5b50565b6000815190506112a08161127a565b92915050565b6000602082840312156112bc576112bb61100b565b5b60006112ca84828501611291565b91505092915050565b7f4e487b7100000000000000000000000000000000000000000000000000000000600052604160045260246000fd5b7f4e487b7100000000000000000000000000000000000000000000000000000000600052603260045260246000fd5b6000819050919050565b600061135661135161134c84611331565b611189565b611041565b9050919050565b6113668161133b565b82525050565b600081519050919050565b600082825260208201905092915050565b6000819050602082019050919050565b6113a181610fc5565b82525050565b60006113b38383611398565b60208301905092915050565b6000602082019050919050565b60006113d78261136c565b6113e18185611377565b93506113ec83611388565b8060005b8381101561141d57815161140488826113a7565b975061140f836113bf565b9250506001810190506113f0565b5085935050505092915050565b600060a08201905061143f60008301886110f2565b61144c602083018761135d565b818103604083015261145e81866113cc565b905061146d6060830185610fd7565b61147a60808301846110f2565b9695505050505050565b7f4e487b7100000000000000000000000000000000000000000000000000000000600052601160045260246000fd5b60006114be82611041565b91506114c983611041565b9250828210156114dc576114db611484565b5b828203905092915050565b600082825260208201905092915050565b7f4f776e61626c653a2063616c6c6572206973206e6f7420746865206f776e6572600082015250565b600061152e6020836114e7565b9150611539826114f8565b602082019050919050565b6000602082019050818103600083015261155d81611521565b9050919050565b7f4f776e61626c653a206e6577206f776e657220697320746865207a65726f206160008201527f6464726573730000000000000000000000000000000000000000000000000000602082015250565b60006115c06026836114e7565b91506115cb82611564565b604082019050919050565b600060208201905081810360008301526115ef816115b3565b9050919050565b600061160182611041565b915061160c83611041565b9250817fffffffffffffffffffffffffffffffffffffffffffffffffffffffffffffffff048311821515161561164557611644611484565b5b828202905092915050565b600060408201905061166560008301856110f2565b818103602083015261167781846113cc565b90509392505050565b600080fd5b6000601f19601f8301169050919050565b61169f82611685565b810181811067ffffffffffffffff821117156116be576116bd6112d3565b5b80604052505050565b60006116d1611001565b90506116dd8282611696565b919050565b600067ffffffffffffffff8211156116fd576116fc6112d3565b5b602082029050602081019050919050565b600080fd5b6000611726611721846116e2565b6116c7565b905080838252602082019050602084028301858111156117495761174861170e565b5b835b81811015611772578061175e8882611203565b84526020840193505060208101905061174b565b5050509392505050565b600082601f83011261179157611790611680565b5b81516117a1848260208601611713565b91505092915050565b6000602082840312156117c0576117bf61100b565b5b600082015167ffffffffffffffff8111156117de576117dd611010565b5b6117ea8482850161177c565b91505092915050565b60006060820190506118086000830186610fd7565b6118156020830185610fd7565b61182260408301846110f2565b949350505050565b7f5361666545524332303a204552433230206f7065726174696f6e20646964206e60008201527f6f74207375636365656400000000000000000000000000000000000000000000602082015250565b6000611886602a836114e7565b91506118918261182a565b604082019050919050565b600060208201905081810360008301526118b581611879565b9050919050565b7f416464726573733a20696e73756666696369656e742062616c616e636520666f60008201527f722063616c6c0000000000000000000000000000000000000000000000000000602082015250565b60006119186026836114e7565b9150611923826118bc565b604082019050919050565b600060208201905081810360008301526119478161190b565b9050919050565b7f416464726573733a2063616c6c20746f206e6f6e2d636f6e7472616374000000600082015250565b6000611984601d836114e7565b915061198f8261194e565b602082019050919050565b600060208201905081810360008301526119b381611977565b9050919050565b600081519050919050565b600081905092915050565b60005b838110156119ee5780820151818401526020810190506119d3565b838111156119fd576000848401525b50505050565b6000611a0e826119ba565b611a1881856119c5565b9350611a288185602086016119d0565b80840191505092915050565b6000611a408284611a03565b915081905092915050565b600081519050919050565b6000611a6182611a4b565b611a6b81856114e7565b9350611a7b8185602086016119d0565b611a8481611685565b840191505092915050565b60006020820190508181036000830152611aa98184611a56565b90509291505056fea2646970667358221220e5910f45c64b2f5a5eaa162bf2c6328fb8262b4191ce756d03187a179d51b79e64736f6c634300080c0033",
  "immutableReferences": {
    "2097": [
      {
        "length": 32,
        "start": 871
      },
      {
        "length": 32,
        "start": 1385
      },
      {
        "length": 32,
        "start": 2600
      },
      {
        "length": 32,
        "start": 3038
      }
    ]
  },
  "source": "// SPDX-License-Identifier: MIT\npragma solidity ^0.8.0;\n\nimport \"./Ownable.sol\";\nimport \"./Uniswap.sol\";\nimport \"./Address.sol\";\nimport \"./IERC20.sol\";\nimport \"./SafeERC20.sol\";\nimport \"./ILotteryPrice.sol\";\n\ncontract DynamixLotteryPrice is Ownable, IDynamixLotteryPrice {\n    using SafeERC20 for IERC20;\n\t\t\n\tIUniswapV2Router02 public immutable router;\n\n\taddress public BUSD = 0x78867BbEeF44f2326bF8DDd1941a4439382EF2A7;\n\taddress public BNB = 0xae13d989daC2f0dEbFf460aC112a837C89BAa7cd;\n\taddress override public DYNA = 0x64fC4fe4EF8A36d464766ddbd8246E05F154e104;\n\t\n\tconstructor() {\n\t\t// 0x10ED43C718714eb63d5aA57B78B54704E256024E\n\t\trouter = IUniswapV2Router02(0x9Ac64Cc6e4415144C455BD8E4837Fea55603e5c3);\n    }\n\n\tfunction _getPrice(uint256 numberOfTickets, uint256 ticketPriceInUSD, address token) private view returns(uint256) {\n\t\tuint256 totalUSD = numberOfTickets * ticketPriceInUSD;\n\t\t\n\t\taddress[] memory path = new address[](3);\n        path[0] = BUSD;\n\t\tpath[1] = BNB;\n\t\tpath[2] = token;\n\t\t\n\t\tuint256[] memory amounts = router.getAmountsOut(totalUSD, path);\n\n\t\treturn amounts[2];\n\t}\n\t\n\t// Get Price in $DYNA\n\tfunction getDYNAPrice(uint256 numberOfTickets, uint256 ticketPriceInUSD) external view returns(uint256) {\n\t\treturn _getPrice(numberOfTickets, ticketPriceInUSD, DYNA);\n\t}\n\n\t// Swap and Transfer Token to Lottery\n\tfunction swapAndTransfer(address from, uint256 numberOfTickets, address betInToken, address lottery, uint256 ticketPriceInUSD) override external returns(uint256) {\n\t\tIERC20 dynaToken = IERC20(DYNA);\n\t\tuint256 balanceBefore = dynaToken.balanceOf(lottery);\n\t\t\n\t\tuint256 totaltoken = _getPrice(numberOfTickets, ticketPriceInUSD, betInToken);\n\n\t\tIERC20 token = IERC20(betInToken);\n\n\t\tif(betInToken == DYNA){\n\t\t\ttoken.safeTransferFrom(from, lottery, totaltoken);\n\t\t}\n\t\telse {\n\t\t\ttoken.safeTransferFrom(from, address(this), totaltoken);\n\t\t\ttoken.approve(address(router), totaltoken);\n\t\t\n\t\t\taddress[] memory path = new address[](3);\n\t\t\tpath[0] = betInToken;\n\t\t\tpath[1] = BNB;\n\t\t\tpath[2] = DYNA;\n\t\t\t\n\t\t\trouter.swapExactTokensForTokensSupportingFeeOnTransferTokens(\n\t\t\t\ttotaltoken, \n\t\t\t\t0, \n\t\t\t\tpath, \n\t\t\t\tlottery, \n\t\t\t\tblock.timestamp\n\t\t\t);\n\t\t}\n\t\t\n\t\t\n\t\tuint256 balanceAfter = dynaToken.balanceOf(lottery);\n\t\t\n\t\treturn (balanceAfter - balanceBefore);\n\t}\n}",
  "sourcePath": "C:/Users/Amos/Documents/BEP 20/dynamic/DynamixLotterySmartContract/contracts/LotteryPrice.sol",
  "compiler": {
    "name": "solc",
    "version": "0.8.12+commit.f00d7308.Emscripten.clang"
  },
  "schemaVersion": "3.4.1",
  "updatedAt": "2022-03-15T09:56:02.437Z",
  "devdoc": {
    "kind": "dev",
    "methods": {
      "owner()": {
        "details": "Returns the address of the current owner."
      },
      "renounceOwnership()": {
        "details": "Leaves the contract without owner. It will not be possible to call `onlyOwner` functions anymore. Can only be called by the current owner. NOTE: Renouncing ownership will leave the contract without an owner, thereby removing any functionality that is only available to the owner."
      },
      "transferOwnership(address)": {
        "details": "Transfers ownership of the contract to a new account (`newOwner`). Can only be called by the current owner."
      }
    },
    "version": 1
  },
  "userdoc": {
    "kind": "user",
    "methods": {},
    "version": 1
  }
}