{
  "contractName": "DynamixLottery",
  "abi": [
    {
      "inputs": [],
      "stateMutability": "nonpayable",
      "type": "constructor"
    },
    {
      "anonymous": false,
      "inputs": [
        {
          "indexed": false,
          "internalType": "string",
          "name": "typeValue",
          "type": "string"
        },
        {
          "indexed": false,
          "internalType": "address",
          "name": "addrValue",
          "type": "address"
        }
      ],
      "name": "AddressConfigurationChanged",
      "type": "event"
    },
    {
      "anonymous": false,
      "inputs": [
        {
          "indexed": true,
          "internalType": "uint256",
          "name": "lotteryId",
          "type": "uint256"
        }
      ],
      "name": "CloseLottery",
      "type": "event"
    },
    {
      "anonymous": false,
      "inputs": [
        {
          "indexed": true,
          "internalType": "uint256",
          "name": "lotteryId",
          "type": "uint256"
        },
        {
          "indexed": false,
          "internalType": "uint32",
          "name": "winningNumber",
          "type": "uint32"
        }
      ],
      "name": "DrawnLottery",
      "type": "event"
    },
    {
      "anonymous": false,
      "inputs": [
        {
          "indexed": true,
          "internalType": "uint256",
          "name": "lotteryId",
          "type": "uint256"
        },
        {
          "indexed": false,
          "internalType": "uint256",
          "name": "amount",
          "type": "uint256"
        }
      ],
      "name": "FundsInjected",
      "type": "event"
    },
    {
      "anonymous": false,
      "inputs": [
        {
          "indexed": false,
          "internalType": "uint256",
          "name": "amount",
          "type": "uint256"
        }
      ],
      "name": "FundsWithDrawn",
      "type": "event"
    },
    {
      "anonymous": false,
      "inputs": [
        {
          "indexed": true,
          "internalType": "address",
          "name": "player",
          "type": "address"
        },
        {
          "indexed": false,
          "internalType": "address",
          "name": "betInToken",
          "type": "address"
        },
        {
          "indexed": true,
          "internalType": "uint256",
          "name": "lotteryId",
          "type": "uint256"
        },
        {
          "indexed": false,
          "internalType": "uint256",
          "name": "numberTickets",
          "type": "uint256"
        }
      ],
      "name": "NewBet",
      "type": "event"
    },
    {
      "anonymous": false,
      "inputs": [
        {
          "indexed": true,
          "internalType": "uint256",
          "name": "lotteryId",
          "type": "uint256"
        }
      ],
      "name": "NewLottery",
      "type": "event"
    },
    {
      "anonymous": false,
      "inputs": [
        {
          "indexed": true,
          "internalType": "address",
          "name": "previousOwner",
          "type": "address"
        },
        {
          "indexed": true,
          "internalType": "address",
          "name": "newOwner",
          "type": "address"
        }
      ],
      "name": "OwnershipTransferred",
      "type": "event"
    },
    {
      "anonymous": false,
      "inputs": [
        {
          "indexed": false,
          "internalType": "uint256",
          "name": "ticketPriceInUSD",
          "type": "uint256"
        },
        {
          "indexed": false,
          "internalType": "uint256",
          "name": "maxTicket",
          "type": "uint256"
        }
      ],
      "name": "TicketPriceChanged",
      "type": "event"
    },
    {
      "anonymous": false,
      "inputs": [
        {
          "indexed": true,
          "internalType": "address",
          "name": "player",
          "type": "address"
        },
        {
          "indexed": true,
          "internalType": "uint256",
          "name": "lotteryId",
          "type": "uint256"
        },
        {
          "indexed": false,
          "internalType": "uint256",
          "name": "amount",
          "type": "uint256"
        }
      ],
      "name": "TicketsClaimed",
      "type": "event"
    },
    {
      "inputs": [],
      "name": "currentLotteryId",
      "outputs": [
        {
          "internalType": "uint256",
          "name": "",
          "type": "uint256"
        }
      ],
      "stateMutability": "view",
      "type": "function"
    },
    {
      "inputs": [],
      "name": "currentTicketId",
      "outputs": [
        {
          "internalType": "uint256",
          "name": "",
          "type": "uint256"
        }
      ],
      "stateMutability": "view",
      "type": "function"
    },
    {
      "inputs": [],
      "name": "lotteryNFT",
      "outputs": [
        {
          "internalType": "contract IDynamixLotteryNFT",
          "name": "",
          "type": "address"
        }
      ],
      "stateMutability": "view",
      "type": "function"
    },
    {
      "inputs": [],
      "name": "lotteryPrice",
      "outputs": [
        {
          "internalType": "contract IDynamixLotteryPrice",
          "name": "",
          "type": "address"
        }
      ],
      "stateMutability": "view",
      "type": "function"
    },
    {
      "inputs": [],
      "name": "lotteryRandom",
      "outputs": [
        {
          "internalType": "contract IDynamixLotteryRandom",
          "name": "",
          "type": "address"
        }
      ],
      "stateMutability": "view",
      "type": "function"
    },
    {
      "inputs": [],
      "name": "maxTicket",
      "outputs": [
        {
          "internalType": "uint256",
          "name": "",
          "type": "uint256"
        }
      ],
      "stateMutability": "view",
      "type": "function"
    },
    {
      "inputs": [],
      "name": "operatorAddress",
      "outputs": [
        {
          "internalType": "address",
          "name": "",
          "type": "address"
        }
      ],
      "stateMutability": "view",
      "type": "function"
    },
    {
      "inputs": [],
      "name": "owner",
      "outputs": [
        {
          "internalType": "address",
          "name": "",
          "type": "address"
        }
      ],
      "stateMutability": "view",
      "type": "function"
    },
    {
      "inputs": [],
      "name": "renounceOwnership",
      "outputs": [],
      "stateMutability": "nonpayable",
      "type": "function"
    },
    {
      "inputs": [],
      "name": "ticketPriceInUSD",
      "outputs": [
        {
          "internalType": "uint256",
          "name": "",
          "type": "uint256"
        }
      ],
      "stateMutability": "view",
      "type": "function"
    },
    {
      "inputs": [
        {
          "internalType": "address",
          "name": "newOwner",
          "type": "address"
        }
      ],
      "name": "transferOwnership",
      "outputs": [],
      "stateMutability": "nonpayable",
      "type": "function"
    },
    {
      "inputs": [
        {
          "internalType": "uint256",
          "name": "lotteryId",
          "type": "uint256"
        },
        {
          "internalType": "uint32[]",
          "name": "tickets",
          "type": "uint32[]"
        },
        {
          "internalType": "address",
          "name": "betInToken",
          "type": "address"
        }
      ],
      "name": "bet",
      "outputs": [],
      "stateMutability": "nonpayable",
      "type": "function"
    },
    {
      "inputs": [
        {
          "internalType": "uint256",
          "name": "endTime",
          "type": "uint256"
        }
      ],
      "name": "createLottery",
      "outputs": [
        {
          "components": [
            {
              "internalType": "enum DynamixLottery.LotteryStatus",
              "name": "status",
              "type": "uint8"
            },
            {
              "internalType": "uint256",
              "name": "startTime",
              "type": "uint256"
            },
            {
              "internalType": "uint256",
              "name": "endTime",
              "type": "uint256"
            },
            {
              "internalType": "uint256",
              "name": "firstTicketId",
              "type": "uint256"
            },
            {
              "internalType": "uint256",
              "name": "lastTicketId",
              "type": "uint256"
            },
            {
              "internalType": "uint256",
              "name": "amount",
              "type": "uint256"
            },
            {
              "internalType": "uint32",
              "name": "winningNumber",
              "type": "uint32"
            },
            {
              "internalType": "uint32[6]",
              "name": "winnersPerBracket",
              "type": "uint32[6]"
            },
            {
              "internalType": "uint256[6]",
              "name": "amountsPerBracket",
              "type": "uint256[6]"
            }
          ],
          "internalType": "struct DynamixLottery.Lottery",
          "name": "",
          "type": "tuple"
        }
      ],
      "stateMutability": "nonpayable",
      "type": "function"
    },
    {
      "inputs": [
        {
          "internalType": "uint256",
          "name": "lotteryId",
          "type": "uint256"
        },
        {
          "internalType": "uint256",
          "name": "random",
          "type": "uint256"
        }
      ],
      "name": "draw",
      "outputs": [
        {
          "components": [
            {
              "internalType": "enum DynamixLottery.LotteryStatus",
              "name": "status",
              "type": "uint8"
            },
            {
              "internalType": "uint256",
              "name": "startTime",
              "type": "uint256"
            },
            {
              "internalType": "uint256",
              "name": "endTime",
              "type": "uint256"
            },
            {
              "internalType": "uint256",
              "name": "firstTicketId",
              "type": "uint256"
            },
            {
              "internalType": "uint256",
              "name": "lastTicketId",
              "type": "uint256"
            },
            {
              "internalType": "uint256",
              "name": "amount",
              "type": "uint256"
            },
            {
              "internalType": "uint32",
              "name": "winningNumber",
              "type": "uint32"
            },
            {
              "internalType": "uint32[6]",
              "name": "winnersPerBracket",
              "type": "uint32[6]"
            },
            {
              "internalType": "uint256[6]",
              "name": "amountsPerBracket",
              "type": "uint256[6]"
            }
          ],
          "internalType": "struct DynamixLottery.Lottery",
          "name": "",
          "type": "tuple"
        }
      ],
      "stateMutability": "nonpayable",
      "type": "function"
    },
    {
      "inputs": [
        {
          "internalType": "uint256",
          "name": "lotteryId",
          "type": "uint256"
        },
        {
          "internalType": "uint32[6]",
          "name": "winnersPerBracket",
          "type": "uint32[6]"
        },
        {
          "internalType": "uint32[6]",
          "name": "percentsPerBracket",
          "type": "uint32[6]"
        }
      ],
      "name": "calculWinnersPerBracket",
      "outputs": [],
      "stateMutability": "nonpayable",
      "type": "function"
    },
    {
      "inputs": [
        {
          "internalType": "uint256",
          "name": "lotteryId",
          "type": "uint256"
        },
        {
          "internalType": "uint256",
          "name": "amount",
          "type": "uint256"
        }
      ],
      "name": "injectFunds",
      "outputs": [],
      "stateMutability": "nonpayable",
      "type": "function"
    },
    {
      "inputs": [
        {
          "internalType": "uint256",
          "name": "totalDYNA",
          "type": "uint256"
        }
      ],
      "name": "withDrawalFunds",
      "outputs": [],
      "stateMutability": "nonpayable",
      "type": "function"
    },
    {
      "inputs": [
        {
          "internalType": "uint256",
          "name": "lotteryId",
          "type": "uint256"
        },
        {
          "internalType": "uint32[]",
          "name": "ticketIds",
          "type": "uint32[]"
        }
      ],
      "name": "claim",
      "outputs": [],
      "stateMutability": "nonpayable",
      "type": "function"
    },
    {
      "inputs": [
        {
          "internalType": "uint256",
          "name": "lotteryId",
          "type": "uint256"
        }
      ],
      "name": "viewLottery",
      "outputs": [
        {
          "components": [
            {
              "internalType": "enum DynamixLottery.LotteryStatus",
              "name": "status",
              "type": "uint8"
            },
            {
              "internalType": "uint256",
              "name": "startTime",
              "type": "uint256"
            },
            {
              "internalType": "uint256",
              "name": "endTime",
              "type": "uint256"
            },
            {
              "internalType": "uint256",
              "name": "firstTicketId",
              "type": "uint256"
            },
            {
              "internalType": "uint256",
              "name": "lastTicketId",
              "type": "uint256"
            },
            {
              "internalType": "uint256",
              "name": "amount",
              "type": "uint256"
            },
            {
              "internalType": "uint32",
              "name": "winningNumber",
              "type": "uint32"
            },
            {
              "internalType": "uint32[6]",
              "name": "winnersPerBracket",
              "type": "uint32[6]"
            },
            {
              "internalType": "uint256[6]",
              "name": "amountsPerBracket",
              "type": "uint256[6]"
            }
          ],
          "internalType": "struct DynamixLottery.Lottery",
          "name": "",
          "type": "tuple"
        }
      ],
      "stateMutability": "view",
      "type": "function"
    },
    {
      "inputs": [
        {
          "internalType": "uint256",
          "name": "lotteryId",
          "type": "uint256"
        },
        {
          "internalType": "uint256",
          "name": "fromTicketId",
          "type": "uint256"
        },
        {
          "internalType": "uint256",
          "name": "toTicketId",
          "type": "uint256"
        }
      ],
      "name": "viewTickets",
      "outputs": [
        {
          "components": [
            {
              "internalType": "uint256",
              "name": "id",
              "type": "uint256"
            },
            {
              "internalType": "uint32",
              "name": "number",
              "type": "uint32"
            },
            {
              "internalType": "uint8",
              "name": "matchNumber",
              "type": "uint8"
            },
            {
              "internalType": "address",
              "name": "player",
              "type": "address"
            },
            {
              "internalType": "bool",
              "name": "claimed",
              "type": "bool"
            }
          ],
          "internalType": "struct DynamixLottery.TicketView[]",
          "name": "",
          "type": "tuple[]"
        }
      ],
      "stateMutability": "view",
      "type": "function"
    },
    {
      "inputs": [
        {
          "internalType": "address",
          "name": "player",
          "type": "address"
        },
        {
          "internalType": "uint256",
          "name": "lotteryId",
          "type": "uint256"
        },
        {
          "internalType": "uint256",
          "name": "from",
          "type": "uint256"
        },
        {
          "internalType": "uint256",
          "name": "to",
          "type": "uint256"
        }
      ],
      "name": "viewPlayer",
      "outputs": [
        {
          "components": [
            {
              "internalType": "uint256",
              "name": "id",
              "type": "uint256"
            },
            {
              "internalType": "uint32",
              "name": "number",
              "type": "uint32"
            },
            {
              "internalType": "uint8",
              "name": "matchNumber",
              "type": "uint8"
            },
            {
              "internalType": "address",
              "name": "player",
              "type": "address"
            },
            {
              "internalType": "bool",
              "name": "claimed",
              "type": "bool"
            }
          ],
          "internalType": "struct DynamixLottery.TicketView[]",
          "name": "",
          "type": "tuple[]"
        }
      ],
      "stateMutability": "view",
      "type": "function"
    },
    {
      "inputs": [
        {
          "internalType": "address",
          "name": "lotteryPriceAddress",
          "type": "address"
        }
      ],
      "name": "changeLotteryPrice",
      "outputs": [],
      "stateMutability": "nonpayable",
      "type": "function"
    },
    {
      "inputs": [
        {
          "internalType": "address",
          "name": "lotteryRandomAddress",
          "type": "address"
        }
      ],
      "name": "changeLotteryRandom",
      "outputs": [],
      "stateMutability": "nonpayable",
      "type": "function"
    },
    {
      "inputs": [
        {
          "internalType": "address",
          "name": "lotteryNFTAddress",
          "type": "address"
        }
      ],
      "name": "changeLotteryNFT",
      "outputs": [],
      "stateMutability": "nonpayable",
      "type": "function"
    },
    {
      "inputs": [
        {
          "internalType": "address",
          "name": "operator",
          "type": "address"
        }
      ],
      "name": "changeOperator",
      "outputs": [],
      "stateMutability": "nonpayable",
      "type": "function"
    },
    {
      "inputs": [
        {
          "internalType": "uint256",
          "name": "price",
          "type": "uint256"
        },
        {
          "internalType": "uint256",
          "name": "max",
          "type": "uint256"
        }
      ],
      "name": "changeTicketPrice",
      "outputs": [],
      "stateMutability": "nonpayable",
      "type": "function"
    }
  ],
  "bytecode": "0x608060405260006002556000600355670de0b6b3a764000060045560646005553480156200002c57600080fd5b5060006200003f620000e360201b60201c565b9050806000806101000a81548173ffffffffffffffffffffffffffffffffffffffff021916908373ffffffffffffffffffffffffffffffffffffffff1602179055508073ffffffffffffffffffffffffffffffffffffffff16600073ffffffffffffffffffffffffffffffffffffffff167f8be0079c531659141344cd1fd0a4f28419497f9722a3daafe3b4186f6b6457e060405160405180910390a350620000eb565b600033905090565b614f5880620000fb6000396000f3fe608060405234801561001057600080fd5b506004361061018e5760003560e01c8063715018a6116100de578063d2b8035a11610097578063e8adfbc711610071578063e8adfbc71461045d578063e90b60cd1461047b578063f2fde38b14610497578063f74bee6e146104b35761018e565b8063d2b8035a146103f3578063d357075a14610423578063dbea52d81461043f5761018e565b8063715018a6146103435780638da5cb5b1461034d5780638dd8c56d1461036b57806395f6beb11461039b5780639e6fbd7d146103b7578063b1bb5855146103d55761018e565b80633cbf26521161014b5780636510b5b9116101255780636510b5b9146102bb578063686465b8146102eb5780636be4097c146103095780636c4efa34146103275761018e565b80633cbf265214610265578063471aeab41461028357806355d7ddc41461029f5761018e565b806301d9517f1461019357806306394c9b146101af5780630981e9db146101cb578063114df587146101fb578063127effb2146102175780632423807a14610235575b600080fd5b6101ad60048036038101906101a8919061373f565b6104cf565b005b6101c960048036038101906101c491906137f9565b610a95565b005b6101e560048036038101906101e09190613826565b610bae565b6040516101f29190613a08565b60405180910390f35b610215600480360381019061021091906137f9565b611032565b005b61021f611129565b60405161022c9190613a39565b60405180910390f35b61024f600480360381019061024a9190613a54565b61114f565b60405161025c9190613ce7565b60405180910390f35b61026d6112c6565b60405161027a9190613d12565b60405180910390f35b61029d60048036038101906102989190613d2d565b6112cc565b005b6102b960048036038101906102b49190613e1e565b61139f565b005b6102d560048036038101906102d09190613e72565b611675565b6040516102e29190613a08565b60405180910390f35b6102f3611aa2565b6040516103009190613d12565b60405180910390f35b610311611aa8565b60405161031e9190613d12565b60405180910390f35b610341600480360381019061033c91906137f9565b611aae565b005b61034b611ba5565b005b610355611cdf565b6040516103629190613a39565b60405180910390f35b61038560048036038101906103809190613a54565b611d08565b6040516103929190613ce7565b60405180910390f35b6103b560048036038101906103b09190613d2d565b612110565b005b6103bf6121db565b6040516103cc9190613f24565b60405180910390f35b6103dd612201565b6040516103ea9190613d12565b60405180910390f35b61040d60048036038101906104089190613d2d565b612207565b60405161041a9190613ce7565b60405180910390f35b61043d600480360381019061043891906137f9565b6124e8565b005b6104476125df565b6040516104549190613f60565b60405180910390f35b610465612605565b6040516104729190613f9c565b60405180910390f35b61049560048036038101906104909190613a54565b61262b565b005b6104b160048036038101906104ac91906137f9565b612957565b005b6104cd60048036038101906104c89190613fb7565b612b00565b005b6002808111156104e2576104e1613a81565b5b6009600084815260200190815260200160002060000160009054906101000a900460ff16600281111561051857610517613a81565b5b14610558576040517f08c379a000000000000000000000000000000000000000000000000000000000815260040161054f90614083565b60405180910390fd5b6000805b82518110156108a957600083828151811061057a576105796140a3565b5b6020026020010151905060096000868152602001908152602001600020600301548163ffffffff16101580156105cb575060096000868152602001908152602001600020600401548163ffffffff16105b61060a576040517f08c379a000000000000000000000000000000000000000000000000000000000815260040161060190614144565b60405180910390fd5b600a60008263ffffffff16815260200190815260200160002060000160049054906101000a900473ffffffffffffffffffffffffffffffffffffffff1673ffffffffffffffffffffffffffffffffffffffff163373ffffffffffffffffffffffffffffffffffffffff16146106b4576040517f08c379a00000000000000000000000000000000000000000000000000000000081526004016106ab906141fc565b60405180910390fd5b6000600860009054906101000a900473ffffffffffffffffffffffffffffffffffffffff1673ffffffffffffffffffffffffffffffffffffffff1663ea857c56600a60008563ffffffff16815260200190815260200160002060000160009054906101000a900463ffffffff16600960008a815260200190815260200160002060060160009054906101000a900463ffffffff16600a60008763ffffffff16815260200190815260200160002060000160049054906101000a900473ffffffffffffffffffffffffffffffffffffffff166040518463ffffffff1660e01b81526004016107a39392919061422b565b602060405180830381865afa1580156107c0573d6000803e3d6000fd5b505050506040513d601f19601f820116820180604052508101906107e4919061428e565b905060008160ff1614610838576009600087815260200190815260200160002060080160018261081491906142ea565b60ff1660068110610828576108276140a3565b5b015484610835919061431e565b93505b6000600a60008463ffffffff16815260200190815260200160002060000160046101000a81548173ffffffffffffffffffffffffffffffffffffffff021916908373ffffffffffffffffffffffffffffffffffffffff160217905550505080806108a190614374565b91505061055c565b50600081141580156109785750600073ffffffffffffffffffffffffffffffffffffffff16600660009054906101000a900473ffffffffffffffffffffffffffffffffffffffff1673ffffffffffffffffffffffffffffffffffffffff1663db121f4f6040518163ffffffff1660e01b8152600401602060405180830381865afa15801561093b573d6000803e3d6000fd5b505050506040513d601f19601f8201168201806040525081019061095f91906143d2565b73ffffffffffffffffffffffffffffffffffffffff1614155b15610a41576000600660009054906101000a900473ffffffffffffffffffffffffffffffffffffffff1673ffffffffffffffffffffffffffffffffffffffff1663db121f4f6040518163ffffffff1660e01b8152600401602060405180830381865afa1580156109ec573d6000803e3d6000fd5b505050506040513d601f19601f82011682018060405250810190610a1091906143d2565b9050610a3f3033848473ffffffffffffffffffffffffffffffffffffffff1661305e909392919063ffffffff16565b505b823373ffffffffffffffffffffffffffffffffffffffff167f525920036f8ef01fec7151b5da9efc5c2cc8ddc66fe134d0a4472ec0fa3be3e983604051610a889190613d12565b60405180910390a3505050565b610a9d6130e7565b73ffffffffffffffffffffffffffffffffffffffff16610abb611cdf565b73ffffffffffffffffffffffffffffffffffffffff1614610b11576040517f08c379a0000000000000000000000000000000000000000000000000000000008152600401610b089061444b565b60405180910390fd5b80600160006101000a81548173ffffffffffffffffffffffffffffffffffffffff021916908373ffffffffffffffffffffffffffffffffffffffff1602179055507f6348427b80d1a23fc2ddeb56d12a3c45633067f2cc6b83c1861d35fd7a189cf8600160009054906101000a900473ffffffffffffffffffffffffffffffffffffffff16604051610ba391906144b7565b60405180910390a150565b60606000600b60008773ffffffffffffffffffffffffffffffffffffffff1673ffffffffffffffffffffffffffffffffffffffff1681526020019081526020016000206000868152602001908152602001600020805490509050808311610c20578383610c1b91906144e5565b610c22565b805b905060008167ffffffffffffffff811115610c4057610c3f6135c0565b5b604051908082528060200260200182016040528015610c7957816020015b610c6661335c565b815260200190600190039081610c5e5790505b50905060005b82811015611024576000600b60008a73ffffffffffffffffffffffffffffffffffffffff1673ffffffffffffffffffffffffffffffffffffffff16815260200190815260200160002060008981526020019081526020016000208783610ce5919061431e565b81548110610cf657610cf56140a3565b5b9060005260206000200154905080838381518110610d1757610d166140a3565b5b60200260200101516000018181525050600a600082815260200190815260200160002060000160009054906101000a900463ffffffff16838381518110610d6157610d606140a3565b5b60200260200101516020019063ffffffff16908163ffffffff1681525050600a600082815260200190815260200160002060000160049054906101000a900473ffffffffffffffffffffffffffffffffffffffff16838381518110610dc957610dc86140a3565b5b60200260200101516060019073ffffffffffffffffffffffffffffffffffffffff16908173ffffffffffffffffffffffffffffffffffffffff1681525050600073ffffffffffffffffffffffffffffffffffffffff16600a600083815260200190815260200160002060000160049054906101000a900473ffffffffffffffffffffffffffffffffffffffff1673ffffffffffffffffffffffffffffffffffffffff1614838381518110610e8057610e7f6140a3565b5b602002602001015160800190151590811515815250506000600960008a815260200190815260200160002060060160009054906101000a900463ffffffff1663ffffffff161461101057600860009054906101000a900473ffffffffffffffffffffffffffffffffffffffff1673ffffffffffffffffffffffffffffffffffffffff1663ea857c56848481518110610f1b57610f1a6140a3565b5b602002602001015160200151600960008c815260200190815260200160002060060160009054906101000a900463ffffffff16600a600086815260200190815260200160002060000160049054906101000a900473ffffffffffffffffffffffffffffffffffffffff166040518463ffffffff1660e01b8152600401610fa39392919061422b565b602060405180830381865afa158015610fc0573d6000803e3d6000fd5b505050506040513d601f19601f82011682018060405250810190610fe4919061428e565b838381518110610ff757610ff66140a3565b5b60200260200101516040019060ff16908160ff16815250505b50808061101c90614374565b915050610c7f565b508092505050949350505050565b61103a6130e7565b73ffffffffffffffffffffffffffffffffffffffff16611058611cdf565b73ffffffffffffffffffffffffffffffffffffffff16146110ae576040517f08c379a00000000000000000000000000000000000000000000000000000000081526004016110a59061444b565b60405180910390fd5b80600860006101000a81548173ffffffffffffffffffffffffffffffffffffffff021916908373ffffffffffffffffffffffffffffffffffffffff1602179055507f6348427b80d1a23fc2ddeb56d12a3c45633067f2cc6b83c1861d35fd7a189cf88160405161111e9190614565565b60405180910390a150565b600160009054906101000a900473ffffffffffffffffffffffffffffffffffffffff1681565b6111576133ac565b60096000838152602001908152602001600020604051806101200160405290816000820160009054906101000a900460ff16600281111561119b5761119a613a81565b5b60028111156111ad576111ac613a81565b5b815260200160018201548152602001600282015481526020016003820154815260200160048201548152602001600582015481526020016006820160009054906101000a900463ffffffff1663ffffffff1663ffffffff16815260200160078201600680602002604051908101604052809291908260068015611271576020028201916000905b82829054906101000a900463ffffffff1663ffffffff16815260200190600401906020826003010492830192600103820291508084116112345790505b50505050508152602001600882016006806020026040519081016040528092919082600680156112b6576020028201915b8154815260200190600101908083116112a2575b5050505050815250509050919050565b60045481565b6112d46130e7565b73ffffffffffffffffffffffffffffffffffffffff166112f2611cdf565b73ffffffffffffffffffffffffffffffffffffffff1614611348576040517f08c379a000000000000000000000000000000000000000000000000000000000815260040161133f9061444b565b60405180910390fd5b806009600084815260200190815260200160002060050181905550817f64cf373fb6ef52c37ddb66c44c5ce47759205465f01e1902dc2c77312e84e992826040516113939190613d12565b60405180910390a25050565b600160009054906101000a900473ffffffffffffffffffffffffffffffffffffffff1673ffffffffffffffffffffffffffffffffffffffff163373ffffffffffffffffffffffffffffffffffffffff16148061142d57506113fe611cdf565b73ffffffffffffffffffffffffffffffffffffffff163373ffffffffffffffffffffffffffffffffffffffff16145b61146c576040517f08c379a0000000000000000000000000000000000000000000000000000000008152600401611463906145df565b60405180910390fd5b600160028111156114805761147f613a81565b5b6009600085815260200190815260200160002060000160009054906101000a900460ff1660028111156114b6576114b5613a81565b5b146114f6576040517f08c379a00000000000000000000000000000000000000000000000000000000081526004016114ed9061464b565b60405180910390fd5b60026009600085815260200190815260200160002060000160006101000a81548160ff021916908360028111156115305761152f613a81565b5b0217905550816009600085815260200190815260200160002060070190600661155a92919061341c565b5060005b600681101561164057600083826006811061157c5761157b6140a3565b5b602002015163ffffffff161461162d5782816006811061159f5761159e6140a3565b5b602002015163ffffffff1660648383600681106115bf576115be6140a3565b5b602002015163ffffffff1660096000888152602001908152602001600020600501546115eb919061466b565b6115f591906146f4565b6115ff91906146f4565b600960008681526020019081526020016000206008018260068110611627576116266140a3565b5b01819055505b808061163890614374565b91505061155e565b506002547f3c5426b4d31fea72555c191072630bffcbdbcbce67764b012d90ea0b46b4e2d060405160405180910390a2505050565b60606009600085815260200190815260200160002060030154831061169a57826116b2565b60096000858152602001908152602001600020600301545b9250600960008581526020019081526020016000206004015482116116d757816116ef565b60096000858152602001908152602001600020600401545b9150600083836116ff91906144e5565b905060008167ffffffffffffffff81111561171d5761171c6135c0565b5b60405190808252806020026020018201604052801561175657816020015b61174361335c565b81526020019060019003908161173b5790505b50905060005b82811015611a955760008682611772919061431e565b905080838381518110611788576117876140a3565b5b60200260200101516000018181525050600a600082815260200190815260200160002060000160009054906101000a900463ffffffff168383815181106117d2576117d16140a3565b5b60200260200101516020019063ffffffff16908163ffffffff1681525050600a600082815260200190815260200160002060000160049054906101000a900473ffffffffffffffffffffffffffffffffffffffff1683838151811061183a576118396140a3565b5b60200260200101516060019073ffffffffffffffffffffffffffffffffffffffff16908173ffffffffffffffffffffffffffffffffffffffff1681525050600073ffffffffffffffffffffffffffffffffffffffff16600a600083815260200190815260200160002060000160049054906101000a900473ffffffffffffffffffffffffffffffffffffffff1673ffffffffffffffffffffffffffffffffffffffff16148383815181106118f1576118f06140a3565b5b602002602001015160800190151590811515815250506000600960008a815260200190815260200160002060060160009054906101000a900463ffffffff1663ffffffff1614611a8157600860009054906101000a900473ffffffffffffffffffffffffffffffffffffffff1673ffffffffffffffffffffffffffffffffffffffff1663ea857c5684848151811061198c5761198b6140a3565b5b602002602001015160200151600960008c815260200190815260200160002060060160009054906101000a900463ffffffff16600a600086815260200190815260200160002060000160049054906101000a900473ffffffffffffffffffffffffffffffffffffffff166040518463ffffffff1660e01b8152600401611a149392919061422b565b602060405180830381865afa158015611a31573d6000803e3d6000fd5b505050506040513d601f19601f82011682018060405250810190611a55919061428e565b838381518110611a6857611a676140a3565b5b60200260200101516040019060ff16908160ff16815250505b508080611a8d90614374565b91505061175c565b5080925050509392505050565b60035481565b60025481565b611ab66130e7565b73ffffffffffffffffffffffffffffffffffffffff16611ad4611cdf565b73ffffffffffffffffffffffffffffffffffffffff1614611b2a576040517f08c379a0000000000000000000000000000000000000000000000000000000008152600401611b219061444b565b60405180910390fd5b80600660006101000a81548173ffffffffffffffffffffffffffffffffffffffff021916908373ffffffffffffffffffffffffffffffffffffffff1602179055507f6348427b80d1a23fc2ddeb56d12a3c45633067f2cc6b83c1861d35fd7a189cf881604051611b9a9190614771565b60405180910390a150565b611bad6130e7565b73ffffffffffffffffffffffffffffffffffffffff16611bcb611cdf565b73ffffffffffffffffffffffffffffffffffffffff1614611c21576040517f08c379a0000000000000000000000000000000000000000000000000000000008152600401611c189061444b565b60405180910390fd5b600073ffffffffffffffffffffffffffffffffffffffff1660008054906101000a900473ffffffffffffffffffffffffffffffffffffffff1673ffffffffffffffffffffffffffffffffffffffff167f8be0079c531659141344cd1fd0a4f28419497f9722a3daafe3b4186f6b6457e060405160405180910390a360008060006101000a81548173ffffffffffffffffffffffffffffffffffffffff021916908373ffffffffffffffffffffffffffffffffffffffff160217905550565b60008060009054906101000a900473ffffffffffffffffffffffffffffffffffffffff16905090565b611d106133ac565b600160009054906101000a900473ffffffffffffffffffffffffffffffffffffffff1673ffffffffffffffffffffffffffffffffffffffff163373ffffffffffffffffffffffffffffffffffffffff161480611d9e5750611d6f611cdf565b73ffffffffffffffffffffffffffffffffffffffff163373ffffffffffffffffffffffffffffffffffffffff16145b611ddd576040517f08c379a0000000000000000000000000000000000000000000000000000000008152600401611dd4906145df565b60405180910390fd5b60008060025414611ed45760005b600960006002548152602001908152602001600020506006811015611eac576009600060025481526020019081526020016000206007018160068110611e3457611e336140a3565b5b600891828204019190066004029054906101000a900463ffffffff1663ffffffff166009600060025481526020019081526020016000206008018260068110611e8057611e7f6140a3565b5b0154611e8c919061466b565b82611e97919061431e565b91508080611ea490614374565b915050611deb565b508060096000600254815260200190815260200160002060050154611ed191906144e5565b90505b600060405180610120016040528060006002811115611ef657611ef5613a81565b5b815260200142815260200185815260200160035481526020016003548152602001838152602001600063ffffffff1681526020016040518060c00160405280600063ffffffff1663ffffffff168152602001600063ffffffff1663ffffffff168152602001600063ffffffff1663ffffffff168152602001600063ffffffff1663ffffffff168152602001600063ffffffff1663ffffffff168152602001600063ffffffff1663ffffffff1681525081526020016040518060c0016040528060008152602001600081526020016000815260200160008152602001600081526020016000815250815250905060026000815480929190611ff590614374565b91905055508060096000600254815260200190815260200160002060008201518160000160006101000a81548160ff0219169083600281111561203b5761203a613a81565b5b02179055506020820151816001015560408201518160020155606082015181600301556080820151816004015560a0820151816005015560c08201518160060160006101000a81548163ffffffff021916908363ffffffff16021790555060e0820151816007019060066120b092919061341c565b50610100820151816008019060066120c99291906134bf565b509050506002547f3bf0a84e47afbc3eee4652c22da1340ca96a7bc048ee3d5a139fbb8b7898c7ba60405160405180910390a261210760025461114f565b92505050919050565b6121186130e7565b73ffffffffffffffffffffffffffffffffffffffff16612136611cdf565b73ffffffffffffffffffffffffffffffffffffffff161461218c576040517f08c379a00000000000000000000000000000000000000000000000000000000081526004016121839061444b565b60405180910390fd5b81600481905550806005819055507f82a40b2eb2e166a9a513e909894042d026f115051ab5c019f766ba8b33c28f3f6004546005546040516121cf92919061479f565b60405180910390a15050565b600760009054906101000a900473ffffffffffffffffffffffffffffffffffffffff1681565b60055481565b61220f6133ac565b600160009054906101000a900473ffffffffffffffffffffffffffffffffffffffff1673ffffffffffffffffffffffffffffffffffffffff163373ffffffffffffffffffffffffffffffffffffffff16148061229d575061226e611cdf565b73ffffffffffffffffffffffffffffffffffffffff163373ffffffffffffffffffffffffffffffffffffffff16145b6122dc576040517f08c379a00000000000000000000000000000000000000000000000000000000081526004016122d3906145df565b60405180910390fd5b600060028111156122f0576122ef613a81565b5b6009600085815260200190815260200160002060000160009054906101000a900460ff16600281111561232657612325613a81565b5b14612366576040517f08c379a000000000000000000000000000000000000000000000000000000000815260040161235d90614814565b60405180910390fd5b60016009600085815260200190815260200160002060000160006101000a81548160ff021916908360028111156123a05761239f613a81565b5b0217905550600760009054906101000a900473ffffffffffffffffffffffffffffffffffffffff1673ffffffffffffffffffffffffffffffffffffffff1663b37217a4836040518263ffffffff1660e01b81526004016124009190613d12565b602060405180830381865afa15801561241d573d6000803e3d6000fd5b505050506040513d601f19601f820116820180604052508101906124419190614849565b6009600085815260200190815260200160002060060160006101000a81548163ffffffff021916908363ffffffff1602179055506002547fa8077f0c0220e803c160eef0892936f177243af97c8faececd489a36f618b3176009600086815260200190815260200160002060060160009054906101000a900463ffffffff166040516124cd9190614876565b60405180910390a26124e060025461114f565b905092915050565b6124f06130e7565b73ffffffffffffffffffffffffffffffffffffffff1661250e611cdf565b73ffffffffffffffffffffffffffffffffffffffff1614612564576040517f08c379a000000000000000000000000000000000000000000000000000000000815260040161255b9061444b565b60405180910390fd5b80600760006101000a81548173ffffffffffffffffffffffffffffffffffffffff021916908373ffffffffffffffffffffffffffffffffffffffff1602179055507f6348427b80d1a23fc2ddeb56d12a3c45633067f2cc6b83c1861d35fd7a189cf8816040516125d491906148dd565b60405180910390a150565b600660009054906101000a900473ffffffffffffffffffffffffffffffffffffffff1681565b600860009054906101000a900473ffffffffffffffffffffffffffffffffffffffff1681565b6126336130e7565b73ffffffffffffffffffffffffffffffffffffffff16612651611cdf565b73ffffffffffffffffffffffffffffffffffffffff16146126a7576040517f08c379a000000000000000000000000000000000000000000000000000000000815260040161269e9061444b565b60405180910390fd5b600081141580156127755750600073ffffffffffffffffffffffffffffffffffffffff16600660009054906101000a900473ffffffffffffffffffffffffffffffffffffffff1673ffffffffffffffffffffffffffffffffffffffff1663db121f4f6040518163ffffffff1660e01b8152600401602060405180830381865afa158015612738573d6000803e3d6000fd5b505050506040513d601f19601f8201168201806040525081019061275c91906143d2565b73ffffffffffffffffffffffffffffffffffffffff1614155b15612954576000600660009054906101000a900473ffffffffffffffffffffffffffffffffffffffff1673ffffffffffffffffffffffffffffffffffffffff1663db121f4f6040518163ffffffff1660e01b8152600401602060405180830381865afa1580156127e9573d6000803e3d6000fd5b505050506040513d601f19601f8201168201806040525081019061280d91906143d2565b90508073ffffffffffffffffffffffffffffffffffffffff1663095ea7b3612833611cdf565b846040518363ffffffff1660e01b815260040161285192919061490b565b6020604051808303816000875af1158015612870573d6000803e3d6000fd5b505050506040513d601f19601f820116820180604052508101906128949190614960565b508073ffffffffffffffffffffffffffffffffffffffff1663a9059cbb6128b9611cdf565b846040518363ffffffff1660e01b81526004016128d792919061490b565b6020604051808303816000875af11580156128f6573d6000803e3d6000fd5b505050506040513d601f19601f8201168201806040525081019061291a9190614960565b507f06ba3e11fc9f53c107f6448be0c44dc86a6f36f6abc988c796284df61458aec58260405161294a9190613d12565b60405180910390a1505b50565b61295f6130e7565b73ffffffffffffffffffffffffffffffffffffffff1661297d611cdf565b73ffffffffffffffffffffffffffffffffffffffff16146129d3576040517f08c379a00000000000000000000000000000000000000000000000000000000081526004016129ca9061444b565b60405180910390fd5b600073ffffffffffffffffffffffffffffffffffffffff168173ffffffffffffffffffffffffffffffffffffffff161415612a43576040517f08c379a0000000000000000000000000000000000000000000000000000000008152600401612a3a906149ff565b60405180910390fd5b8073ffffffffffffffffffffffffffffffffffffffff1660008054906101000a900473ffffffffffffffffffffffffffffffffffffffff1673ffffffffffffffffffffffffffffffffffffffff167f8be0079c531659141344cd1fd0a4f28419497f9722a3daafe3b4186f6b6457e060405160405180910390a3806000806101000a81548173ffffffffffffffffffffffffffffffffffffffff021916908373ffffffffffffffffffffffffffffffffffffffff16021790555050565b600082511415612b45576040517f08c379a0000000000000000000000000000000000000000000000000000000008152600401612b3c90614a6b565b60405180910390fd5b60055482511115612b8b576040517f08c379a0000000000000000000000000000000000000000000000000000000008152600401612b8290614ad7565b60405180910390fd5b60006002811115612b9f57612b9e613a81565b5b6009600085815260200190815260200160002060000160009054906101000a900460ff166002811115612bd557612bd4613a81565b5b14612c15576040517f08c379a0000000000000000000000000000000000000000000000000000000008152600401612c0c90614814565b60405180910390fd5b60096000848152602001908152602001600020600201544210612c6d576040517f08c379a0000000000000000000000000000000000000000000000000000000008152600401612c6490614b43565b60405180910390fd5b6000600860009054906101000a900473ffffffffffffffffffffffffffffffffffffffff1673ffffffffffffffffffffffffffffffffffffffff1663e575cc2d336040518263ffffffff1660e01b8152600401612cca9190613a39565b602060405180830381865afa158015612ce7573d6000803e3d6000fd5b505050506040513d601f19601f82011682018060405250810190612d0b9190614960565b612d1757600454612d27565b6002600454612d2691906146f4565b5b90506000600660009054906101000a900473ffffffffffffffffffffffffffffffffffffffff1673ffffffffffffffffffffffffffffffffffffffff16635377a6a13386518630876040518663ffffffff1660e01b8152600401612d8f959493929190614b63565b6020604051808303816000875af1158015612dae573d6000803e3d6000fd5b505050506040513d601f19601f82011682018060405250810190612dd29190614bcb565b905080600960008781526020019081526020016000206005016000828254612dfa919061431e565b9250508190555060005b8451811015612fe7576000858281518110612e2257612e216140a3565b5b6020026020010151905060008163ffffffff1610158015612e4c5750620f423f8163ffffffff1611155b612e8b576040517f08c379a0000000000000000000000000000000000000000000000000000000008152600401612e8290614c44565b60405180910390fd5b60405180604001604052808263ffffffff1681526020013373ffffffffffffffffffffffffffffffffffffffff16815250600a6000600354815260200190815260200160002060008201518160000160006101000a81548163ffffffff021916908363ffffffff16021790555060208201518160000160046101000a81548173ffffffffffffffffffffffffffffffffffffffff021916908373ffffffffffffffffffffffffffffffffffffffff160217905550905050600b60003373ffffffffffffffffffffffffffffffffffffffff1673ffffffffffffffffffffffffffffffffffffffff1681526020019081526020016000206000888152602001908152602001600020600354908060018154018082558091505060019003906000526020600020016000909190919091505560036000815480929190612fce90614374565b9190505550508080612fdf90614374565b915050612e04565b506003546009600087815260200190815260200160002060040181905550843373ffffffffffffffffffffffffffffffffffffffff167fc635df4e25a1b38e01a4017a1576ed6fc45452b46ff6bf968625c475f36b610d85875160405161304f92919061490b565b60405180910390a35050505050565b6130e1846323b872dd60e01b85858560405160240161307f93929190614c64565b604051602081830303815290604052907bffffffffffffffffffffffffffffffffffffffffffffffffffffffff19166020820180517bffffffffffffffffffffffffffffffffffffffffffffffffffffffff83818316178352505050506130ef565b50505050565b600033905090565b6000613151826040518060400160405280602081526020017f5361666545524332303a206c6f772d6c6576656c2063616c6c206661696c65648152508573ffffffffffffffffffffffffffffffffffffffff166131b69092919063ffffffff16565b90506000815111156131b157808060200190518101906131719190614960565b6131b0576040517f08c379a00000000000000000000000000000000000000000000000000000000081526004016131a790614d0d565b60405180910390fd5b5b505050565b60606131c584846000856131ce565b90509392505050565b606082471015613213576040517f08c379a000000000000000000000000000000000000000000000000000000000815260040161320a90614d9f565b60405180910390fd5b61321c856132e2565b61325b576040517f08c379a000000000000000000000000000000000000000000000000000000000815260040161325290614e0b565b60405180910390fd5b6000808673ffffffffffffffffffffffffffffffffffffffff1685876040516132849190614ea5565b60006040518083038185875af1925050503d80600081146132c1576040519150601f19603f3d011682016040523d82523d6000602084013e6132c6565b606091505b50915091506132d68282866132f5565b92505050949350505050565b600080823b905060008111915050919050565b6060831561330557829050613355565b6000835111156133185782518084602001fd5b816040517f08c379a000000000000000000000000000000000000000000000000000000000815260040161334c9190614f00565b60405180910390fd5b9392505050565b6040518060a0016040528060008152602001600063ffffffff168152602001600060ff168152602001600073ffffffffffffffffffffffffffffffffffffffff1681526020016000151581525090565b604051806101200160405280600060028111156133cc576133cb613a81565b5b81526020016000815260200160008152602001600081526020016000815260200160008152602001600063ffffffff1681526020016134096134ff565b8152602001613416613521565b81525090565b8260066007016008900481019282156134ae5791602002820160005b8382111561347c57835183826101000a81548163ffffffff021916908363ffffffff1602179055509260200192600401602081600301049283019260010302613438565b80156134ac5782816101000a81549063ffffffff021916905560040160208160030104928301926001030261347c565b505b5090506134bb9190613543565b5090565b82600681019282156134ee579160200282015b828111156134ed5782518255916020019190600101906134d2565b5b5090506134fb9190613543565b5090565b6040518060c00160405280600690602082028036833780820191505090505090565b6040518060c00160405280600690602082028036833780820191505090505090565b5b8082111561355c576000816000905550600101613544565b5090565b6000604051905090565b600080fd5b600080fd5b6000819050919050565b61358781613574565b811461359257600080fd5b50565b6000813590506135a48161357e565b92915050565b600080fd5b6000601f19601f8301169050919050565b7f4e487b7100000000000000000000000000000000000000000000000000000000600052604160045260246000fd5b6135f8826135af565b810181811067ffffffffffffffff82111715613617576136166135c0565b5b80604052505050565b600061362a613560565b905061363682826135ef565b919050565b600067ffffffffffffffff821115613656576136556135c0565b5b602082029050602081019050919050565b600080fd5b600063ffffffff82169050919050565b6136858161366c565b811461369057600080fd5b50565b6000813590506136a28161367c565b92915050565b60006136bb6136b68461363b565b613620565b905080838252602082019050602084028301858111156136de576136dd613667565b5b835b8181101561370757806136f38882613693565b8452602084019350506020810190506136e0565b5050509392505050565b600082601f830112613726576137256135aa565b5b81356137368482602086016136a8565b91505092915050565b600080604083850312156137565761375561356a565b5b600061376485828601613595565b925050602083013567ffffffffffffffff8111156137855761378461356f565b5b61379185828601613711565b9150509250929050565b600073ffffffffffffffffffffffffffffffffffffffff82169050919050565b60006137c68261379b565b9050919050565b6137d6816137bb565b81146137e157600080fd5b50565b6000813590506137f3816137cd565b92915050565b60006020828403121561380f5761380e61356a565b5b600061381d848285016137e4565b91505092915050565b600080600080608085870312156138405761383f61356a565b5b600061384e878288016137e4565b945050602061385f87828801613595565b935050604061387087828801613595565b925050606061388187828801613595565b91505092959194509250565b600081519050919050565b600082825260208201905092915050565b6000819050602082019050919050565b6138c281613574565b82525050565b6138d18161366c565b82525050565b600060ff82169050919050565b6138ed816138d7565b82525050565b6138fc816137bb565b82525050565b60008115159050919050565b61391781613902565b82525050565b60a08201600082015161393360008501826138b9565b50602082015161394660208501826138c8565b50604082015161395960408501826138e4565b50606082015161396c60608501826138f3565b50608082015161397f608085018261390e565b50505050565b6000613991838361391d565b60a08301905092915050565b6000602082019050919050565b60006139b58261388d565b6139bf8185613898565b93506139ca836138a9565b8060005b838110156139fb5781516139e28882613985565b97506139ed8361399d565b9250506001810190506139ce565b5085935050505092915050565b60006020820190508181036000830152613a2281846139aa565b905092915050565b613a33816137bb565b82525050565b6000602082019050613a4e6000830184613a2a565b92915050565b600060208284031215613a6a57613a6961356a565b5b6000613a7884828501613595565b91505092915050565b7f4e487b7100000000000000000000000000000000000000000000000000000000600052602160045260246000fd5b60038110613ac157613ac0613a81565b5b50565b6000819050613ad282613ab0565b919050565b6000613ae282613ac4565b9050919050565b613af281613ad7565b82525050565b600060069050919050565b600081905092915050565b6000819050919050565b6000613b2483836138c8565b60208301905092915050565b6000602082019050919050565b613b4681613af8565b613b508184613b03565b9250613b5b82613b0e565b8060005b83811015613b8c578151613b738782613b18565b9650613b7e83613b30565b925050600181019050613b5f565b505050505050565b600060069050919050565b600081905092915050565b6000819050919050565b6000613bc083836138b9565b60208301905092915050565b6000602082019050919050565b613be281613b94565b613bec8184613b9f565b9250613bf782613baa565b8060005b83811015613c28578151613c0f8782613bb4565b9650613c1a83613bcc565b925050600181019050613bfb565b505050505050565b61026082016000820151613c476000850182613ae9565b506020820151613c5a60208501826138b9565b506040820151613c6d60408501826138b9565b506060820151613c8060608501826138b9565b506080820151613c9360808501826138b9565b5060a0820151613ca660a08501826138b9565b5060c0820151613cb960c08501826138c8565b5060e0820151613ccc60e0850182613b3d565b50610100820151613ce16101a0850182613bd9565b50505050565b600061026082019050613cfd6000830184613c30565b92915050565b613d0c81613574565b82525050565b6000602082019050613d276000830184613d03565b92915050565b60008060408385031215613d4457613d4361356a565b5b6000613d5285828601613595565b9250506020613d6385828601613595565b9150509250929050565b600067ffffffffffffffff821115613d8857613d876135c0565b5b602082029050919050565b6000613da6613da184613d6d565b613620565b90508060208402830185811115613dc057613dbf613667565b5b835b81811015613de95780613dd58882613693565b845260208401935050602081019050613dc2565b5050509392505050565b600082601f830112613e0857613e076135aa565b5b6006613e15848285613d93565b91505092915050565b60008060006101a08486031215613e3857613e3761356a565b5b6000613e4686828701613595565b9350506020613e5786828701613df3565b92505060e0613e6886828701613df3565b9150509250925092565b600080600060608486031215613e8b57613e8a61356a565b5b6000613e9986828701613595565b9350506020613eaa86828701613595565b9250506040613ebb86828701613595565b9150509250925092565b6000819050919050565b6000613eea613ee5613ee08461379b565b613ec5565b61379b565b9050919050565b6000613efc82613ecf565b9050919050565b6000613f0e82613ef1565b9050919050565b613f1e81613f03565b82525050565b6000602082019050613f396000830184613f15565b92915050565b6000613f4a82613ef1565b9050919050565b613f5a81613f3f565b82525050565b6000602082019050613f756000830184613f51565b92915050565b6000613f8682613ef1565b9050919050565b613f9681613f7b565b82525050565b6000602082019050613fb16000830184613f8d565b92915050565b600080600060608486031215613fd057613fcf61356a565b5b6000613fde86828701613595565b935050602084013567ffffffffffffffff811115613fff57613ffe61356f565b5b61400b86828701613711565b925050604061401c868287016137e4565b9150509250925092565b600082825260208201905092915050565b7f4c6f7474657279206973206e6f7420436c6f7365640000000000000000000000600082015250565b600061406d601583614026565b915061407882614037565b602082019050919050565b6000602082019050818103600083015261409c81614060565b9050919050565b7f4e487b7100000000000000000000000000000000000000000000000000000000600052603260045260246000fd5b7f74686973207469636b6574206973206e6f7420696e2074686973206c6f74746560008201527f7279000000000000000000000000000000000000000000000000000000000000602082015250565b600061412e602283614026565b9150614139826140d2565b604082019050919050565b6000602082019050818103600083015261415d81614121565b9050919050565b7f596f7520617265206e6f74206f776e6572206f662074686973207469636b657460008201527f2c206f722074686973207469636b657420697320616c726561647920636c616960208201527f6d65640000000000000000000000000000000000000000000000000000000000604082015250565b60006141e6604383614026565b91506141f182614164565b606082019050919050565b60006020820190508181036000830152614215816141d9565b9050919050565b6142258161366c565b82525050565b6000606082019050614240600083018661421c565b61424d602083018561421c565b61425a6040830184613a2a565b949350505050565b61426b816138d7565b811461427657600080fd5b50565b60008151905061428881614262565b92915050565b6000602082840312156142a4576142a361356a565b5b60006142b284828501614279565b91505092915050565b7f4e487b7100000000000000000000000000000000000000000000000000000000600052601160045260246000fd5b60006142f5826138d7565b9150614300836138d7565b925082821015614313576143126142bb565b5b828203905092915050565b600061432982613574565b915061433483613574565b9250827fffffffffffffffffffffffffffffffffffffffffffffffffffffffffffffffff03821115614369576143686142bb565b5b828201905092915050565b600061437f82613574565b91507fffffffffffffffffffffffffffffffffffffffffffffffffffffffffffffffff8214156143b2576143b16142bb565b5b600182019050919050565b6000815190506143cc816137cd565b92915050565b6000602082840312156143e8576143e761356a565b5b60006143f6848285016143bd565b91505092915050565b7f4f776e61626c653a2063616c6c6572206973206e6f7420746865206f776e6572600082015250565b6000614435602083614026565b9150614440826143ff565b602082019050919050565b6000602082019050818103600083015261446481614428565b9050919050565b7f6f70657261746f72416464726573730000000000000000000000000000000000600082015250565b60006144a1600f83614026565b91506144ac8261446b565b602082019050919050565b600060408201905081810360008301526144d081614494565b90506144df6020830184613a2a565b92915050565b60006144f082613574565b91506144fb83613574565b92508282101561450e5761450d6142bb565b5b828203905092915050565b7f6c6f74746572794e465400000000000000000000000000000000000000000000600082015250565b600061454f600a83614026565b915061455a82614519565b602082019050919050565b6000604082019050818103600083015261457e81614542565b905061458d6020830184613a2a565b92915050565b7f4e6f74206f70657261746f720000000000000000000000000000000000000000600082015250565b60006145c9600c83614026565b91506145d482614593565b602082019050919050565b600060208201905081810360008301526145f8816145bc565b9050919050565b7f4c6f7474657279206973206e6f7420447261776e000000000000000000000000600082015250565b6000614635601483614026565b9150614640826145ff565b602082019050919050565b6000602082019050818103600083015261466481614628565b9050919050565b600061467682613574565b915061468183613574565b9250817fffffffffffffffffffffffffffffffffffffffffffffffffffffffffffffffff04831182151516156146ba576146b96142bb565b5b828202905092915050565b7f4e487b7100000000000000000000000000000000000000000000000000000000600052601260045260246000fd5b60006146ff82613574565b915061470a83613574565b92508261471a576147196146c5565b5b828204905092915050565b7f6c6f747465727950726963654164647265737300000000000000000000000000600082015250565b600061475b601383614026565b915061476682614725565b602082019050919050565b6000604082019050818103600083015261478a8161474e565b90506147996020830184613a2a565b92915050565b60006040820190506147b46000830185613d03565b6147c16020830184613d03565b9392505050565b7f4c6f7474657279206973206e6f74206f70656e00000000000000000000000000600082015250565b60006147fe601383614026565b9150614809826147c8565b602082019050919050565b6000602082019050818103600083015261482d816147f1565b9050919050565b6000815190506148438161367c565b92915050565b60006020828403121561485f5761485e61356a565b5b600061486d84828501614834565b91505092915050565b600060208201905061488b600083018461421c565b92915050565b7f6c6f747465727952616e646f6d00000000000000000000000000000000000000600082015250565b60006148c7600d83614026565b91506148d282614891565b602082019050919050565b600060408201905081810360008301526148f6816148ba565b90506149056020830184613a2a565b92915050565b60006040820190506149206000830185613a2a565b61492d6020830184613d03565b9392505050565b61493d81613902565b811461494857600080fd5b50565b60008151905061495a81614934565b92915050565b6000602082840312156149765761497561356a565b5b60006149848482850161494b565b91505092915050565b7f4f776e61626c653a206e6577206f776e657220697320746865207a65726f206160008201527f6464726573730000000000000000000000000000000000000000000000000000602082015250565b60006149e9602683614026565b91506149f48261498d565b604082019050919050565b60006020820190508181036000830152614a18816149dc565b9050919050565b7f4e6f207469636b65742073706563696669656400000000000000000000000000600082015250565b6000614a55601383614026565b9150614a6082614a1f565b602082019050919050565b60006020820190508181036000830152614a8481614a48565b9050919050565b7f546f6f206d616e79207469636b65747300000000000000000000000000000000600082015250565b6000614ac1601083614026565b9150614acc82614a8b565b602082019050919050565b60006020820190508181036000830152614af081614ab4565b9050919050565b7f4c6f7474657279206973206f7665720000000000000000000000000000000000600082015250565b6000614b2d600f83614026565b9150614b3882614af7565b602082019050919050565b60006020820190508181036000830152614b5c81614b20565b9050919050565b600060a082019050614b786000830188613a2a565b614b856020830187613d03565b614b926040830186613a2a565b614b9f6060830185613a2a565b614bac6080830184613d03565b9695505050505050565b600081519050614bc58161357e565b92915050565b600060208284031215614be157614be061356a565b5b6000614bef84828501614bb6565b91505092915050565b7f5469636b6574204e756d626572204f7574736964652072616e67650000000000600082015250565b6000614c2e601b83614026565b9150614c3982614bf8565b602082019050919050565b60006020820190508181036000830152614c5d81614c21565b9050919050565b6000606082019050614c796000830186613a2a565b614c866020830185613a2a565b614c936040830184613d03565b949350505050565b7f5361666545524332303a204552433230206f7065726174696f6e20646964206e60008201527f6f74207375636365656400000000000000000000000000000000000000000000602082015250565b6000614cf7602a83614026565b9150614d0282614c9b565b604082019050919050565b60006020820190508181036000830152614d2681614cea565b9050919050565b7f416464726573733a20696e73756666696369656e742062616c616e636520666f60008201527f722063616c6c0000000000000000000000000000000000000000000000000000602082015250565b6000614d89602683614026565b9150614d9482614d2d565b604082019050919050565b60006020820190508181036000830152614db881614d7c565b9050919050565b7f416464726573733a2063616c6c20746f206e6f6e2d636f6e7472616374000000600082015250565b6000614df5601d83614026565b9150614e0082614dbf565b602082019050919050565b60006020820190508181036000830152614e2481614de8565b9050919050565b600081519050919050565b600081905092915050565b60005b83811015614e5f578082015181840152602081019050614e44565b83811115614e6e576000848401525b50505050565b6000614e7f82614e2b565b614e898185614e36565b9350614e99818560208601614e41565b80840191505092915050565b6000614eb18284614e74565b915081905092915050565b600081519050919050565b6000614ed282614ebc565b614edc8185614026565b9350614eec818560208601614e41565b614ef5816135af565b840191505092915050565b60006020820190508181036000830152614f1a8184614ec7565b90509291505056fea2646970667358221220f700fa8f08f03df082d59a6719c15bf5e756aae2950d138f0aef9dbfea49785f64736f6c634300080c0033",
  "immutableReferences": {},
  "source": "// SPDX-License-Identifier: MIT\npragma solidity ^0.8.0;\n\nimport \"./Ownable.sol\";\nimport \"./Address.sol\";\nimport \"./IERC20.sol\";\nimport \"./SafeERC20.sol\";\nimport \"./ILotteryPrice.sol\";\nimport \"./ILotteryRandom.sol\";\nimport \"./ILotteryNFT.sol\";\n\ncontract DynamixLottery is Ownable {\n\tusing SafeERC20 for IERC20;\n\n    address public operatorAddress;\n\n\tuint256 public currentLotteryId = 0;\n    uint256 public currentTicketId = 0;\n\t\n\tuint256 public ticketPriceInUSD = 1 * 10**18;\n    uint256 public maxTicket = 100;\n\t\n\tIDynamixLotteryPrice public lotteryPrice;\n\tIDynamixLotteryRandom public lotteryRandom;\n\tIDynamixLotteryNFT public lotteryNFT;\n\t\n\tenum LotteryStatus {\n        Open,\n        InDraw,\n        Close\n    }\n\n    struct Lottery {\n        LotteryStatus status;\n        uint256 startTime;\n        uint256 endTime;\n        uint256 firstTicketId;\n        uint256 lastTicketId;\n        uint256 amount;\n        uint32 winningNumber;\n        uint32[6] winnersPerBracket;\n        uint256[6] amountsPerBracket;\n    }\n\n    struct Ticket {\n        uint32 number;\n        address player;\n    }\n\t\n\tstruct TicketView {\n\t\tuint256 id;\n        uint32 number;\n        uint8 matchNumber;\n\t\taddress player;\n\t\tbool claimed;\n    }\n\t\t\n\tmapping(uint256 => Lottery) private _lotteries;\n    mapping(uint256 => Ticket) private _tickets;\n    mapping(address => mapping(uint256 => uint256[])) private _players;\n\n\tevent NewBet(\n\t\taddress indexed player, \n\t\taddress betInToken,\n\t\tuint256 indexed lotteryId, \n\t\tuint256 numberTickets\n\t);\n\t\n\tevent NewLottery(\n\t\tuint256 indexed lotteryId\n\t);\n\t\n\tevent DrawnLottery(\n\t\tuint256 indexed lotteryId, \n\t\tuint32 winningNumber\n\t);\n\t\n\tevent CloseLottery(\n\t\tuint256 indexed lotteryId\n\t);\n\t\n\tevent FundsInjected(\n\t\tuint256 indexed lotteryId, \n\t\tuint256 amount\n\t);\n\t\n\tevent FundsWithDrawn(\n\t\tuint256 amount\n\t);\n\n\tevent TicketsClaimed(\n\t\taddress indexed player, \n\t\tuint256 indexed lotteryId, \n\t\tuint256 amount\n\t);\n\t\n\tevent AddressConfigurationChanged(\n\t\tstring typeValue,\n\t\taddress addrValue\n\t);\n\t\n\tevent TicketPriceChanged(\n\t\tuint256 ticketPriceInUSD,\n\t\tuint256 maxTicket\n\t);\n\n\tmodifier onlyOperator() {\n        require(msg.sender == operatorAddress || msg.sender == owner(), \"Not operator\");\n        _;\n    }\n\t\n\tconstructor() {\n        \n    }\n\t\n\t// *****************************************\n\t// Main Lottery Functions\n\t// *****************************************\n\n\t// Bet in lottery\n\tfunction bet(uint256 lotteryId, uint32[] memory tickets, address betInToken) public {\n\t\trequire(tickets.length != 0, \"No ticket specified\");\n        require(tickets.length <= maxTicket, \"Too many tickets\");\n        require(_lotteries[lotteryId].status == LotteryStatus.Open, \"Lottery is not open\");\n        require(block.timestamp < _lotteries[lotteryId].endTime, \"Lottery is over\");\n\n\t\t// Swap and Transfer\n\t\tuint256 price = lotteryNFT.hasDiscount(msg.sender) ? ticketPriceInUSD / 2 : ticketPriceInUSD;\n\t\tuint256 totalDyna = lotteryPrice.swapAndTransfer(address(msg.sender), tickets.length, betInToken, address(this), price);\n\t\t_lotteries[lotteryId].amount += totalDyna;\n\t\t\n\t\t// Create Tickets\n\t\tfor (uint256 i = 0; i < tickets.length; i++) {\n            uint32 number = tickets[i];\n\n            require((number >= 0) && (number <= 999999), \"Ticket Number Outside range\");\n\n            _tickets[currentTicketId] = Ticket({number: number, player: msg.sender});\n\t\t\t _players[msg.sender][lotteryId].push(currentTicketId);\n\t\t\t \n            currentTicketId++;\t\n        }\n\n\t\t_lotteries[lotteryId].lastTicketId = currentTicketId;\n        emit NewBet(msg.sender, betInToken, lotteryId, tickets.length);\t\t\n\t}\n\t\t\n\t// Start New Lottery\n\tfunction createLottery(uint256 endTime) public onlyOperator returns(Lottery memory)  {\n\t\tuint256 nextAmount = 0;\n\t\t\n\t\tif(currentLotteryId != 0) {\n\t\t\tfor (uint256 i = 0; i < _lotteries[currentLotteryId].amountsPerBracket.length; i++) \n\t\t\t\tnextAmount += _lotteries[currentLotteryId].amountsPerBracket[i] * _lotteries[currentLotteryId].winnersPerBracket[i];\n\t\t\tnextAmount = _lotteries[currentLotteryId].amount - nextAmount;\n\t\t}\n\t\t\n\t\tLottery memory newLottery = Lottery({\n\t\t\tstatus: LotteryStatus.Open, \n\t\t\tstartTime: block.timestamp,\n\t\t\tendTime: endTime,\n\t\t\tfirstTicketId: currentTicketId,\n\t\t\tlastTicketId: currentTicketId,\n\t\t\tamount: nextAmount,\n\t\t\twinningNumber: 0,\n\t\t\twinnersPerBracket: [uint32(0), uint32(0), uint32(0), uint32(0), uint32(0), uint32(0)],\n\t\t\tamountsPerBracket: [uint256(0), uint256(0), uint256(0), uint256(0), uint256(0), uint256(0)]\n\t\t});\n\t\t       \n\t\tcurrentLotteryId++;\n\t\t_lotteries[currentLotteryId] = newLottery;\n\t\t\n\t\temit NewLottery(currentLotteryId);\t\n\t\t\n\t\treturn viewLottery(currentLotteryId);\n\t}\n\t\n\t// Draw Lottery\n\tfunction draw(uint256 lotteryId, uint256 random) public onlyOperator returns(Lottery memory)  {\n        require(_lotteries[lotteryId].status == LotteryStatus.Open, \"Lottery is not open\");\n\n\t\t_lotteries[lotteryId].status = LotteryStatus.InDraw;\n\t\t_lotteries[lotteryId].winningNumber = lotteryRandom.getRandomNumber(random);\n\t\t\n\t\temit DrawnLottery(currentLotteryId, _lotteries[lotteryId].winningNumber);\t\n\t\t\n\t\treturn viewLottery(currentLotteryId);\n\t}\n\t\n\t// Set Winners Per Bracket\n\tfunction calculWinnersPerBracket(uint256 lotteryId, uint32[6] memory winnersPerBracket,  uint32[6] memory percentsPerBracket) public onlyOperator  {\n        require(_lotteries[lotteryId].status == LotteryStatus.InDraw, \"Lottery is not Drawn\");\n\n\t\t_lotteries[lotteryId].status = LotteryStatus.Close;\n\t\t_lotteries[lotteryId].winnersPerBracket = winnersPerBracket;\n\t\t\n\t\tfor (uint256 i = 0; i < winnersPerBracket.length; i++) {\n\t\t\tif(winnersPerBracket[i] != 0)\n\t\t\t\t_lotteries[lotteryId].amountsPerBracket[i] = _lotteries[lotteryId].amount * percentsPerBracket[i] / 100 / winnersPerBracket[i];\n\t\t}\n\t\t\n\t\temit CloseLottery(currentLotteryId);\t\n\t}\n\t\n\t// Inject amount in lottery\n\tfunction injectFunds(uint256 lotteryId, uint256 amount) public onlyOwner  {\n\t\t_lotteries[lotteryId].amount = amount;\n\t\t\n\t\temit FundsInjected(lotteryId, amount);\t\n\t}\n\t\n\t// Withdrawal (for security or smart contract migration reasons)\n\tfunction withDrawalFunds(uint256 totalDYNA) public onlyOwner  {\n\t\tif(totalDYNA != 0 && lotteryPrice.DYNA() != address(0)) {\n\t\t\tIERC20 token = IERC20(lotteryPrice.DYNA());\n\t\t\ttoken.approve(owner(), totalDYNA);\n\t\t\ttoken.transfer(owner(), totalDYNA);\n\t\t\t\n\t\t\temit FundsWithDrawn(totalDYNA);\t\n\t\t}\n\t}\n\t\n\t// Claim tickets\n\tfunction claim(uint256 lotteryId, uint32[] memory ticketIds) public {\n        require(_lotteries[lotteryId].status == LotteryStatus.Close, \"Lottery is not Closed\");\n\t\tuint256 totalDYNA = 0;\n\t\t\n\t\tfor (uint256 i = 0; i < ticketIds.length; i++) {\n            uint32 id = ticketIds[i];\n\n            require(id >= _lotteries[lotteryId].firstTicketId && id < _lotteries[lotteryId].lastTicketId, \"this ticket is not in this lottery\");\n            require(msg.sender == _tickets[id].player, \"You are not owner of this ticket, or this ticket is already claimed\");\n\t\t\t\n\t\t\tuint8 matchNumber = lotteryNFT.countMatch(_tickets[id].number, _lotteries[lotteryId].winningNumber, _tickets[id].player);\n\t\t\tif(matchNumber != 0)\n\t\t\t\ttotalDYNA += _lotteries[lotteryId].amountsPerBracket[matchNumber - 1];\n\n            _tickets[id].player = address(0);\n        }\n\t\t\n\t\tif(totalDYNA != 0 && lotteryPrice.DYNA() != address(0)) {\n\t\t\tIERC20 token = IERC20(lotteryPrice.DYNA());\n\t\t\ttoken.safeTransferFrom(address(this), msg.sender, totalDYNA);\n\t\t}\n\t\t\n\t\temit TicketsClaimed(msg.sender, lotteryId, totalDYNA);\t\t\n\t}\n\t\n\t// *****************************************\n\t// View Lottery Functions\n\t// *****************************************\n\t\n\t// View Lottery information\n\tfunction viewLottery(uint256 lotteryId) public view returns(Lottery memory) {\n\t\treturn _lotteries[lotteryId];\n\t}\n\t\n\t// View Tickets \n\tfunction viewTickets(uint256 lotteryId, uint256 fromTicketId, uint256 toTicketId) public view returns(TicketView[] memory) {\n\t\tfromTicketId = fromTicketId < _lotteries[lotteryId].firstTicketId ? _lotteries[lotteryId].firstTicketId : fromTicketId;\n\t\ttoTicketId = toTicketId > _lotteries[lotteryId].lastTicketId ? _lotteries[lotteryId].lastTicketId : toTicketId;\n\t\t\n\t\tuint256 length = toTicketId - fromTicketId;\n\t\tTicketView[] memory Tickets = new TicketView[](length);\n\t\t\n\t\tfor (uint256 i = 0; i < length; i++) {\n\t\t\tuint256 ticketId = i + fromTicketId;\n\t\t\t\n\t\t\tTickets[i].id = ticketId;\n\t\t\tTickets[i].number = _tickets[ticketId].number;\n\t\t\tTickets[i].player = _tickets[ticketId].player;\n\t\t\tTickets[i].claimed = _tickets[ticketId].player == address(0);\n\n\t\t\tif(_lotteries[lotteryId].winningNumber != 0)\n\t\t\t\tTickets[i].matchNumber = lotteryNFT.countMatch(Tickets[i].number, _lotteries[lotteryId].winningNumber, _tickets[ticketId].player);\n        }\n\t\t\n\t\treturn Tickets;\n\t}\n\n\t// View Player information\n\tfunction viewPlayer(address player, uint256 lotteryId, uint256 from, uint256 to) public view returns(TicketView[] memory) {\n\t\tuint256 length = _players[player][lotteryId].length;\n\t\tlength = to > length ? length : to - from;\n\n\t\tTicketView[] memory Tickets = new TicketView[](length);\n\t\t\n\t\tfor (uint256 i = 0; i < length; i++) {\n            uint256 ticketId = _players[player][lotteryId][i + from];\n            \n\t\t\tTickets[i].id = ticketId;\n\t\t\tTickets[i].number = _tickets[ticketId].number;\n\t\t\tTickets[i].player = _tickets[ticketId].player;\n\t\t\tTickets[i].claimed = _tickets[ticketId].player == address(0);\n\t\t\t\n\t\t\tif(_lotteries[lotteryId].winningNumber != 0)\n\t\t\t\tTickets[i].matchNumber = lotteryNFT.countMatch(Tickets[i].number, _lotteries[lotteryId].winningNumber, _tickets[ticketId].player);\n        }\n\t\t\n\t\treturn Tickets;\n\t}\n\t\n\t// *****************************************\n\t// Admin Lottery Functions\n\t// *****************************************\n\n\t// Change Lottery Price Manager\n\tfunction changeLotteryPrice(address lotteryPriceAddress) public onlyOwner {\n\t\t lotteryPrice = IDynamixLotteryPrice(lotteryPriceAddress);\n\t\t emit AddressConfigurationChanged(\"lotteryPriceAddress\", lotteryPriceAddress);\n\t}\n\t\n\t// Change Lottery Random Manager\n\tfunction changeLotteryRandom(address lotteryRandomAddress) public onlyOwner {\n\t\t lotteryRandom = IDynamixLotteryRandom(lotteryRandomAddress);\n\t\t emit AddressConfigurationChanged(\"lotteryRandom\", lotteryRandomAddress);\n\t}\n\t\n\t// Change Lottery NFT Manager\n\tfunction changeLotteryNFT(address lotteryNFTAddress) public onlyOwner {\n\t\t lotteryNFT = IDynamixLotteryNFT(lotteryNFTAddress);\n\t\t emit AddressConfigurationChanged(\"lotteryNFT\", lotteryNFTAddress);\n\t}\n\t\n\t// Change bot Operator address\n\tfunction changeOperator(address operator) public onlyOwner {\n\t\t operatorAddress = operator;\n\t\t emit AddressConfigurationChanged(\"operatorAddress\", operatorAddress);\n\t}\n\n\t// Change Ticket Price and Max ticket\n\tfunction changeTicketPrice(uint256 price, uint256 max) public onlyOwner {\n\t\t ticketPriceInUSD = price;\n\t\t maxTicket = max;\n\t\t \n\t\t emit TicketPriceChanged(ticketPriceInUSD, maxTicket);\n\t}\n}",
  "sourcePath": "C:/Users/Amos/Documents/BEP 20/dynamic/DynamixLotterySmartContract/contracts/Lottery.sol",
  "compiler": {
    "name": "solc",
    "version": "0.8.12+commit.f00d7308.Emscripten.clang"
  },
  "schemaVersion": "3.4.1",
  "updatedAt": "2022-03-15T09:56:02.333Z",
  "devdoc": {
    "kind": "dev",
    "methods": {
      "owner()": {
        "details": "Returns the address of the current owner."
      },
      "renounceOwnership()": {
        "details": "Leaves the contract without owner. It will not be possible to call `onlyOwner` functions anymore. Can only be called by the current owner. NOTE: Renouncing ownership will leave the contract without an owner, thereby removing any functionality that is only available to the owner."
      },
      "transferOwnership(address)": {
        "details": "Transfers ownership of the contract to a new account (`newOwner`). Can only be called by the current owner."
      }
    },
    "version": 1
  },
  "userdoc": {
    "kind": "user",
    "methods": {},
    "version": 1
  }
}