{
  "contractName": "DynamixLotteryNFT",
  "abi": [
    {
      "inputs": [],
      "stateMutability": "nonpayable",
      "type": "constructor"
    },
    {
      "anonymous": false,
      "inputs": [
        {
          "indexed": true,
          "internalType": "address",
          "name": "previousOwner",
          "type": "address"
        },
        {
          "indexed": true,
          "internalType": "address",
          "name": "newOwner",
          "type": "address"
        }
      ],
      "name": "OwnershipTransferred",
      "type": "event"
    },
    {
      "inputs": [],
      "name": "owner",
      "outputs": [
        {
          "internalType": "address",
          "name": "",
          "type": "address"
        }
      ],
      "stateMutability": "view",
      "type": "function"
    },
    {
      "inputs": [],
      "name": "renounceOwnership",
      "outputs": [],
      "stateMutability": "nonpayable",
      "type": "function"
    },
    {
      "inputs": [
        {
          "internalType": "address",
          "name": "newOwner",
          "type": "address"
        }
      ],
      "name": "transferOwnership",
      "outputs": [],
      "stateMutability": "nonpayable",
      "type": "function"
    },
    {
      "inputs": [
        {
          "internalType": "uint256[]",
          "name": "nftIds",
          "type": "uint256[]"
        }
      ],
      "name": "resetNFTOwner",
      "outputs": [],
      "stateMutability": "nonpayable",
      "type": "function"
    },
    {
      "inputs": [
        {
          "components": [
            {
              "internalType": "address",
              "name": "player",
              "type": "address"
            },
            {
              "components": [
                {
                  "internalType": "bool",
                  "name": "minusOnePlusOne",
                  "type": "bool"
                },
                {
                  "internalType": "bool",
                  "name": "jokerX1",
                  "type": "bool"
                },
                {
                  "internalType": "bool",
                  "name": "jokerX2",
                  "type": "bool"
                },
                {
                  "internalType": "bool",
                  "name": "discount50",
                  "type": "bool"
                }
              ],
              "internalType": "struct DynamixLotteryNFT.NFT",
              "name": "nft",
              "type": "tuple"
            },
            {
              "internalType": "uint256[]",
              "name": "nftIds",
              "type": "uint256[]"
            }
          ],
          "internalType": "struct DynamixLotteryNFT.NFTPlayer[]",
          "name": "nftPlayers",
          "type": "tuple[]"
        }
      ],
      "name": "addNFTOwner",
      "outputs": [],
      "stateMutability": "nonpayable",
      "type": "function"
    },
    {
      "inputs": [
        {
          "internalType": "address",
          "name": "player",
          "type": "address"
        }
      ],
      "name": "viewPowers",
      "outputs": [
        {
          "components": [
            {
              "internalType": "bool",
              "name": "minusOnePlusOne",
              "type": "bool"
            },
            {
              "internalType": "bool",
              "name": "jokerX1",
              "type": "bool"
            },
            {
              "internalType": "bool",
              "name": "jokerX2",
              "type": "bool"
            },
            {
              "internalType": "bool",
              "name": "discount50",
              "type": "bool"
            }
          ],
          "internalType": "struct DynamixLotteryNFT.NFT",
          "name": "",
          "type": "tuple"
        }
      ],
      "stateMutability": "view",
      "type": "function"
    },
    {
      "inputs": [
        {
          "internalType": "address",
          "name": "player",
          "type": "address"
        }
      ],
      "name": "hasDiscount",
      "outputs": [
        {
          "internalType": "bool",
          "name": "",
          "type": "bool"
        }
      ],
      "stateMutability": "view",
      "type": "function"
    },
    {
      "inputs": [
        {
          "internalType": "uint32",
          "name": "playerNumber",
          "type": "uint32"
        },
        {
          "internalType": "uint32",
          "name": "winnerNumber",
          "type": "uint32"
        },
        {
          "internalType": "address",
          "name": "player",
          "type": "address"
        }
      ],
      "name": "countMatch",
      "outputs": [
        {
          "internalType": "uint8",
          "name": "",
          "type": "uint8"
        }
      ],
      "stateMutability": "view",
      "type": "function"
    },
    {
      "inputs": [
        {
          "internalType": "uint32",
          "name": "playerNumber",
          "type": "uint32"
        },
        {
          "internalType": "uint32",
          "name": "winnerNumber",
          "type": "uint32"
        },
        {
          "internalType": "bool",
          "name": "minusOnePlusOneNFT",
          "type": "bool"
        },
        {
          "internalType": "uint8",
          "name": "jokerNFT",
          "type": "uint8"
        }
      ],
      "name": "countMatchNFT",
      "outputs": [
        {
          "internalType": "uint8",
          "name": "",
          "type": "uint8"
        }
      ],
      "stateMutability": "view",
      "type": "function"
    }
  ],
  "bytecode": "0x608060405234801561001057600080fd5b5060006100216100c460201b60201c565b9050806000806101000a81548173ffffffffffffffffffffffffffffffffffffffff021916908373ffffffffffffffffffffffffffffffffffffffff1602179055508073ffffffffffffffffffffffffffffffffffffffff16600073ffffffffffffffffffffffffffffffffffffffff167f8be0079c531659141344cd1fd0a4f28419497f9722a3daafe3b4186f6b6457e060405160405180910390a3506100cc565b600033905090565b611984806100db6000396000f3fe608060405234801561001057600080fd5b50600436106100935760003560e01c80638da5cb5b116100665780638da5cb5b1461010a578063d25826b614610128578063e575cc2d14610158578063ea857c5614610188578063f2fde38b146101b857610093565b80631aa3755b146100985780635eba5f7b146100c8578063715018a6146100e45780637b598023146100ee575b600080fd5b6100b260048036038101906100ad9190610e0d565b6101d4565b6040516100bf9190610eaa565b60405180910390f35b6100e260048036038101906100dd9190611263565b610299565b005b6100ec61051d565b005b610108600480360381019061010391906112ac565b610657565b005b610112610838565b60405161011f9190611304565b60405180910390f35b610142600480360381019061013d9190611394565b610861565b60405161014f919061140a565b60405180910390f35b610172600480360381019061016d9190610e0d565b610a61565b60405161017f9190611434565b60405180910390f35b6101a2600480360381019061019d919061144f565b610aba565b6040516101af919061140a565b60405180910390f35b6101d260048036038101906101cd9190610e0d565b610bba565b005b6101dc610d6b565b600160008373ffffffffffffffffffffffffffffffffffffffff1673ffffffffffffffffffffffffffffffffffffffff1681526020019081526020016000206040518060800160405290816000820160009054906101000a900460ff161515151581526020016000820160019054906101000a900460ff161515151581526020016000820160029054906101000a900460ff161515151581526020016000820160039054906101000a900460ff1615151515815250509050919050565b6102a1610d63565b73ffffffffffffffffffffffffffffffffffffffff166102bf610838565b73ffffffffffffffffffffffffffffffffffffffff1614610315576040517f08c379a000000000000000000000000000000000000000000000000000000000815260040161030c906114ff565b60405180910390fd5b60005b8151811015610519578181815181106103345761033361151f565b5b602002602001015160200151600160008484815181106103575761035661151f565b5b60200260200101516000015173ffffffffffffffffffffffffffffffffffffffff1673ffffffffffffffffffffffffffffffffffffffff16815260200190815260200160002060008201518160000160006101000a81548160ff02191690831515021790555060208201518160000160016101000a81548160ff02191690831515021790555060408201518160000160026101000a81548160ff02191690831515021790555060608201518160000160036101000a81548160ff02191690831515021790555090505060005b8282815181106104365761043561151f565b5b602002602001015160400151518110156105055782828151811061045d5761045c61151f565b5b602002602001015160000151600260008585815181106104805761047f61151f565b5b602002602001015160400151848151811061049e5761049d61151f565b5b6020026020010151815260200190815260200160002060006101000a81548173ffffffffffffffffffffffffffffffffffffffff021916908373ffffffffffffffffffffffffffffffffffffffff16021790555080806104fd9061157d565b915050610423565b5080806105119061157d565b915050610318565b5050565b610525610d63565b73ffffffffffffffffffffffffffffffffffffffff16610543610838565b73ffffffffffffffffffffffffffffffffffffffff1614610599576040517f08c379a0000000000000000000000000000000000000000000000000000000008152600401610590906114ff565b60405180910390fd5b600073ffffffffffffffffffffffffffffffffffffffff1660008054906101000a900473ffffffffffffffffffffffffffffffffffffffff1673ffffffffffffffffffffffffffffffffffffffff167f8be0079c531659141344cd1fd0a4f28419497f9722a3daafe3b4186f6b6457e060405160405180910390a360008060006101000a81548173ffffffffffffffffffffffffffffffffffffffff021916908373ffffffffffffffffffffffffffffffffffffffff160217905550565b61065f610d63565b73ffffffffffffffffffffffffffffffffffffffff1661067d610838565b73ffffffffffffffffffffffffffffffffffffffff16146106d3576040517f08c379a00000000000000000000000000000000000000000000000000000000081526004016106ca906114ff565b60405180910390fd5b60005b8151811015610834576000600260008484815181106106f8576106f761151f565b5b6020026020010151815260200190815260200160002060009054906101000a900473ffffffffffffffffffffffffffffffffffffffff169050604051806080016040528060001515815260200160001515815260200160001515815260200160001515815250600160008373ffffffffffffffffffffffffffffffffffffffff1673ffffffffffffffffffffffffffffffffffffffff16815260200190815260200160002060008201518160000160006101000a81548160ff02191690831515021790555060208201518160000160016101000a81548160ff02191690831515021790555060408201518160000160026101000a81548160ff02191690831515021790555060608201518160000160036101000a81548160ff02191690831515021790555090505050808061082c9061157d565b9150506106d6565b5050565b60008060009054906101000a900473ffffffffffffffffffffffffffffffffffffffff16905090565b60008085620f424061087391906115c6565b9050600085620f424061088691906115c6565b90506000805b60068160ff161015610a525760008160056108a79190611600565b600a6108b39190611767565b9050600081866108c391906117c5565b9050600082866108d391906117c5565b90508980156108ee57508063ffffffff168263ffffffff1614155b1561096c5760008163ffffffff168363ffffffff1611905060008161091e57838361091991906117f6565b61092b565b828461092a91906117f6565b5b905060018163ffffffff161415610969578293508161095557848961095091906115c6565b610962565b848961096191906117f6565b5b985060009b505b50505b60008960ff1611801561098b57508063ffffffff168263ffffffff1614155b15610a195760008163ffffffff168363ffffffff161190506000816109bb5783836109b691906117f6565b6109c8565b82846109c791906117f6565b5b9050829350816109ee5784816109de919061182a565b896109e991906115c6565b610a06565b84816109fa919061182a565b89610a0591906117f6565b5b98508a80610a1390611868565b9b505050505b8063ffffffff168263ffffffff161415610a3c578480610a3890611892565b9550505b5050508080610a4a90611892565b91505061088c565b50809350505050949350505050565b6000600160008373ffffffffffffffffffffffffffffffffffffffff1673ffffffffffffffffffffffffffffffffffffffff16815260200190815260200160002060000160039054906101000a900460ff169050919050565b600080600160008473ffffffffffffffffffffffffffffffffffffffff1673ffffffffffffffffffffffffffffffffffffffff1681526020019081526020016000206040518060800160405290816000820160009054906101000a900460ff161515151581526020016000820160019054906101000a900460ff161515151581526020016000820160029054906101000a900460ff161515151581526020016000820160039054906101000a900460ff161515151581525050905060008160200151610b865780610b89565b60015b90508160400151610b9a5780610b9d565b60025b9050610baf8686846000015184610861565b925050509392505050565b610bc2610d63565b73ffffffffffffffffffffffffffffffffffffffff16610be0610838565b73ffffffffffffffffffffffffffffffffffffffff1614610c36576040517f08c379a0000000000000000000000000000000000000000000000000000000008152600401610c2d906114ff565b60405180910390fd5b600073ffffffffffffffffffffffffffffffffffffffff168173ffffffffffffffffffffffffffffffffffffffff161415610ca6576040517f08c379a0000000000000000000000000000000000000000000000000000000008152600401610c9d9061192e565b60405180910390fd5b8073ffffffffffffffffffffffffffffffffffffffff1660008054906101000a900473ffffffffffffffffffffffffffffffffffffffff1673ffffffffffffffffffffffffffffffffffffffff167f8be0079c531659141344cd1fd0a4f28419497f9722a3daafe3b4186f6b6457e060405160405180910390a3806000806101000a81548173ffffffffffffffffffffffffffffffffffffffff021916908373ffffffffffffffffffffffffffffffffffffffff16021790555050565b600033905090565b60405180608001604052806000151581526020016000151581526020016000151581526020016000151581525090565b6000604051905090565b600080fd5b600080fd5b600073ffffffffffffffffffffffffffffffffffffffff82169050919050565b6000610dda82610daf565b9050919050565b610dea81610dcf565b8114610df557600080fd5b50565b600081359050610e0781610de1565b92915050565b600060208284031215610e2357610e22610da5565b5b6000610e3184828501610df8565b91505092915050565b60008115159050919050565b610e4f81610e3a565b82525050565b608082016000820151610e6b6000850182610e46565b506020820151610e7e6020850182610e46565b506040820151610e916040850182610e46565b506060820151610ea46060850182610e46565b50505050565b6000608082019050610ebf6000830184610e55565b92915050565b600080fd5b6000601f19601f8301169050919050565b7f4e487b7100000000000000000000000000000000000000000000000000000000600052604160045260246000fd5b610f1382610eca565b810181811067ffffffffffffffff82111715610f3257610f31610edb565b5b80604052505050565b6000610f45610d9b565b9050610f518282610f0a565b919050565b600067ffffffffffffffff821115610f7157610f70610edb565b5b602082029050602081019050919050565b600080fd5b600080fd5b600080fd5b610f9a81610e3a565b8114610fa557600080fd5b50565b600081359050610fb781610f91565b92915050565b600060808284031215610fd357610fd2610f87565b5b610fdd6080610f3b565b90506000610fed84828501610fa8565b600083015250602061100184828501610fa8565b602083015250604061101584828501610fa8565b604083015250606061102984828501610fa8565b60608301525092915050565b600067ffffffffffffffff8211156110505761104f610edb565b5b602082029050602081019050919050565b6000819050919050565b61107481611061565b811461107f57600080fd5b50565b6000813590506110918161106b565b92915050565b60006110aa6110a584611035565b610f3b565b905080838252602082019050602084028301858111156110cd576110cc610f82565b5b835b818110156110f657806110e28882611082565b8452602084019350506020810190506110cf565b5050509392505050565b600082601f83011261111557611114610ec5565b5b8135611125848260208601611097565b91505092915050565b600060c0828403121561114457611143610f87565b5b61114e6060610f3b565b9050600061115e84828501610df8565b600083015250602061117284828501610fbd565b60208301525060a082013567ffffffffffffffff81111561119657611195610f8c565b5b6111a284828501611100565b60408301525092915050565b60006111c16111bc84610f56565b610f3b565b905080838252602082019050602084028301858111156111e4576111e3610f82565b5b835b8181101561122b57803567ffffffffffffffff81111561120957611208610ec5565b5b808601611216898261112e565b855260208501945050506020810190506111e6565b5050509392505050565b600082601f83011261124a57611249610ec5565b5b813561125a8482602086016111ae565b91505092915050565b60006020828403121561127957611278610da5565b5b600082013567ffffffffffffffff81111561129757611296610daa565b5b6112a384828501611235565b91505092915050565b6000602082840312156112c2576112c1610da5565b5b600082013567ffffffffffffffff8111156112e0576112df610daa565b5b6112ec84828501611100565b91505092915050565b6112fe81610dcf565b82525050565b600060208201905061131960008301846112f5565b92915050565b600063ffffffff82169050919050565b6113388161131f565b811461134357600080fd5b50565b6000813590506113558161132f565b92915050565b600060ff82169050919050565b6113718161135b565b811461137c57600080fd5b50565b60008135905061138e81611368565b92915050565b600080600080608085870312156113ae576113ad610da5565b5b60006113bc87828801611346565b94505060206113cd87828801611346565b93505060406113de87828801610fa8565b92505060606113ef8782880161137f565b91505092959194509250565b6114048161135b565b82525050565b600060208201905061141f60008301846113fb565b92915050565b61142e81610e3a565b82525050565b60006020820190506114496000830184611425565b92915050565b60008060006060848603121561146857611467610da5565b5b600061147686828701611346565b935050602061148786828701611346565b925050604061149886828701610df8565b9150509250925092565b600082825260208201905092915050565b7f4f776e61626c653a2063616c6c6572206973206e6f7420746865206f776e6572600082015250565b60006114e96020836114a2565b91506114f4826114b3565b602082019050919050565b60006020820190508181036000830152611518816114dc565b9050919050565b7f4e487b7100000000000000000000000000000000000000000000000000000000600052603260045260246000fd5b7f4e487b7100000000000000000000000000000000000000000000000000000000600052601160045260246000fd5b600061158882611061565b91507fffffffffffffffffffffffffffffffffffffffffffffffffffffffffffffffff8214156115bb576115ba61154e565b5b600182019050919050565b60006115d18261131f565b91506115dc8361131f565b92508263ffffffff038211156115f5576115f461154e565b5b828201905092915050565b600061160b8261135b565b91506116168361135b565b9250828210156116295761162861154e565b5b828203905092915050565b60008160011c9050919050565b6000808291508390505b600185111561168b578086048111156116675761166661154e565b5b60018516156116765780820291505b808102905061168485611634565b945061164b565b94509492505050565b6000826116a45760019050611760565b816116b25760009050611760565b81600181146116c857600281146116d257611701565b6001915050611760565b60ff8411156116e4576116e361154e565b5b8360020a9150848211156116fb576116fa61154e565b5b50611760565b5060208310610133831016604e8410600b84101617156117365782820a9050838111156117315761173061154e565b5b611760565b6117438484846001611641565b9250905081840481111561175a5761175961154e565b5b81810290505b9392505050565b60006117728261131f565b915061177d8361135b565b925061178e63ffffffff8484611694565b905092915050565b7f4e487b7100000000000000000000000000000000000000000000000000000000600052601260045260246000fd5b60006117d08261131f565b91506117db8361131f565b9250826117eb576117ea611796565b5b828204905092915050565b60006118018261131f565b915061180c8361131f565b92508282101561181f5761181e61154e565b5b828203905092915050565b60006118358261131f565b91506118408361131f565b92508163ffffffff048311821515161561185d5761185c61154e565b5b828202905092915050565b60006118738261135b565b915060008214156118875761188661154e565b5b600182039050919050565b600061189d8261135b565b915060ff8214156118b1576118b061154e565b5b600182019050919050565b7f4f776e61626c653a206e6577206f776e657220697320746865207a65726f206160008201527f6464726573730000000000000000000000000000000000000000000000000000602082015250565b60006119186026836114a2565b9150611923826118bc565b604082019050919050565b600060208201905081810360008301526119478161190b565b905091905056fea26469706673582212200a3f4722f377fa80cca95cdf1716bca246eeb9e40ac4087d1b6a98d6453db08064736f6c634300080c0033",
  "immutableReferences": {},
  "source": "// SPDX-License-Identifier: MIT\npragma solidity ^0.8.0;\n\nimport \"./Ownable.sol\";\nimport \"./ILotteryNFT.sol\";\n\ncontract DynamixLotteryNFT is IDynamixLotteryNFT, Ownable {\n\t\n\tstruct NFT {\n        bool minusOnePlusOne;\n        bool jokerX1;\n        bool jokerX2;\n        bool discount50;\n    }\n\t\n\tstruct NFTPlayer {\n        address player;\n\t\tNFT nft;\n        uint256[] nftIds;\n    }\n\t\n\tmapping(address => NFT) private _nftOwner;\n\tmapping(uint256 => address) private _nft;\n\n\tconstructor() {\n\t\t\n    }\n\t\n\t// Reset all NFT Owner\n\tfunction resetNFTOwner(uint256[] memory nftIds) onlyOwner public {\n\t\tfor (uint256 i = 0; i < nftIds.length; i++) {\n            address owner = _nft[nftIds[i]];\n\t\t\t_nftOwner[owner] = NFT({minusOnePlusOne: false, jokerX1: false, jokerX2: false, discount50: false});\n        }\n\t}\n\t\n\t// Add NFT Owner\n\tfunction addNFTOwner(NFTPlayer[] memory nftPlayers) onlyOwner public {\n\t\tfor (uint256 i = 0; i < nftPlayers.length; i++) {\n\t\t\t_nftOwner[nftPlayers[i].player] = nftPlayers[i].nft;\n\t\t\t\n           for (uint256 j = 0; j < nftPlayers[i].nftIds.length; j++) {\n\t\t\t   _nft[nftPlayers[i].nftIds[j]] = nftPlayers[i].player;\n\t\t   }\n        }\n\t}\n\t\n\t// View Player Powers\n\tfunction viewPowers(address player) external view returns(NFT memory) {\n\t\treturn _nftOwner[player];\n\t}\n\t\n\t// Player has discount 50%\n\tfunction hasDiscount(address player) override external view returns(bool) {\n\t\treturn _nftOwner[player].discount50;\n\t}\n\n\t// How many match between playerNumber and winnerNumber for a player\n\tfunction countMatch(uint32 playerNumber, uint32 winnerNumber, address player) override external view returns(uint8) {\n\t\tNFT memory nft = _nftOwner[player];\n\t\t\n\t\tuint8 jokerNFT = 0;\n\t\tjokerNFT = nft.jokerX1 ? 1 : jokerNFT;\n\t\tjokerNFT = nft.jokerX2 ? 2 : jokerNFT;\n\t\t\n\t\treturn countMatchNFT(playerNumber, winnerNumber, nft.minusOnePlusOne, jokerNFT);\n\t}\n\t\n\t// How many match between playerNumber and winnerNumber\n\tfunction countMatchNFT(uint32 playerNumber, uint32 winnerNumber, bool minusOnePlusOneNFT, uint8 jokerNFT) public view returns(uint8) {\n\t\tuint32 encodedPlayerNumber = 1000000 + playerNumber;\n\t\tuint32 encodedWinnerNumber = 1000000 + winnerNumber;\n\t\tuint8 matchNumber = 0;\n\t\t\n\t\tfor (uint8 i = 0; i < 6; i++) {\n\t\t\tuint32 div = uint32(10) ** (5 - i);\n\t\t\tuint32 partPlayerNumber = encodedPlayerNumber / div;\n\t\t\tuint32 partWinnerNumber = encodedWinnerNumber / div;\n\t\t\t\n\t\t\t// NFT -1+1\n\t\t\tif(minusOnePlusOneNFT && partPlayerNumber != partWinnerNumber) {\n\t\t\t\tbool playerNumberGreater = partPlayerNumber > partWinnerNumber;\n\t\t\t\tuint32 diff = playerNumberGreater ? partPlayerNumber - partWinnerNumber : partWinnerNumber - partPlayerNumber;\n\t\t\t\t\n\t\t\t\tif(diff == 1) {\n\t\t\t\t\tpartPlayerNumber = partWinnerNumber;\n\t\t\t\t\tencodedPlayerNumber = playerNumberGreater ? encodedPlayerNumber - div : encodedPlayerNumber + div;\n\t\t\t\t\tminusOnePlusOneNFT = false;\n\t\t\t\t}\n\t\t\t}\n\t\t\t\n\t\t\t// NFT Joker x1/x2\n\t\t\tif(jokerNFT > 0 && partPlayerNumber != partWinnerNumber) {\n\t\t\t\tbool playerNumberGreater = partPlayerNumber > partWinnerNumber;\n\t\t\t\tuint32 diff = playerNumberGreater ? partPlayerNumber - partWinnerNumber : partWinnerNumber - partPlayerNumber;\n\t\t\t\t\n\t\t\t\tpartPlayerNumber = partWinnerNumber;\n\t\t\t\tencodedPlayerNumber = playerNumberGreater ? encodedPlayerNumber - (diff * div) : encodedPlayerNumber + (diff * div);\n\t\t\t\tjokerNFT--;\n\t\t\t}\n\t\t\t\n\t\t\tif(partPlayerNumber == partWinnerNumber)\n\t\t\t\tmatchNumber++;\n        }\n\t\t\n\t\treturn matchNumber;\n\t}\n}",
  "sourcePath": "C:/Users/Amos/Documents/BEP 20/dynamic/DynamixLotterySmartContract/contracts/LotteryNFT.sol",
  "compiler": {
    "name": "solc",
    "version": "0.8.12+commit.f00d7308.Emscripten.clang"
  },
  "schemaVersion": "3.4.1",
  "updatedAt": "2022-03-15T09:56:02.397Z",
  "devdoc": {
    "kind": "dev",
    "methods": {
      "owner()": {
        "details": "Returns the address of the current owner."
      },
      "renounceOwnership()": {
        "details": "Leaves the contract without owner. It will not be possible to call `onlyOwner` functions anymore. Can only be called by the current owner. NOTE: Renouncing ownership will leave the contract without an owner, thereby removing any functionality that is only available to the owner."
      },
      "transferOwnership(address)": {
        "details": "Transfers ownership of the contract to a new account (`newOwner`). Can only be called by the current owner."
      }
    },
    "version": 1
  },
  "userdoc": {
    "kind": "user",
    "methods": {},
    "version": 1
  }
}