{
  "contractName": "LotteryRandom",
  "abi": [
    {
      "inputs": [],
      "stateMutability": "nonpayable",
      "type": "constructor"
    },
    {
      "inputs": [
        {
          "internalType": "uint256",
          "name": "random",
          "type": "uint256"
        }
      ],
      "name": "getRandomNumber",
      "outputs": [
        {
          "internalType": "uint32",
          "name": "",
          "type": "uint32"
        }
      ],
      "stateMutability": "view",
      "type": "function"
    }
  ],
  "bytecode": "0x608060405234801561001057600080fd5b506102c8806100206000396000f3fe608060405234801561001057600080fd5b506004361061002b5760003560e01c8063b37217a414610030575b600080fd5b61004a600480360381019061004591906100e2565b610060565b604051610057919061012e565b60405180910390f35b6000620f42408242443360405160200161007d94939291906101e4565b6040516020818303038152906040528051906020012060001c6100a09190610261565b9050919050565b600080fd5b6000819050919050565b6100bf816100ac565b81146100ca57600080fd5b50565b6000813590506100dc816100b6565b92915050565b6000602082840312156100f8576100f76100a7565b5b6000610106848285016100cd565b91505092915050565b600063ffffffff82169050919050565b6101288161010f565b82525050565b6000602082019050610143600083018461011f565b92915050565b6000819050919050565b61016461015f826100ac565b610149565b82525050565b600073ffffffffffffffffffffffffffffffffffffffff82169050919050565b60006101958261016a565b9050919050565b60008160601b9050919050565b60006101b48261019c565b9050919050565b60006101c6826101a9565b9050919050565b6101de6101d98261018a565b6101bb565b82525050565b60006101f08287610153565b6020820191506102008286610153565b6020820191506102108285610153565b60208201915061022082846101cd565b60148201915081905095945050505050565b7f4e487b7100000000000000000000000000000000000000000000000000000000600052601260045260246000fd5b600061026c826100ac565b9150610277836100ac565b92508261028757610286610232565b5b82820690509291505056fea26469706673582212204f93b336cd45bfc2d1170962950a8a7cc442186879e9342f08f1cce446a3c5e064736f6c634300080c0033",
  "immutableReferences": {},
  "source": "// SPDX-License-Identifier: MIT\npragma solidity ^0.8.0;\n\nimport \"./ILotteryRandom.sol\";\n\ncontract LotteryRandom is IDynamixLotteryRandom {\n\tconstructor() {\n\t\n    }\n\t\n    function getRandomNumber(uint256 random) external view returns(uint32) {\n\t\treturn uint32(uint(keccak256(abi.encodePacked(random, block.timestamp, block.difficulty, msg.sender))) % 1000000);\n\t}\n}",
  "sourcePath": "C:/Users/Amos/Documents/BEP 20/dynamic/DynamixLotterySmartContract/contracts/LotteryRandom.sol",
  "compiler": {
    "name": "solc",
    "version": "0.8.12+commit.f00d7308.Emscripten.clang"
  },
  "schemaVersion": "3.4.1",
  "updatedAt": "2022-03-15T09:56:02.472Z",
  "devdoc": {
    "kind": "dev",
    "methods": {},
    "version": 1
  },
  "userdoc": {
    "kind": "user",
    "methods": {},
    "version": 1
  }
}