{
  "contractName": "MoqLotteryPrice",
  "abi": [
    {
      "inputs": [],
      "stateMutability": "nonpayable",
      "type": "constructor"
    },
    {
      "inputs": [],
      "name": "DYNA",
      "outputs": [
        {
          "internalType": "address",
          "name": "",
          "type": "address"
        }
      ],
      "stateMutability": "view",
      "type": "function"
    },
    {
      "inputs": [
        {
          "internalType": "address",
          "name": "from",
          "type": "address"
        },
        {
          "internalType": "uint256",
          "name": "numberOfTickets",
          "type": "uint256"
        },
        {
          "internalType": "address",
          "name": "betInToken",
          "type": "address"
        },
        {
          "internalType": "address",
          "name": "lottery",
          "type": "address"
        },
        {
          "internalType": "uint256",
          "name": "ticketPriceInUSD",
          "type": "uint256"
        }
      ],
      "name": "swapAndTransfer",
      "outputs": [
        {
          "internalType": "uint256",
          "name": "",
          "type": "uint256"
        }
      ],
      "stateMutability": "nonpayable",
      "type": "function"
    }
  ],
  "bytecode": "0x608060405260008060006101000a81548173ffffffffffffffffffffffffffffffffffffffff021916908373ffffffffffffffffffffffffffffffffffffffff16021790555034801561005157600080fd5b506102f1806100616000396000f3fe608060405234801561001057600080fd5b50600436106100365760003560e01c80635377a6a11461003b578063db121f4f1461006b575b600080fd5b61005560048036038101906100509190610163565b610089565b60405161006291906101ed565b60405180910390f35b6100736100a6565b6040516100809190610217565b60405180910390f35b6000633b9aca008561009b9190610261565b905095945050505050565b60008054906101000a900473ffffffffffffffffffffffffffffffffffffffff1681565b600080fd5b600073ffffffffffffffffffffffffffffffffffffffff82169050919050565b60006100fa826100cf565b9050919050565b61010a816100ef565b811461011557600080fd5b50565b60008135905061012781610101565b92915050565b6000819050919050565b6101408161012d565b811461014b57600080fd5b50565b60008135905061015d81610137565b92915050565b600080600080600060a0868803121561017f5761017e6100ca565b5b600061018d88828901610118565b955050602061019e8882890161014e565b94505060406101af88828901610118565b93505060606101c088828901610118565b92505060806101d18882890161014e565b9150509295509295909350565b6101e78161012d565b82525050565b600060208201905061020260008301846101de565b92915050565b610211816100ef565b82525050565b600060208201905061022c6000830184610208565b92915050565b7f4e487b7100000000000000000000000000000000000000000000000000000000600052601160045260246000fd5b600061026c8261012d565b91506102778361012d565b9250817fffffffffffffffffffffffffffffffffffffffffffffffffffffffffffffffff04831182151516156102b0576102af610232565b5b82820290509291505056fea264697066735822122009b32344487c7fad91cc60dece70adac78400a2af0e54bd18c486864c6d26cad64736f6c634300080c0033",
  "immutableReferences": {},
  "source": "// SPDX-License-Identifier: MIT\npragma solidity ^0.8.0;\n\nimport \"./ILotteryPrice.sol\";\n\ncontract MoqLotteryPrice is IDynamixLotteryPrice {\n\taddress public DYNA = 0x0000000000000000000000000000000000000000;\n\t\t\t\t\t\t \n\tconstructor() {\n\t\n    }\n\t\n\t// Bet in lottery\n\tfunction swapAndTransfer(address from, uint256 numberOfTickets, address betInToken, address lottery, uint256 ticketPriceInUSD) external returns(uint256) {\n\t\treturn numberOfTickets * 10**9;\n\t}\n}",
  "sourcePath": "C:/Users/Amos/Documents/BEP 20/dynamic/DynamixLotterySmartContract/contracts/MoqLotteryPrice.sol",
  "compiler": {
    "name": "solc",
    "version": "0.8.12+commit.f00d7308.Emscripten.clang"
  },
  "schemaVersion": "3.4.1",
  "updatedAt": "2022-03-15T09:56:02.507Z",
  "devdoc": {
    "kind": "dev",
    "methods": {},
    "version": 1
  },
  "userdoc": {
    "kind": "user",
    "methods": {},
    "version": 1
  }
}