{
  "contractName": "MoqLotteryRandom",
  "abi": [
    {
      "inputs": [],
      "stateMutability": "nonpayable",
      "type": "constructor"
    },
    {
      "inputs": [],
      "name": "rd",
      "outputs": [
        {
          "internalType": "uint32",
          "name": "",
          "type": "uint32"
        }
      ],
      "stateMutability": "view",
      "type": "function"
    },
    {
      "inputs": [
        {
          "internalType": "uint256",
          "name": "random",
          "type": "uint256"
        }
      ],
      "name": "getRandomNumber",
      "outputs": [
        {
          "internalType": "uint32",
          "name": "",
          "type": "uint32"
        }
      ],
      "stateMutability": "view",
      "type": "function"
    },
    {
      "inputs": [
        {
          "internalType": "uint32",
          "name": "newRD",
          "type": "uint32"
        }
      ],
      "name": "setRandomNumber",
      "outputs": [],
      "stateMutability": "nonpayable",
      "type": "function"
    }
  ],
  "bytecode": "0x6080604052620d01916000806101000a81548163ffffffff021916908363ffffffff16021790555034801561003357600080fd5b50610233806100436000396000f3fe608060405234801561001057600080fd5b50600436106100415760003560e01c80633ca36f881461004657806377395a3b14610064578063b37217a414610080575b600080fd5b61004e6100b0565b60405161005b9190610121565b60405180910390f35b61007e6004803603810190610079919061016d565b6100c4565b005b61009a600480360381019061009591906101d0565b6100e7565b6040516100a79190610121565b60405180910390f35b60008054906101000a900463ffffffff1681565b806000806101000a81548163ffffffff021916908363ffffffff16021790555050565b60008060009054906101000a900463ffffffff169050919050565b600063ffffffff82169050919050565b61011b81610102565b82525050565b60006020820190506101366000830184610112565b92915050565b600080fd5b61014a81610102565b811461015557600080fd5b50565b60008135905061016781610141565b92915050565b6000602082840312156101835761018261013c565b5b600061019184828501610158565b91505092915050565b6000819050919050565b6101ad8161019a565b81146101b857600080fd5b50565b6000813590506101ca816101a4565b92915050565b6000602082840312156101e6576101e561013c565b5b60006101f4848285016101bb565b9150509291505056fea2646970667358221220674c025e351db3f0f09bce378e35d13091e3aef390be826d8bbc99ecfcfbfeeb64736f6c634300080c0033",
  "immutableReferences": {},
  "source": "// SPDX-License-Identifier: MIT\npragma solidity ^0.8.0;\n\nimport \"./ILotteryRandom.sol\";\n\ncontract MoqLotteryRandom is IDynamixLotteryRandom {\n\tconstructor() {\n\t\n    }\n\n\tuint32 public rd = 852369;\n\t\n    function getRandomNumber(uint256 random) override external view returns(uint32) {\n\t\treturn rd;\n\t}\n\t\n\tfunction setRandomNumber(uint32 newRD) public {\n\t\trd = newRD;\n\t}\n}",
  "sourcePath": "C:/Users/Amos/Documents/BEP 20/dynamic/DynamixLotterySmartContract/contracts/MoqLotteryRandom.sol",
  "compiler": {
    "name": "solc",
    "version": "0.8.12+commit.f00d7308.Emscripten.clang"
  },
  "schemaVersion": "3.4.1",
  "updatedAt": "2022-03-15T09:56:02.514Z",
  "devdoc": {
    "kind": "dev",
    "methods": {},
    "version": 1
  },
  "userdoc": {
    "kind": "user",
    "methods": {},
    "version": 1
  }
}