{
  "contractName": "Dynamix",
  "abi": [
    {
      "inputs": [
        {
          "internalType": "uint256",
          "name": "totalSupply",
          "type": "uint256"
        },
        {
          "internalType": "bool",
          "name": "testnet",
          "type": "bool"
        }
      ],
      "stateMutability": "nonpayable",
      "type": "constructor"
    },
    {
      "anonymous": false,
      "inputs": [
        {
          "indexed": true,
          "internalType": "address",
          "name": "owner",
          "type": "address"
        },
        {
          "indexed": true,
          "internalType": "address",
          "name": "spender",
          "type": "address"
        },
        {
          "indexed": false,
          "internalType": "uint256",
          "name": "value",
          "type": "uint256"
        }
      ],
      "name": "Approval",
      "type": "event"
    },
    {
      "anonymous": false,
      "inputs": [
        {
          "indexed": false,
          "internalType": "uint256",
          "name": "bnb",
          "type": "uint256"
        },
        {
          "indexed": false,
          "internalType": "address[]",
          "name": "path",
          "type": "address[]"
        }
      ],
      "name": "BuyBackAndBurned",
      "type": "event"
    },
    {
      "anonymous": false,
      "inputs": [
        {
          "indexed": true,
          "internalType": "address",
          "name": "previousOwner",
          "type": "address"
        },
        {
          "indexed": true,
          "internalType": "address",
          "name": "newOwner",
          "type": "address"
        }
      ],
      "name": "OwnershipTransferred",
      "type": "event"
    },
    {
      "anonymous": false,
      "inputs": [
        {
          "indexed": false,
          "internalType": "uint256",
          "name": "sellFee",
          "type": "uint256"
        },
        {
          "indexed": false,
          "internalType": "uint256",
          "name": "buyFee",
          "type": "uint256"
        }
      ],
      "name": "PreSaleCompleted",
      "type": "event"
    },
    {
      "anonymous": false,
      "inputs": [
        {
          "indexed": false,
          "internalType": "uint256",
          "name": "sellFee",
          "type": "uint256"
        },
        {
          "indexed": false,
          "internalType": "uint256",
          "name": "buyFee",
          "type": "uint256"
        }
      ],
      "name": "PreSaleStarted",
      "type": "event"
    },
    {
      "anonymous": false,
      "inputs": [
        {
          "indexed": false,
          "internalType": "uint256",
          "name": "amountIn",
          "type": "uint256"
        },
        {
          "indexed": false,
          "internalType": "address",
          "name": "to",
          "type": "address"
        },
        {
          "indexed": false,
          "internalType": "address[]",
          "name": "path",
          "type": "address[]"
        }
      ],
      "name": "SwapTokensForBNB",
      "type": "event"
    },
    {
      "anonymous": false,
      "inputs": [
        {
          "indexed": false,
          "internalType": "address",
          "name": "addr",
          "type": "address"
        },
        {
          "indexed": false,
          "internalType": "string",
          "name": "addrType",
          "type": "string"
        }
      ],
      "name": "TeamAddressChanged",
      "type": "event"
    },
    {
      "anonymous": false,
      "inputs": [
        {
          "indexed": false,
          "internalType": "address",
          "name": "addr",
          "type": "address"
        }
      ],
      "name": "TeamAddressChanged",
      "type": "event"
    },
    {
      "anonymous": false,
      "inputs": [
        {
          "indexed": true,
          "internalType": "address",
          "name": "from",
          "type": "address"
        },
        {
          "indexed": true,
          "internalType": "address",
          "name": "to",
          "type": "address"
        },
        {
          "indexed": false,
          "internalType": "uint256",
          "name": "value",
          "type": "uint256"
        }
      ],
      "name": "Transfer",
      "type": "event"
    },
    {
      "anonymous": false,
      "inputs": [
        {
          "indexed": false,
          "internalType": "bool",
          "name": "enabled",
          "type": "bool"
        },
        {
          "indexed": false,
          "internalType": "uint256",
          "name": "minimumBNBBeforeBuyBack",
          "type": "uint256"
        }
      ],
      "name": "autoBuyBackChanged",
      "type": "event"
    },
    {
      "anonymous": false,
      "inputs": [
        {
          "indexed": false,
          "internalType": "bool",
          "name": "enabled",
          "type": "bool"
        },
        {
          "indexed": false,
          "internalType": "uint256",
          "name": "minimumTokensBeforeSell",
          "type": "uint256"
        }
      ],
      "name": "autoSellChanged",
      "type": "event"
    },
    {
      "inputs": [
        {
          "internalType": "address",
          "name": "account",
          "type": "address"
        }
      ],
      "name": "accountBalance",
      "outputs": [
        {
          "internalType": "uint256",
          "name": "",
          "type": "uint256"
        },
        {
          "internalType": "uint256",
          "name": "",
          "type": "uint256"
        },
        {
          "internalType": "bool",
          "name": "",
          "type": "bool"
        },
        {
          "internalType": "uint256",
          "name": "",
          "type": "uint256"
        }
      ],
      "stateMutability": "view",
      "type": "function"
    },
    {
      "inputs": [],
      "name": "afterPreSale",
      "outputs": [],
      "stateMutability": "nonpayable",
      "type": "function"
    },
    {
      "inputs": [],
      "name": "autoBuyBackEnabled",
      "outputs": [
        {
          "internalType": "bool",
          "name": "",
          "type": "bool"
        }
      ],
      "stateMutability": "view",
      "type": "function"
    },
    {
      "inputs": [],
      "name": "autoSellEnabled",
      "outputs": [
        {
          "internalType": "bool",
          "name": "",
          "type": "bool"
        }
      ],
      "stateMutability": "view",
      "type": "function"
    },
    {
      "inputs": [],
      "name": "beforePreSale",
      "outputs": [],
      "stateMutability": "nonpayable",
      "type": "function"
    },
    {
      "inputs": [],
      "name": "buyFee",
      "outputs": [
        {
          "internalType": "uint256",
          "name": "",
          "type": "uint256"
        }
      ],
      "stateMutability": "view",
      "type": "function"
    },
    {
      "inputs": [],
      "name": "deadAddress",
      "outputs": [
        {
          "internalType": "address",
          "name": "",
          "type": "address"
        }
      ],
      "stateMutability": "view",
      "type": "function"
    },
    {
      "inputs": [],
      "name": "decimals",
      "outputs": [
        {
          "internalType": "uint8",
          "name": "",
          "type": "uint8"
        }
      ],
      "stateMutability": "view",
      "type": "function"
    },
    {
      "inputs": [],
      "name": "devAddress",
      "outputs": [
        {
          "internalType": "address payable",
          "name": "",
          "type": "address"
        }
      ],
      "stateMutability": "view",
      "type": "function"
    },
    {
      "inputs": [],
      "name": "disableAutoBuy",
      "outputs": [],
      "stateMutability": "nonpayable",
      "type": "function"
    },
    {
      "inputs": [],
      "name": "disableAutoSell",
      "outputs": [],
      "stateMutability": "nonpayable",
      "type": "function"
    },
    {
      "inputs": [
        {
          "internalType": "uint256",
          "name": "bnbBeforeBuyBack",
          "type": "uint256"
        }
      ],
      "name": "enableAutoBuy",
      "outputs": [],
      "stateMutability": "nonpayable",
      "type": "function"
    },
    {
      "inputs": [
        {
          "internalType": "uint256",
          "name": "tokensBeforeSell",
          "type": "uint256"
        }
      ],
      "name": "enableAutoSell",
      "outputs": [],
      "stateMutability": "nonpayable",
      "type": "function"
    },
    {
      "inputs": [
        {
          "internalType": "address",
          "name": "account",
          "type": "address"
        }
      ],
      "name": "excludeAccountFromRewards",
      "outputs": [],
      "stateMutability": "nonpayable",
      "type": "function"
    },
    {
      "inputs": [],
      "name": "geUnlockTime",
      "outputs": [
        {
          "internalType": "uint256",
          "name": "",
          "type": "uint256"
        }
      ],
      "stateMutability": "view",
      "type": "function"
    },
    {
      "inputs": [],
      "name": "holders",
      "outputs": [
        {
          "internalType": "uint256",
          "name": "",
          "type": "uint256"
        }
      ],
      "stateMutability": "view",
      "type": "function"
    },
    {
      "inputs": [
        {
          "internalType": "address",
          "name": "account",
          "type": "address"
        }
      ],
      "name": "includeAccountInRewards",
      "outputs": [],
      "stateMutability": "nonpayable",
      "type": "function"
    },
    {
      "inputs": [
        {
          "internalType": "uint256",
          "name": "time",
          "type": "uint256"
        }
      ],
      "name": "lock",
      "outputs": [],
      "stateMutability": "nonpayable",
      "type": "function"
    },
    {
      "inputs": [],
      "name": "marketingAddress",
      "outputs": [
        {
          "internalType": "address payable",
          "name": "",
          "type": "address"
        }
      ],
      "stateMutability": "view",
      "type": "function"
    },
    {
      "inputs": [],
      "name": "minimumBNBBeforeBuyBack",
      "outputs": [
        {
          "internalType": "uint256",
          "name": "",
          "type": "uint256"
        }
      ],
      "stateMutability": "view",
      "type": "function"
    },
    {
      "inputs": [],
      "name": "minimumTokensBeforeSell",
      "outputs": [
        {
          "internalType": "uint256",
          "name": "",
          "type": "uint256"
        }
      ],
      "stateMutability": "view",
      "type": "function"
    },
    {
      "inputs": [],
      "name": "name",
      "outputs": [
        {
          "internalType": "string",
          "name": "",
          "type": "string"
        }
      ],
      "stateMutability": "view",
      "type": "function"
    },
    {
      "inputs": [],
      "name": "owner",
      "outputs": [
        {
          "internalType": "address",
          "name": "",
          "type": "address"
        }
      ],
      "stateMutability": "view",
      "type": "function"
    },
    {
      "inputs": [],
      "name": "renounceOwnership",
      "outputs": [],
      "stateMutability": "nonpayable",
      "type": "function"
    },
    {
      "inputs": [],
      "name": "sellFee",
      "outputs": [
        {
          "internalType": "uint256",
          "name": "",
          "type": "uint256"
        }
      ],
      "stateMutability": "view",
      "type": "function"
    },
    {
      "inputs": [
        {
          "internalType": "address",
          "name": "addr",
          "type": "address"
        }
      ],
      "name": "setDevAddress",
      "outputs": [],
      "stateMutability": "nonpayable",
      "type": "function"
    },
    {
      "inputs": [
        {
          "internalType": "address",
          "name": "addr",
          "type": "address"
        }
      ],
      "name": "setMarketingAddress",
      "outputs": [],
      "stateMutability": "nonpayable",
      "type": "function"
    },
    {
      "inputs": [
        {
          "internalType": "address",
          "name": "account",
          "type": "address"
        },
        {
          "internalType": "bool",
          "name": "isPair",
          "type": "bool"
        }
      ],
      "name": "setPair",
      "outputs": [],
      "stateMutability": "nonpayable",
      "type": "function"
    },
    {
      "inputs": [
        {
          "internalType": "address",
          "name": "addr",
          "type": "address"
        }
      ],
      "name": "setTeamAddress",
      "outputs": [],
      "stateMutability": "nonpayable",
      "type": "function"
    },
    {
      "inputs": [],
      "name": "symbol",
      "outputs": [
        {
          "internalType": "string",
          "name": "",
          "type": "string"
        }
      ],
      "stateMutability": "view",
      "type": "function"
    },
    {
      "inputs": [],
      "name": "teamAddress",
      "outputs": [
        {
          "internalType": "address",
          "name": "",
          "type": "address"
        }
      ],
      "stateMutability": "view",
      "type": "function"
    },
    {
      "inputs": [
        {
          "internalType": "address",
          "name": "newOwner",
          "type": "address"
        }
      ],
      "name": "transferOwnership",
      "outputs": [],
      "stateMutability": "nonpayable",
      "type": "function"
    },
    {
      "inputs": [],
      "name": "uniswapV2Pair",
      "outputs": [
        {
          "internalType": "address",
          "name": "",
          "type": "address"
        }
      ],
      "stateMutability": "view",
      "type": "function"
    },
    {
      "inputs": [],
      "name": "uniswapV2Router",
      "outputs": [
        {
          "internalType": "contract IUniswapV2Router02",
          "name": "",
          "type": "address"
        }
      ],
      "stateMutability": "view",
      "type": "function"
    },
    {
      "inputs": [],
      "name": "unlock",
      "outputs": [],
      "stateMutability": "nonpayable",
      "type": "function"
    },
    {
      "inputs": [],
      "name": "totalSupply",
      "outputs": [
        {
          "internalType": "uint256",
          "name": "",
          "type": "uint256"
        }
      ],
      "stateMutability": "view",
      "type": "function"
    },
    {
      "inputs": [
        {
          "internalType": "address",
          "name": "account",
          "type": "address"
        }
      ],
      "name": "balanceOf",
      "outputs": [
        {
          "internalType": "uint256",
          "name": "",
          "type": "uint256"
        }
      ],
      "stateMutability": "view",
      "type": "function"
    },
    {
      "inputs": [
        {
          "internalType": "address",
          "name": "recipient",
          "type": "address"
        },
        {
          "internalType": "uint256",
          "name": "amount",
          "type": "uint256"
        }
      ],
      "name": "transfer",
      "outputs": [
        {
          "internalType": "bool",
          "name": "",
          "type": "bool"
        }
      ],
      "stateMutability": "nonpayable",
      "type": "function"
    },
    {
      "inputs": [
        {
          "internalType": "address",
          "name": "owner",
          "type": "address"
        },
        {
          "internalType": "address",
          "name": "spender",
          "type": "address"
        }
      ],
      "name": "allowance",
      "outputs": [
        {
          "internalType": "uint256",
          "name": "",
          "type": "uint256"
        }
      ],
      "stateMutability": "view",
      "type": "function"
    },
    {
      "inputs": [
        {
          "internalType": "address",
          "name": "spender",
          "type": "address"
        },
        {
          "internalType": "uint256",
          "name": "amount",
          "type": "uint256"
        }
      ],
      "name": "approve",
      "outputs": [
        {
          "internalType": "bool",
          "name": "",
          "type": "bool"
        }
      ],
      "stateMutability": "nonpayable",
      "type": "function"
    },
    {
      "inputs": [
        {
          "internalType": "address",
          "name": "sender",
          "type": "address"
        },
        {
          "internalType": "address",
          "name": "recipient",
          "type": "address"
        },
        {
          "internalType": "uint256",
          "name": "amount",
          "type": "uint256"
        }
      ],
      "name": "transferFrom",
      "outputs": [
        {
          "internalType": "bool",
          "name": "",
          "type": "bool"
        }
      ],
      "stateMutability": "nonpayable",
      "type": "function"
    }
  ],
  "bytecode": "0x60c060405260006009556000600a556001600b60006101000a81548173ffffffffffffffffffffffffffffffffffffffff021916908373ffffffffffffffffffffffffffffffffffffffff16021790555061dead600c60006101000a81548173ffffffffffffffffffffffffffffffffffffffff021916908373ffffffffffffffffffffffffffffffffffffffff160217905550611001600d60006101000a81548173ffffffffffffffffffffffffffffffffffffffff021916908373ffffffffffffffffffffffffffffffffffffffff160217905550611002600e60006101000a81548173ffffffffffffffffffffffffffffffffffffffff021916908373ffffffffffffffffffffffffffffffffffffffff1602179055506000600e60146101000a81548160ff0219169083151502179055506001600e60156101000a81548160ff0219169083151502179055506000600f5560006010556040518060400160405280600781526020017f44796e616d69780000000000000000000000000000000000000000000000000081525060129080519060200190620001a6929190620006e5565b506040518060400160405280600481526020017f44594e410000000000000000000000000000000000000000000000000000000081525060139080519060200190620001f4929190620006e5565b506009601460006101000a81548160ff021916908360ff1602179055503480156200021e57600080fd5b506040516200525b3803806200525b833981810160405260408110156200024457600080fd5b8101908080519060200190929190805190602001909291905050508082600062000273620006dd60201b60201c565b9050806000806101000a81548173ffffffffffffffffffffffffffffffffffffffff021916908373ffffffffffffffffffffffffffffffffffffffff1602179055508073ffffffffffffffffffffffffffffffffffffffff16600073ffffffffffffffffffffffffffffffffffffffff167f8be0079c531659141344cd1fd0a4f28419497f9722a3daafe3b4186f6b6457e060405160405180910390a350600060038190555080600581905550600554600019816200032e57fe5b06600019036006819055506006546004600062000350620006dd60201b60201c565b73ffffffffffffffffffffffffffffffffffffffff1673ffffffffffffffffffffffffffffffffffffffff168152602001908152602001600020600001819055504260046000620003a6620006dd60201b60201c565b73ffffffffffffffffffffffffffffffffffffffff1673ffffffffffffffffffffffffffffffffffffffff1681526020019081526020016000206003018190555050600081156200040e5773d99d1c33f9fc3444f8101754abc46c52416550d1905062000426565b7310ed43c718714eb63d5aa57b78b54704e256024e90505b8073ffffffffffffffffffffffffffffffffffffffff1663c45a01556040518163ffffffff1660e01b815260040160206040518083038186803b1580156200046d57600080fd5b505afa15801562000482573d6000803e3d6000fd5b505050506040513d60208110156200049957600080fd5b810190808051906020019092919050505073ffffffffffffffffffffffffffffffffffffffff1663c9c65396308373ffffffffffffffffffffffffffffffffffffffff1663ad5c46486040518163ffffffff1660e01b815260040160206040518083038186803b1580156200050d57600080fd5b505afa15801562000522573d6000803e3d6000fd5b505050506040513d60208110156200053957600080fd5b81019080805190602001909291905050506040518363ffffffff1660e01b8152600401808373ffffffffffffffffffffffffffffffffffffffff1681526020018273ffffffffffffffffffffffffffffffffffffffff16815260200192505050602060405180830381600087803b158015620005b457600080fd5b505af1158015620005c9573d6000803e3d6000fd5b505050506040513d6020811015620005e057600080fd5b810190808051906020019092919050505073ffffffffffffffffffffffffffffffffffffffff1660a08173ffffffffffffffffffffffffffffffffffffffff1660601b815250508073ffffffffffffffffffffffffffffffffffffffff1660808173ffffffffffffffffffffffffffffffffffffffff1660601b81525050505062000670620006dd60201b60201c565b73ffffffffffffffffffffffffffffffffffffffff16600073ffffffffffffffffffffffffffffffffffffffff167fddf252ad1be2c89b69c2b068fc378daa952ba7f163c4a11628f55a4df523b3ef846040518082815260200191505060405180910390a350506200078b565b600033905090565b828054600181600116156101000203166002900490600052602060002090601f016020900481019282601f106200072857805160ff191683800117855562000759565b8280016001018555821562000759579182015b82811115620007585782518255916020019190600101906200073b565b5b5090506200076891906200076c565b5090565b5b80821115620007875760008160009055506001016200076d565b5090565b60805160601c60a05160601c614a83620007d860003980611245525080610d115280613d525280613edc5280613f38528061438a5280614472528061466452806147945250614a836000f3fe608060405234801561001057600080fd5b50600436106102535760003560e01c806380d5bea211610146578063b10182f5116100c3578063dd46706411610087578063dd467064146109d2578063dd62ed3e14610a00578063e77a475e14610a78578063f2fde38b14610aa6578063f537614d14610aea578063fc74f4c714610b0857610253565b8063b10182f5146108b3578063b2f3d11c146108bd578063b6c5232414610901578063d0d41fe11461091f578063d294cb0f1461096357610253565b806395d89b411161010a57806395d89b411461078457806396b19b6c14610807578063a5ece94114610811578063a69df4b514610845578063a9059cbb1461084f57610253565b806380d5bea21461067e5780638188f71c1461069e57806386a22eff146106bc5780638da5cb5b1461070c578063906e9dd01461074057610253565b80632b14ca56116101d45780636690864e116101985780636690864e146105ae57806370a08231146105f2578063715018a61461064a57806375552ea8146106545780637867d5101461067457610253565b80632b14ca56146104e9578063313ce567146105075780633ad10ef614610528578063470624021461055c57806349bd5a5e1461057a57610253565b80631c75f0851161021b5780631c75f0851461039b5780631c90ad64146103cf57806323b872dd146103ed57806324931c2e1461047157806327c8f835146104b557610253565b806306fdde031461025857806307efbfdc146102db578063095ea7b3146102e55780631694505e1461034957806318160ddd1461037d575b600080fd5b610260610b36565b6040518080602001828103825283818151815260200191508051906020019080838360005b838110156102a0578082015181840152602081019050610285565b50505050905090810190601f1680156102cd5780820380516001836020036101000a031916815260200191505b509250505060405180910390f35b6102e3610bd4565b005b610331600480360360408110156102fb57600080fd5b81019080803573ffffffffffffffffffffffffffffffffffffffff16906020019092919080359060200190929190505050610cf1565b60405180821515815260200191505060405180910390f35b610351610d0f565b604051808273ffffffffffffffffffffffffffffffffffffffff16815260200191505060405180910390f35b610385610d33565b6040518082815260200191505060405180910390f35b6103a3610d3d565b604051808273ffffffffffffffffffffffffffffffffffffffff16815260200191505060405180910390f35b6103d7610d63565b6040518082815260200191505060405180910390f35b6104596004803603606081101561040357600080fd5b81019080803573ffffffffffffffffffffffffffffffffffffffff169060200190929190803573ffffffffffffffffffffffffffffffffffffffff16906020019092919080359060200190929190505050610d69565b60405180821515815260200191505060405180910390f35b6104b36004803603602081101561048757600080fd5b81019080803573ffffffffffffffffffffffffffffffffffffffff169060200190929190505050610e45565b005b6104bd6111d8565b604051808273ffffffffffffffffffffffffffffffffffffffff16815260200191505060405180910390f35b6104f16111fe565b6040518082815260200191505060405180910390f35b61050f611204565b604051808260ff16815260200191505060405180910390f35b610530611217565b604051808273ffffffffffffffffffffffffffffffffffffffff16815260200191505060405180910390f35b61056461123d565b6040518082815260200191505060405180910390f35b610582611243565b604051808273ffffffffffffffffffffffffffffffffffffffff16815260200191505060405180910390f35b6105f0600480360360208110156105c457600080fd5b81019080803573ffffffffffffffffffffffffffffffffffffffff169060200190929190505050611267565b005b6106346004803603602081101561060857600080fd5b81019080803573ffffffffffffffffffffffffffffffffffffffff1690602001909291905050506113c0565b6040518082815260200191505060405180910390f35b6106526114b4565b005b61065c61163a565b60405180821515815260200191505060405180910390f35b61067c61164d565b005b610686611784565b60405180821515815260200191505060405180910390f35b6106a6611797565b6040518082815260200191505060405180910390f35b61070a600480360360408110156106d257600080fd5b81019080803573ffffffffffffffffffffffffffffffffffffffff16906020019092919080351515906020019092919050505061179d565b005b6107146118c0565b604051808273ffffffffffffffffffffffffffffffffffffffff16815260200191505060405180910390f35b6107826004803603602081101561075657600080fd5b81019080803573ffffffffffffffffffffffffffffffffffffffff1690602001909291905050506118e9565b005b61078c611a7b565b6040518080602001828103825283818151815260200191508051906020019080838360005b838110156107cc5780820151818401526020810190506107b1565b50505050905090810190601f1680156107f95780820380516001836020036101000a031916815260200191505b509250505060405180910390f35b61080f611b19565b005b610819611c36565b604051808273ffffffffffffffffffffffffffffffffffffffff16815260200191505060405180910390f35b61084d611c5c565b005b61089b6004803603604081101561086557600080fd5b81019080803573ffffffffffffffffffffffffffffffffffffffff16906020019092919080359060200190929190505050611e79565b60405180821515815260200191505060405180910390f35b6108bb611e97565b005b6108ff600480360360208110156108d357600080fd5b81019080803573ffffffffffffffffffffffffffffffffffffffff169060200190929190505050611fce565b005b6109096122f7565b6040518082815260200191505060405180910390f35b6109616004803603602081101561093557600080fd5b81019080803573ffffffffffffffffffffffffffffffffffffffff169060200190929190505050612301565b005b6109a56004803603602081101561097957600080fd5b81019080803573ffffffffffffffffffffffffffffffffffffffff169060200190929190505050612493565b60405180858152602001848152602001831515815260200182815260200194505050505060405180910390f35b6109fe600480360360208110156109e857600080fd5b81019080803590602001909291905050506125c1565b005b610a6260048036036040811015610a1657600080fd5b81019080803573ffffffffffffffffffffffffffffffffffffffff169060200190929190803573ffffffffffffffffffffffffffffffffffffffff1690602001909291905050506127b2565b6040518082815260200191505060405180910390f35b610aa460048036036020811015610a8e57600080fd5b8101908080359060200190929190505050612839565b005b610ae860048036036020811015610abc57600080fd5b81019080803573ffffffffffffffffffffffffffffffffffffffff169060200190929190505050612978565b005b610af2612b83565b6040518082815260200191505060405180910390f35b610b3460048036036020811015610b1e57600080fd5b8101908080359060200190929190505050612b89565b005b60128054600181600116156101000203166002900480601f016020809104026020016040519081016040528092919081815260200182805460018160011615610100020316600290048015610bcc5780601f10610ba157610100808354040283529160200191610bcc565b820191906000526020600020905b815481529060010190602001808311610baf57829003601f168201915b505050505081565b610bdc612cc8565b73ffffffffffffffffffffffffffffffffffffffff1660008054906101000a900473ffffffffffffffffffffffffffffffffffffffff1673ffffffffffffffffffffffffffffffffffffffff1614610c9c576040517f08c379a00000000000000000000000000000000000000000000000000000000081526004018080602001828103825260208152602001807f4f776e61626c653a2063616c6c6572206973206e6f7420746865206f776e657281525060200191505060405180910390fd5b600f600981905550600e600a819055507f12b4cad59d60fd8610c84ff9724738bc3aa17aac23c62495d07af07fcf74d5c6600954600a54604051808381526020018281526020019250505060405180910390a1565b6000610d05610cfe612cc8565b8484612cd0565b6001905092915050565b7f000000000000000000000000000000000000000000000000000000000000000081565b6000600554905090565b600b60009054906101000a900473ffffffffffffffffffffffffffffffffffffffff1681565b60105481565b6000610d788484846000612ec7565b50610e3a84610d85612cc8565b610e35856040518060600160405280602881526020016149df60289139601160008b73ffffffffffffffffffffffffffffffffffffffff1673ffffffffffffffffffffffffffffffffffffffff1681526020019081526020016000206000610deb612cc8565b73ffffffffffffffffffffffffffffffffffffffff1673ffffffffffffffffffffffffffffffffffffffff1681526020019081526020016000205461346b9092919063ffffffff16565b612cd0565b600190509392505050565b610e4d612cc8565b73ffffffffffffffffffffffffffffffffffffffff1660008054906101000a900473ffffffffffffffffffffffffffffffffffffffff1673ffffffffffffffffffffffffffffffffffffffff1614610f0d576040517f08c379a00000000000000000000000000000000000000000000000000000000081526004018080602001828103825260208152602001807f4f776e61626c653a2063616c6c6572206973206e6f7420746865206f776e657281525060200191505060405180910390fd5b600460008273ffffffffffffffffffffffffffffffffffffffff1673ffffffffffffffffffffffffffffffffffffffff16815260200190815260200160002060020160009054906101000a900460ff16610fcf576040517f08c379a00000000000000000000000000000000000000000000000000000000081526004018080602001828103825260138152602001807f4163636f756e74206973206578636c756465640000000000000000000000000081525060200191505060405180910390fd5b60005b6007805490508110156111d4578173ffffffffffffffffffffffffffffffffffffffff166007828154811061100357fe5b9060005260206000200160009054906101000a900473ffffffffffffffffffffffffffffffffffffffff1673ffffffffffffffffffffffffffffffffffffffff1614156111c75760076001600780549050038154811061105f57fe5b9060005260206000200160009054906101000a900473ffffffffffffffffffffffffffffffffffffffff166007828154811061109757fe5b9060005260206000200160006101000a81548173ffffffffffffffffffffffffffffffffffffffff021916908373ffffffffffffffffffffffffffffffffffffffff16021790555060078054806110ea57fe5b6001900381819060005260206000200160006101000a81549073ffffffffffffffffffffffffffffffffffffffff021916905590556000600460008473ffffffffffffffffffffffffffffffffffffffff1673ffffffffffffffffffffffffffffffffffffffff168152602001908152602001600020600101819055506000600460008473ffffffffffffffffffffffffffffffffffffffff1673ffffffffffffffffffffffffffffffffffffffff16815260200190815260200160002060020160006101000a81548160ff0219169083151502179055506111d4565b8080600101915050610fd2565b5050565b600c60009054906101000a900473ffffffffffffffffffffffffffffffffffffffff1681565b60095481565b601460009054906101000a900460ff1681565b600e60009054906101000a900473ffffffffffffffffffffffffffffffffffffffff1681565b600a5481565b7f000000000000000000000000000000000000000000000000000000000000000081565b61126f612cc8565b73ffffffffffffffffffffffffffffffffffffffff1660008054906101000a900473ffffffffffffffffffffffffffffffffffffffff1673ffffffffffffffffffffffffffffffffffffffff161461132f576040517f08c379a00000000000000000000000000000000000000000000000000000000081526004018080602001828103825260208152602001807f4f776e61626c653a2063616c6c6572206973206e6f7420746865206f776e657281525060200191505060405180910390fd5b80600b60006101000a81548173ffffffffffffffffffffffffffffffffffffffff021916908373ffffffffffffffffffffffffffffffffffffffff1602179055507ff19f87d1919d189aed7b2b91727d082152e2ff36769ce1143a4676001ab708ca81604051808273ffffffffffffffffffffffffffffffffffffffff16815260200191505060405180910390a150565b6000600460008373ffffffffffffffffffffffffffffffffffffffff1673ffffffffffffffffffffffffffffffffffffffff16815260200190815260200160002060020160009054906101000a900460ff161561146157600460008373ffffffffffffffffffffffffffffffffffffffff1673ffffffffffffffffffffffffffffffffffffffff1681526020019081526020016000206001015490506114af565b6114ac600460008473ffffffffffffffffffffffffffffffffffffffff1673ffffffffffffffffffffffffffffffffffffffff1681526020019081526020016000206000015461352b565b90505b919050565b6114bc612cc8565b73ffffffffffffffffffffffffffffffffffffffff1660008054906101000a900473ffffffffffffffffffffffffffffffffffffffff1673ffffffffffffffffffffffffffffffffffffffff161461157c576040517f08c379a00000000000000000000000000000000000000000000000000000000081526004018080602001828103825260208152602001807f4f776e61626c653a2063616c6c6572206973206e6f7420746865206f776e657281525060200191505060405180910390fd5b600073ffffffffffffffffffffffffffffffffffffffff1660008054906101000a900473ffffffffffffffffffffffffffffffffffffffff1673ffffffffffffffffffffffffffffffffffffffff167f8be0079c531659141344cd1fd0a4f28419497f9722a3daafe3b4186f6b6457e060405160405180910390a360008060006101000a81548173ffffffffffffffffffffffffffffffffffffffff021916908373ffffffffffffffffffffffffffffffffffffffff160217905550565b600e60159054906101000a900460ff1681565b611655612cc8565b73ffffffffffffffffffffffffffffffffffffffff1660008054906101000a900473ffffffffffffffffffffffffffffffffffffffff1673ffffffffffffffffffffffffffffffffffffffff1614611715576040517f08c379a00000000000000000000000000000000000000000000000000000000081526004018080602001828103825260208152602001807f4f776e61626c653a2063616c6c6572206973206e6f7420746865206f776e657281525060200191505060405180910390fd5b6000600e60156101000a81548160ff0219169083151502179055507f4dc22ee14a29d50c04a1b165e4f38c57689e6050b0a477ae20d3261f999c6477600e60159054906101000a900460ff166010546040518083151581526020018281526020019250505060405180910390a1565b600e60149054906101000a900460ff1681565b60035481565b6117a5612cc8565b73ffffffffffffffffffffffffffffffffffffffff1660008054906101000a900473ffffffffffffffffffffffffffffffffffffffff1673ffffffffffffffffffffffffffffffffffffffff1614611865576040517f08c379a00000000000000000000000000000000000000000000000000000000081526004018080602001828103825260208152602001807f4f776e61626c653a2063616c6c6572206973206e6f7420746865206f776e657281525060200191505060405180910390fd5b80600860008473ffffffffffffffffffffffffffffffffffffffff1673ffffffffffffffffffffffffffffffffffffffff16815260200190815260200160002060006101000a81548160ff0219169083151502179055505050565b60008060009054906101000a900473ffffffffffffffffffffffffffffffffffffffff16905090565b6118f1612cc8565b73ffffffffffffffffffffffffffffffffffffffff1660008054906101000a900473ffffffffffffffffffffffffffffffffffffffff1673ffffffffffffffffffffffffffffffffffffffff16146119b1576040517f08c379a00000000000000000000000000000000000000000000000000000000081526004018080602001828103825260208152602001807f4f776e61626c653a2063616c6c6572206973206e6f7420746865206f776e657281525060200191505060405180910390fd5b80600d60006101000a81548173ffffffffffffffffffffffffffffffffffffffff021916908373ffffffffffffffffffffffffffffffffffffffff1602179055507fe0a3ac497e9fac91cc8e82279eaf120c0071ea9ad0011aafda905bf43fc96aa781604051808273ffffffffffffffffffffffffffffffffffffffff16815260200180602001828103825260198152602001807f4d61726b6574696e672050617961626c652041646472657373000000000000008152506020019250505060405180910390a150565b60138054600181600116156101000203166002900480601f016020809104026020016040519081016040528092919081815260200182805460018160011615610100020316600290048015611b115780601f10611ae657610100808354040283529160200191611b11565b820191906000526020600020905b815481529060010190602001808311611af457829003601f168201915b505050505081565b611b21612cc8565b73ffffffffffffffffffffffffffffffffffffffff1660008054906101000a900473ffffffffffffffffffffffffffffffffffffffff1673ffffffffffffffffffffffffffffffffffffffff1614611be1576040517f08c379a00000000000000000000000000000000000000000000000000000000081526004018080602001828103825260208152602001807f4f776e61626c653a2063616c6c6572206973206e6f7420746865206f776e657281525060200191505060405180910390fd5b60006009819055506000600a819055507f3844853be672b18d859394aa37e05615b95b78e66b4dc37dca98d1db1b05ea7d600954600a54604051808381526020018281526020019250505060405180910390a1565b600d60009054906101000a900473ffffffffffffffffffffffffffffffffffffffff1681565b3373ffffffffffffffffffffffffffffffffffffffff16600160009054906101000a900473ffffffffffffffffffffffffffffffffffffffff1673ffffffffffffffffffffffffffffffffffffffff1614611d02576040517f08c379a0000000000000000000000000000000000000000000000000000000008152600401808060200182810382526023815260200180614a2b6023913960400191505060405180910390fd5b6002544211611d79576040517f08c379a000000000000000000000000000000000000000000000000000000000815260040180806020018281038252601f8152602001807f436f6e7472616374206973206c6f636b656420756e74696c203720646179730081525060200191505060405180910390fd5b600160009054906101000a900473ffffffffffffffffffffffffffffffffffffffff1673ffffffffffffffffffffffffffffffffffffffff1660008054906101000a900473ffffffffffffffffffffffffffffffffffffffff1673ffffffffffffffffffffffffffffffffffffffff167f8be0079c531659141344cd1fd0a4f28419497f9722a3daafe3b4186f6b6457e060405160405180910390a3600160009054906101000a900473ffffffffffffffffffffffffffffffffffffffff166000806101000a81548173ffffffffffffffffffffffffffffffffffffffff021916908373ffffffffffffffffffffffffffffffffffffffff160217905550565b6000611e8d611e86612cc8565b84846135af565b6001905092915050565b611e9f612cc8565b73ffffffffffffffffffffffffffffffffffffffff1660008054906101000a900473ffffffffffffffffffffffffffffffffffffffff1673ffffffffffffffffffffffffffffffffffffffff1614611f5f576040517f08c379a00000000000000000000000000000000000000000000000000000000081526004018080602001828103825260208152602001807f4f776e61626c653a2063616c6c6572206973206e6f7420746865206f776e657281525060200191505060405180910390fd5b6000600e60146101000a81548160ff0219169083151502179055507f378e0efcbf1707cc17e23ea1fe6c338b12fd8abd71efd11bcfb32f6962a3ab8c600e60149054906101000a900460ff16600f546040518083151581526020018281526020019250505060405180910390a1565b611fd6612cc8565b73ffffffffffffffffffffffffffffffffffffffff1660008054906101000a900473ffffffffffffffffffffffffffffffffffffffff1673ffffffffffffffffffffffffffffffffffffffff1614612096576040517f08c379a00000000000000000000000000000000000000000000000000000000081526004018080602001828103825260208152602001807f4f776e61626c653a2063616c6c6572206973206e6f7420746865206f776e657281525060200191505060405180910390fd5b600460008273ffffffffffffffffffffffffffffffffffffffff1673ffffffffffffffffffffffffffffffffffffffff16815260200190815260200160002060020160009054906101000a900460ff1615612159576040517f08c379a00000000000000000000000000000000000000000000000000000000081526004018080602001828103825260178152602001807f4163636f756e74206973206e6f74206578636c7564656400000000000000000081525060200191505060405180910390fd5b6000600460008373ffffffffffffffffffffffffffffffffffffffff1673ffffffffffffffffffffffffffffffffffffffff168152602001908152602001600020600001541115612236576121ef600460008373ffffffffffffffffffffffffffffffffffffffff1673ffffffffffffffffffffffffffffffffffffffff1681526020019081526020016000206000015461352b565b600460008373ffffffffffffffffffffffffffffffffffffffff1673ffffffffffffffffffffffffffffffffffffffff168152602001908152602001600020600101819055505b6001600460008373ffffffffffffffffffffffffffffffffffffffff1673ffffffffffffffffffffffffffffffffffffffff16815260200190815260200160002060020160006101000a81548160ff0219169083151502179055506007819080600181540180825580915050600190039060005260206000200160009091909190916101000a81548173ffffffffffffffffffffffffffffffffffffffff021916908373ffffffffffffffffffffffffffffffffffffffff16021790555050565b6000600254905090565b612309612cc8565b73ffffffffffffffffffffffffffffffffffffffff1660008054906101000a900473ffffffffffffffffffffffffffffffffffffffff1673ffffffffffffffffffffffffffffffffffffffff16146123c9576040517f08c379a00000000000000000000000000000000000000000000000000000000081526004018080602001828103825260208152602001807f4f776e61626c653a2063616c6c6572206973206e6f7420746865206f776e657281525060200191505060405180910390fd5b80600e60006101000a81548173ffffffffffffffffffffffffffffffffffffffff021916908373ffffffffffffffffffffffffffffffffffffffff1602179055507fe0a3ac497e9fac91cc8e82279eaf120c0071ea9ad0011aafda905bf43fc96aa781604051808273ffffffffffffffffffffffffffffffffffffffff16815260200180602001828103825260138152602001807f4465762050617961626c652041646472657373000000000000000000000000008152506020019250505060405180910390a150565b600080600080600460008673ffffffffffffffffffffffffffffffffffffffff1673ffffffffffffffffffffffffffffffffffffffff16815260200190815260200160002060000154600460008773ffffffffffffffffffffffffffffffffffffffff1673ffffffffffffffffffffffffffffffffffffffff16815260200190815260200160002060010154600460008873ffffffffffffffffffffffffffffffffffffffff1673ffffffffffffffffffffffffffffffffffffffff16815260200190815260200160002060020160009054906101000a900460ff16600460008973ffffffffffffffffffffffffffffffffffffffff1673ffffffffffffffffffffffffffffffffffffffff1681526020019081526020016000206003015493509350935093509193509193565b6125c9612cc8565b73ffffffffffffffffffffffffffffffffffffffff1660008054906101000a900473ffffffffffffffffffffffffffffffffffffffff1673ffffffffffffffffffffffffffffffffffffffff1614612689576040517f08c379a00000000000000000000000000000000000000000000000000000000081526004018080602001828103825260208152602001807f4f776e61626c653a2063616c6c6572206973206e6f7420746865206f776e657281525060200191505060405180910390fd5b60008054906101000a900473ffffffffffffffffffffffffffffffffffffffff16600160006101000a81548173ffffffffffffffffffffffffffffffffffffffff021916908373ffffffffffffffffffffffffffffffffffffffff16021790555060008060006101000a81548173ffffffffffffffffffffffffffffffffffffffff021916908373ffffffffffffffffffffffffffffffffffffffff160217905550804201600281905550600073ffffffffffffffffffffffffffffffffffffffff1660008054906101000a900473ffffffffffffffffffffffffffffffffffffffff1673ffffffffffffffffffffffffffffffffffffffff167f8be0079c531659141344cd1fd0a4f28419497f9722a3daafe3b4186f6b6457e060405160405180910390a350565b6000601160008473ffffffffffffffffffffffffffffffffffffffff1673ffffffffffffffffffffffffffffffffffffffff16815260200190815260200160002060008373ffffffffffffffffffffffffffffffffffffffff1673ffffffffffffffffffffffffffffffffffffffff16815260200190815260200160002054905092915050565b612841612cc8565b73ffffffffffffffffffffffffffffffffffffffff1660008054906101000a900473ffffffffffffffffffffffffffffffffffffffff1673ffffffffffffffffffffffffffffffffffffffff1614612901576040517f08c379a00000000000000000000000000000000000000000000000000000000081526004018080602001828103825260208152602001807f4f776e61626c653a2063616c6c6572206973206e6f7420746865206f776e657281525060200191505060405180910390fd5b6001600e60146101000a81548160ff02191690831515021790555080600f819055507f378e0efcbf1707cc17e23ea1fe6c338b12fd8abd71efd11bcfb32f6962a3ab8c600e60149054906101000a900460ff16600f546040518083151581526020018281526020019250505060405180910390a150565b612980612cc8565b73ffffffffffffffffffffffffffffffffffffffff1660008054906101000a900473ffffffffffffffffffffffffffffffffffffffff1673ffffffffffffffffffffffffffffffffffffffff1614612a40576040517f08c379a00000000000000000000000000000000000000000000000000000000081526004018080602001828103825260208152602001807f4f776e61626c653a2063616c6c6572206973206e6f7420746865206f776e657281525060200191505060405180910390fd5b600073ffffffffffffffffffffffffffffffffffffffff168173ffffffffffffffffffffffffffffffffffffffff161415612ac6576040517f08c379a00000000000000000000000000000000000000000000000000000000081526004018080602001828103825260268152602001806149766026913960400191505060405180910390fd5b8073ffffffffffffffffffffffffffffffffffffffff1660008054906101000a900473ffffffffffffffffffffffffffffffffffffffff1673ffffffffffffffffffffffffffffffffffffffff167f8be0079c531659141344cd1fd0a4f28419497f9722a3daafe3b4186f6b6457e060405160405180910390a3806000806101000a81548173ffffffffffffffffffffffffffffffffffffffff021916908373ffffffffffffffffffffffffffffffffffffffff16021790555050565b600f5481565b612b91612cc8565b73ffffffffffffffffffffffffffffffffffffffff1660008054906101000a900473ffffffffffffffffffffffffffffffffffffffff1673ffffffffffffffffffffffffffffffffffffffff1614612c51576040517f08c379a00000000000000000000000000000000000000000000000000000000081526004018080602001828103825260208152602001807f4f776e61626c653a2063616c6c6572206973206e6f7420746865206f776e657281525060200191505060405180910390fd5b6001600e60156101000a81548160ff021916908315150217905550806010819055507f4dc22ee14a29d50c04a1b165e4f38c57689e6050b0a477ae20d3261f999c6477600e60159054906101000a900460ff166010546040518083151581526020018281526020019250505060405180910390a150565b600033905090565b600073ffffffffffffffffffffffffffffffffffffffff168373ffffffffffffffffffffffffffffffffffffffff161415612d56576040517f08c379a0000000000000000000000000000000000000000000000000000000008152600401808060200182810382526024815260200180614a076024913960400191505060405180910390fd5b600073ffffffffffffffffffffffffffffffffffffffff168273ffffffffffffffffffffffffffffffffffffffff161415612ddc576040517f08c379a000000000000000000000000000000000000000000000000000000000815260040180806020018281038252602281526020018061499c6022913960400191505060405180910390fd5b80601160008573ffffffffffffffffffffffffffffffffffffffff1673ffffffffffffffffffffffffffffffffffffffff16815260200190815260200160002060008473ffffffffffffffffffffffffffffffffffffffff1673ffffffffffffffffffffffffffffffffffffffff168152602001908152602001600020819055508173ffffffffffffffffffffffffffffffffffffffff168373ffffffffffffffffffffffffffffffffffffffff167f8c5be1e5ebec7d5bd14f71427d1e84f3dd0314c0f7b2291e5b200ac8c7c3b925836040518082815260200191505060405180910390a3505050565b600080612ed26138f5565b9050612f31612f2c82600460008973ffffffffffffffffffffffffffffffffffffffff1673ffffffffffffffffffffffffffffffffffffffff1681526020019081526020016000206000015461392090919063ffffffff16565b61396a565b6000612f596064612f4b868861398990919063ffffffff16565b61392090919063ffffffff16565b90506000612fa7826040518060400160405280601881526020017f746f6b656e416d6f756e742073756220746f6b656e46656500000000000000008152508861346b9092919063ffffffff16565b90506000612fbe848861398990919063ffffffff16565b90506000612fd5858561398990919063ffffffff16565b90506000613023826040518060400160405280601a81526020017f726577617264416d6f756e7420737562207265776172644665650000000000008152508561346b9092919063ffffffff16565b90506130b1836040518060400160405280601781526020017f7265776172642073756220726577617264416d6f756e74000000000000000000815250600460008f73ffffffffffffffffffffffffffffffffffffffff1673ffffffffffffffffffffffffffffffffffffffff1681526020019081526020016000206000015461346b9092919063ffffffff16565b600460008d73ffffffffffffffffffffffffffffffffffffffff1673ffffffffffffffffffffffffffffffffffffffff1681526020019081526020016000206000018190555061314c81600460008d73ffffffffffffffffffffffffffffffffffffffff1673ffffffffffffffffffffffffffffffffffffffff16815260200190815260200160002060000154613a0f90919063ffffffff16565b600460008c73ffffffffffffffffffffffffffffffffffffffff1673ffffffffffffffffffffffffffffffffffffffff16815260200190815260200160002060000181905550600460008c73ffffffffffffffffffffffffffffffffffffffff1673ffffffffffffffffffffffffffffffffffffffff16815260200190815260200160002060020160009054906101000a900460ff16156132ba57613273896040518060400160405280601581526020017f746f6b656e2073756220746f6b656e416d6f756e740000000000000000000000815250600460008f73ffffffffffffffffffffffffffffffffffffffff1673ffffffffffffffffffffffffffffffffffffffff1681526020019081526020016000206001015461346b9092919063ffffffff16565b600460008d73ffffffffffffffffffffffffffffffffffffffff1673ffffffffffffffffffffffffffffffffffffffff168152602001908152602001600020600101819055505b600460008b73ffffffffffffffffffffffffffffffffffffffff1673ffffffffffffffffffffffffffffffffffffffff16815260200190815260200160002060020160009054906101000a900460ff16156133ab5761336484600460008d73ffffffffffffffffffffffffffffffffffffffff1673ffffffffffffffffffffffffffffffffffffffff16815260200190815260200160002060010154613a0f90919063ffffffff16565b600460008c73ffffffffffffffffffffffffffffffffffffffff1673ffffffffffffffffffffffffffffffffffffffff168152602001908152602001600020600101819055505b6133f7826040518060400160405280601b81526020017f5f726577617264537570706c792073756220726577617264466565000000000081525060065461346b9092919063ffffffff16565b60068190555061345a61345587600460008f73ffffffffffffffffffffffffffffffffffffffff1673ffffffffffffffffffffffffffffffffffffffff1681526020019081526020016000206000015461392090919063ffffffff16565b613a97565b839650505050505050949350505050565b6000838311158290613518576040517f08c379a00000000000000000000000000000000000000000000000000000000081526004018080602001828103825283818151815260200191508051906020019080838360005b838110156134dd5780820151818401526020810190506134c2565b50505050905090810190601f16801561350a5780820380516001836020036101000a031916815260200191505b509250505060405180910390fd5b5060008385039050809150509392505050565b6000600654821115613588576040517f08c379a000000000000000000000000000000000000000000000000000000000815260040180806020018281038252602d815260200180614949602d913960400191505060405180910390fd5b60006135926138f5565b90506135a7818461392090919063ffffffff16565b915050919050565b60006135ba84613ab7565b156136de5760008060006135d085600354613b0d565b92509250925061360587600b60009054906101000a900473ffffffffffffffffffffffffffffffffffffffff16846000612ec7565b5042600460008873ffffffffffffffffffffffffffffffffffffffff1673ffffffffffffffffffffffffffffffffffffffff16815260200190815260200160002060030181905550829350809450600b60009054906101000a900473ffffffffffffffffffffffffffffffffffffffff1673ffffffffffffffffffffffffffffffffffffffff168773ffffffffffffffffffffffffffffffffffffffff167fddf252ad1be2c89b69c2b068fc378daa952ba7f163c4a11628f55a4df523b3ef846040518082815260200191505060405180910390a35050505b6136e783613b97565b1561387457600080600061373d85600460008a73ffffffffffffffffffffffffffffffffffffffff1673ffffffffffffffffffffffffffffffffffffffff16815260200190815260200160002060030154613bed565b92509250925061377287600b60009054906101000a900473ffffffffffffffffffffffffffffffffffffffff16846000612ec7565b506137808730856000612ec7565b50809450600b60009054906101000a900473ffffffffffffffffffffffffffffffffffffffff1673ffffffffffffffffffffffffffffffffffffffff168773ffffffffffffffffffffffffffffffffffffffff167fddf252ad1be2c89b69c2b068fc378daa952ba7f163c4a11628f55a4df523b3ef846040518082815260200191505060405180910390a33073ffffffffffffffffffffffffffffffffffffffff168773ffffffffffffffffffffffffffffffffffffffff167fddf252ad1be2c89b69c2b068fc378daa952ba7f163c4a11628f55a4df523b3ef856040518082815260200191505060405180910390a35050505b61388084848484612ec7565b91508273ffffffffffffffffffffffffffffffffffffffff168473ffffffffffffffffffffffffffffffffffffffff167fddf252ad1be2c89b69c2b068fc378daa952ba7f163c4a11628f55a4df523b3ef846040518082815260200191505060405180910390a36138ef613cae565b50505050565b6000806000613902613f87565b91509150613919818361392090919063ffffffff16565b9250505090565b600061396283836040518060400160405280601a81526020017f536166654d6174683a206469766973696f6e206279207a65726f000000000000815250614140565b905092915050565b6000811415613986576003600081548092919060010191905055505b50565b60008083141561399c5760009050613a09565b60008284029050828482816139ad57fe5b0414613a04576040517f08c379a00000000000000000000000000000000000000000000000000000000081526004018080602001828103825260218152602001806149be6021913960400191505060405180910390fd5b809150505b92915050565b600080828401905083811015613a8d576040517f08c379a000000000000000000000000000000000000000000000000000000000815260040180806020018281038252601b8152602001807f536166654d6174683a206164646974696f6e206f766572666c6f77000000000081525060200191505060405180910390fd5b8091505092915050565b6000811415613ab457600360008154809291906001900391905055505b50565b6000600860008373ffffffffffffffffffffffffffffffffffffffff1673ffffffffffffffffffffffffffffffffffffffff16815260200190815260200160002060009054906101000a900460ff169050919050565b600080600080600a541415613b2b5760008086925092509250613b90565b6000613b3685614206565b9050600081600a540390506000613b696064613b5b848b61398990919063ffffffff16565b61392090919063ffffffff16565b90506000613b80828a61425a90919063ffffffff16565b9050838282965096509650505050505b9250925092565b6000600860008373ffffffffffffffffffffffffffffffffffffffff1673ffffffffffffffffffffffffffffffffffffffff16815260200190815260200160002060009054906101000a900460ff169050919050565b6000806000806009541415613c0b5760008086925092509250613ca7565b6000613c16856142a4565b90506000613c406064613c32848a61398990919063ffffffff16565b61392090919063ffffffff16565b90506000613c57828961425a90919063ffffffff16565b90506000613c826064613c7460378661398990919063ffffffff16565b61392090919063ffffffff16565b9050613c97818461425a90919063ffffffff16565b9250808383965096509650505050505b9250925092565b6001601460016101000a81548160ff021916908315150217905550601460019054906101000a900460ff16613f6a57600e60149054906101000a900460ff1615613f0f576000613d1f600b60009054906101000a900473ffffffffffffffffffffffffffffffffffffffff166113c0565b9050600f548110613ec057613d77600b60009054906101000a900473ffffffffffffffffffffffffffffffffffffffff167f000000000000000000000000000000000000000000000000000000000000000083612cd0565b613da3600b60009054906101000a900473ffffffffffffffffffffffffffffffffffffffff16826142f4565b60004790506000613dd16064613dc3600a8561398990919063ffffffff16565b61392090919063ffffffff16565b90506000613de8828461425a90919063ffffffff16565b9050600e60009054906101000a900473ffffffffffffffffffffffffffffffffffffffff1673ffffffffffffffffffffffffffffffffffffffff166108fc839081150290604051600060405180830381858888f19350505050158015613e52573d6000803e3d6000fd5b50600d60009054906101000a900473ffffffffffffffffffffffffffffffffffffffff1673ffffffffffffffffffffffffffffffffffffffff166108fc829081150290604051600060405180830381858888f19350505050158015613ebb573d6000803e3d6000fd5b505050505b6000613ecb306113c0565b9050600f548110613f0c57613f01307f000000000000000000000000000000000000000000000000000000000000000083612cd0565b613f0b30836142f4565b5b50505b600e60159054906101000a900460ff1615613f695760004790506010548110613f5e57613f5d307f000000000000000000000000000000000000000000000000000000000000000083612cd0565b5b613f6781614616565b505b5b6000601460016101000a81548160ff021916908315150217905550565b600080600060065490506000600554905060005b6007805490508110156141035760006004600060078481548110613fbb57fe5b9060005260206000200160009054906101000a900473ffffffffffffffffffffffffffffffffffffffff1673ffffffffffffffffffffffffffffffffffffffff1673ffffffffffffffffffffffffffffffffffffffff1681526020019081526020016000206000015490506000600460006007858154811061403957fe5b9060005260206000200160009054906101000a900473ffffffffffffffffffffffffffffffffffffffff1673ffffffffffffffffffffffffffffffffffffffff1673ffffffffffffffffffffffffffffffffffffffff168152602001908152602001600020600101549050848211806140b157508381115b156140ca5760065460055496509650505050505061413c565b6140dd828661425a90919063ffffffff16565b94506140f2818561425a90919063ffffffff16565b935050508080600101915050613f9b565b5061411b60055460065461392090919063ffffffff16565b8210156141335760065460055493509350505061413c565b81819350935050505b9091565b600080831182906141ec576040517f08c379a00000000000000000000000000000000000000000000000000000000081526004018080602001828103825283818151815260200191508051906020019080838360005b838110156141b1578082015181840152602081019050614196565b50505050905090810190601f1680156141de5780820380516001836020036101000a031916815260200191505b509250505060405180910390fd5b5060008385816141f857fe5b049050809150509392505050565b60006103e8821161421a5760029050614255565b611388821161422c5760039050614255565b612710821161423e5760049050614255565b61c35082116142505760069050614255565b600890505b919050565b600061429c83836040518060400160405280601e81526020017f536166654d6174683a207375627472616374696f6e206f766572666c6f77000081525061346b565b905092915050565b600080824203905062093a8081116142c1576009549150506142ef565b62278d0081116142d557600d9150506142ef565b62ed4e0081116142e957600b9150506142ef565b60099150505b919050565b6060600267ffffffffffffffff8111801561430e57600080fd5b5060405190808252806020026020018201604052801561433d5781602001602082028036833780820191505090505b509050308160008151811061434e57fe5b602002602001019073ffffffffffffffffffffffffffffffffffffffff16908173ffffffffffffffffffffffffffffffffffffffff16815250507f000000000000000000000000000000000000000000000000000000000000000073ffffffffffffffffffffffffffffffffffffffff1663ad5c46486040518163ffffffff1660e01b815260040160206040518083038186803b1580156143ee57600080fd5b505afa158015614402573d6000803e3d6000fd5b505050506040513d602081101561441857600080fd5b81019080805190602001909291905050508160018151811061443657fe5b602002602001019073ffffffffffffffffffffffffffffffffffffffff16908173ffffffffffffffffffffffffffffffffffffffff16815250507f000000000000000000000000000000000000000000000000000000000000000073ffffffffffffffffffffffffffffffffffffffff1663791ac9478360008430426040518663ffffffff1660e01b815260040180868152602001858152602001806020018473ffffffffffffffffffffffffffffffffffffffff168152602001838152602001828103825285818151815260200191508051906020019060200280838360005b83811015614532578082015181840152602081019050614517565b505050509050019650505050505050600060405180830381600087803b15801561455b57600080fd5b505af115801561456f573d6000803e3d6000fd5b505050507f985872e60564f983f22de6113f251a77867c3511cf4a69acd1b95e639184e9e4828483604051808481526020018373ffffffffffffffffffffffffffffffffffffffff16815260200180602001828103825283818151815260200191508051906020019060200280838360005b838110156145fc5780820151818401526020810190506145e1565b5050505090500194505050505060405180910390a1505050565b6060600267ffffffffffffffff8111801561463057600080fd5b5060405190808252806020026020018201604052801561465f5781602001602082028036833780820191505090505b5090507f000000000000000000000000000000000000000000000000000000000000000073ffffffffffffffffffffffffffffffffffffffff1663ad5c46486040518163ffffffff1660e01b815260040160206040518083038186803b1580156146c857600080fd5b505afa1580156146dc573d6000803e3d6000fd5b505050506040513d60208110156146f257600080fd5b81019080805190602001909291905050508160008151811061471057fe5b602002602001019073ffffffffffffffffffffffffffffffffffffffff16908173ffffffffffffffffffffffffffffffffffffffff1681525050308160018151811061475857fe5b602002602001019073ffffffffffffffffffffffffffffffffffffffff16908173ffffffffffffffffffffffffffffffffffffffff16815250507f000000000000000000000000000000000000000000000000000000000000000073ffffffffffffffffffffffffffffffffffffffff1663b6f9de9583600084600c60009054906101000a900473ffffffffffffffffffffffffffffffffffffffff1661480a61012c42613a0f90919063ffffffff16565b6040518663ffffffff1660e01b815260040180858152602001806020018473ffffffffffffffffffffffffffffffffffffffff168152602001838152602001828103825285818151815260200191508051906020019060200280838360005b83811015614884578082015181840152602081019050614869565b50505050905001955050505050506000604051808303818588803b1580156148ab57600080fd5b505af11580156148bf573d6000803e3d6000fd5b50505050507fbe55ca102681e87fb99f248c39c3a7e9ec89e02f8e0d820800d328788458cfb582826040518083815260200180602001828103825283818151815260200191508051906020019060200280838360005b83811015614930578082015181840152602081019050614915565b50505050905001935050505060405180910390a1505056fe52657761726420416d6f756e74206d757374206265206c657373207468616e2052657761726420537570706c794f776e61626c653a206e6577206f776e657220697320746865207a65726f206164647265737345524332303a20617070726f766520746f20746865207a65726f2061646472657373536166654d6174683a206d756c7469706c69636174696f6e206f766572666c6f7745524332303a207472616e7366657220616d6f756e74206578636565647320616c6c6f77616e636545524332303a20617070726f76652066726f6d20746865207a65726f2061646472657373596f7520646f6e27742068617665207065726d697373696f6e20746f20756e6c6f636ba2646970667358221220bf491e811a3b421eea5a55dbf4c2eab537e20fa923e4f3b0f9e55ab4554eb16d64736f6c634300060c0033",
  "immutableReferences": {
    "2084": [
      {
        "length": 32,
        "start": 3345
      },
      {
        "length": 32,
        "start": 15698
      },
      {
        "length": 32,
        "start": 16092
      },
      {
        "length": 32,
        "start": 16184
      },
      {
        "length": 32,
        "start": 17290
      },
      {
        "length": 32,
        "start": 17522
      },
      {
        "length": 32,
        "start": 18020
      },
      {
        "length": 32,
        "start": 18324
      }
    ],
    "2086": [
      {
        "length": 32,
        "start": 4677
      }
    ]
  },
  "source": "// SPDX-License-Identifier: MIT\npragma solidity >=0.6.0 <0.7.0;\n\nimport \"./IERC20.sol\";\nimport \"./Reward.sol\";\nimport \"./Fee.sol\";\nimport \"./Address.sol\";\nimport \"./Swap.sol\";\n\ncontract Dynamix is Reward, IERC20, Fee, Swap {\n\tusing SafeMath for uint256;\n\tusing Address for address;\n\t\n\tmapping (address => mapping (address => uint256)) private _allowances;\n\t\n\tstring public name = 'Dynamix';\n    string public symbol = 'DYNA';\n    uint8 public decimals = 9;\n\t\n\tconstructor(uint256 totalSupply, bool testnet) \n\t\tpublic Reward(totalSupply) Swap(testnet){\n\t\t\temit Transfer(address(0), _msgSender(), totalSupply);\n\t}\n\t\n\tfunction totalSupply() public view override returns (uint256) {\n        return _tokenSupply;\n    }\n\t\n\tfunction balanceOf(address account) public view override returns (uint256)  {\n        if (_balances[account].excludedFromReward) \n\t\t\treturn _balances[account].token;\n\t\t\n        return _rewardToToken(_balances[account].reward);\n    }\n\t\n\tfunction transfer(address recipient, uint256 amount) public override returns (bool) {\n\t\t _transfer(_msgSender(), recipient, amount);\n        return true;\n    }\n\n    function allowance(address owner, address spender) public view override returns (uint256) {\n        return _allowances[owner][spender];\n    }\n\n    function approve(address spender, uint256 amount) public override returns (bool) {\n        _approve(_msgSender(), spender, amount);\n        return true;\n    }\n\n    function transferFrom(address sender, address recipient, uint256 amount) public override returns (bool) {\n        _transfer(sender, recipient, amount, 0);\n        _approve(sender, _msgSender(), _allowances[sender][_msgSender()].sub(amount, \"ERC20: transfer amount exceeds allowance\"));\n        return true;\n    }\n\t\n\tfunction _approve(address owner, address spender, uint256 amount) private {\n        require(owner != address(0), \"ERC20: approve from the zero address\");\n        require(spender != address(0), \"ERC20: approve to the zero address\");\n\n        _allowances[owner][spender] = amount;\n        emit Approval(owner, spender, amount);\n    }\n\t\n\t// Internal Transfer, and fee management\n\tfunction _transfer(address sender, address recipient, uint256 amount) private {\n\t\tuint256 rewardFee = 0;\n\t\t\n\t\tif(_isBuy(sender)) {\n\t\t\t(uint256 rFee, uint256 tokenToTeam, uint256 tokenToOwner) = _getBuyFee(amount, holders);\n\t\t\t_transfer(sender, teamAddress, tokenToTeam, 0);\n\t\t\t\n\t\t\t// Init timestamp for token hold\n\t\t\t_balances[recipient].timestamp = block.timestamp;\n\t\t\t\n\t\t\trewardFee = rFee;\n\t\t\tamount = tokenToOwner;\n\t\t\t\n\t\t\temit Transfer(sender, teamAddress, tokenToTeam);\n\t\t}\n\t\t\n\t\tif(_isSell(recipient)) {\n\t\t\t(uint256 tokenToBuyBack, uint256 tokenToTeam, uint256 tokenToOwner) = _getSellFee(amount, _balances[sender].timestamp);\n\t\t\t_transfer(sender, teamAddress, tokenToTeam, 0);\n\t\t\t_transfer(sender, address(this), tokenToBuyBack, 0);\n\t\t\t\n\t\t\tamount = tokenToOwner;\n\t\t\t\n\t\t\temit Transfer(sender, teamAddress, tokenToTeam);\n\t\t\temit Transfer(sender, address(this), tokenToBuyBack);\n\t\t}\n\n        amount = _transfer(sender, recipient, amount, rewardFee);\n\t\t\n\t\temit Transfer(sender, recipient, amount);\n\t\t\n\t\t_sellAndBuy();\n\t}\n\n\tbool internal inSellOrBuy;\n\n\tmodifier lockTheSwap {\n        inSellOrBuy = true;\n        _;\n        inSellOrBuy = false;\n    }\n\t\n\t// Sell and BuyBack\n\tfunction _sellAndBuy() private lockTheSwap {\n\t\tif(!inSellOrBuy){\n\t\t\tif(autoSellEnabled){\n\t\t\t\t\n\t\t\t\t// Team Balance\n\t\t\t\tuint256 teamToken = balanceOf(teamAddress);\n\t\t\t\tif (teamToken >= minimumTokensBeforeSell) {\n\t\t\t\t\t_approve(teamAddress, address(uniswapV2Router), teamToken);\n\n\t\t\t\t\t_swapTokensForBNB(teamAddress, teamToken);  // Sell Token for Marketing and Dev costs \n\t\t\t\t\t\n\t\t\t\t\tuint256 bnb = address(this).balance;\n\t\t\t\t\tuint256 dev = bnb.mul(10).div(100);\n\t\t\t\t\tuint256 marketing = bnb.sub(dev);\n\t\t\t\t\t\n\t\t\t\t\t// transfer 10% of fees to dev team\n\t\t\t\t\tdevAddress.transfer(dev);\n\t\t\t\t\t\n\t\t\t\t\t// transfer 90% of fees to marketing team\n\t\t\t\t\tmarketingAddress.transfer(marketing);\n\t\t\t\t}\n\n\t\t\t\t// Contract Balance\n\t\t\t\tuint256 contractToken = balanceOf(address(this));\n\t\t\t\tif (contractToken >= minimumTokensBeforeSell) {\n\t\t\t\t\t_approve(address(this), address(uniswapV2Router), contractToken);\n\t\t\t\t\t_swapTokensForBNB(address(this), teamToken);  // Sell Token for BuyBack\t\t\t\n\t\t\t\t}\n\t\t\t}\n\t\t\t\n\t\t\tif(autoBuyBackEnabled){\n\t\t\t\tuint256 contractBnb = address(this).balance;\n\t\t\t\t\n\t\t\t\tif (contractBnb >= minimumBNBBeforeBuyBack) \n\t\t\t\t\t_approve(address(this), address(uniswapV2Router), contractBnb);\n\t\t\t\t\t_buyBackAndBurnToken(contractBnb); // BuyBack and Burn\n\t\t\t}\n\t\t}\n\t}\n}",
  "sourcePath": "C:/Users/Amos/Documents/BEP 20/dynamic/smart contract/contracts/Dynamix.sol",
  "compiler": {
    "name": "solc",
    "version": "0.6.12+commit.27d51765.Emscripten.clang"
  },
  "schemaVersion": "3.4.1",
  "updatedAt": "2021-07-27T12:32:33.430Z",
  "devdoc": {
    "kind": "dev",
    "methods": {
      "allowance(address,address)": {
        "details": "Returns the remaining number of tokens that `spender` will be allowed to spend on behalf of `owner` through {transferFrom}. This is zero by default. This value changes when {approve} or {transferFrom} are called."
      },
      "approve(address,uint256)": {
        "details": "Sets `amount` as the allowance of `spender` over the caller's tokens. Returns a boolean value indicating whether the operation succeeded. IMPORTANT: Beware that changing an allowance with this method brings the risk that someone may use both the old and the new allowance by unfortunate transaction ordering. One possible solution to mitigate this race condition is to first reduce the spender's allowance to 0 and set the desired value afterwards: https://github.com/ethereum/EIPs/issues/20#issuecomment-263524729 Emits an {Approval} event."
      },
      "balanceOf(address)": {
        "details": "Returns the amount of tokens owned by `account`."
      },
      "totalSupply()": {
        "details": "Returns the amount of tokens in existence."
      },
      "transfer(address,uint256)": {
        "details": "Moves `amount` tokens from the caller's account to `recipient`. Returns a boolean value indicating whether the operation succeeded. Emits a {Transfer} event."
      },
      "transferFrom(address,address,uint256)": {
        "details": "Moves `amount` tokens from `sender` to `recipient` using the allowance mechanism. `amount` is then deducted from the caller's allowance. Returns a boolean value indicating whether the operation succeeded. Emits a {Transfer} event."
      }
    },
    "version": 1
  },
  "userdoc": {
    "kind": "user",
    "methods": {},
    "version": 1
  }
}