{
  "contractName": "Reward",
  "abi": [
    {
      "inputs": [
        {
          "internalType": "uint256",
          "name": "totalSupply",
          "type": "uint256"
        }
      ],
      "stateMutability": "nonpayable",
      "type": "constructor"
    },
    {
      "anonymous": false,
      "inputs": [
        {
          "indexed": true,
          "internalType": "address",
          "name": "previousOwner",
          "type": "address"
        },
        {
          "indexed": true,
          "internalType": "address",
          "name": "newOwner",
          "type": "address"
        }
      ],
      "name": "OwnershipTransferred",
      "type": "event"
    },
    {
      "inputs": [],
      "name": "geUnlockTime",
      "outputs": [
        {
          "internalType": "uint256",
          "name": "",
          "type": "uint256"
        }
      ],
      "stateMutability": "view",
      "type": "function"
    },
    {
      "inputs": [],
      "name": "holders",
      "outputs": [
        {
          "internalType": "uint256",
          "name": "",
          "type": "uint256"
        }
      ],
      "stateMutability": "view",
      "type": "function"
    },
    {
      "inputs": [
        {
          "internalType": "uint256",
          "name": "time",
          "type": "uint256"
        }
      ],
      "name": "lock",
      "outputs": [],
      "stateMutability": "nonpayable",
      "type": "function"
    },
    {
      "inputs": [],
      "name": "owner",
      "outputs": [
        {
          "internalType": "address",
          "name": "",
          "type": "address"
        }
      ],
      "stateMutability": "view",
      "type": "function"
    },
    {
      "inputs": [],
      "name": "renounceOwnership",
      "outputs": [],
      "stateMutability": "nonpayable",
      "type": "function"
    },
    {
      "inputs": [
        {
          "internalType": "address",
          "name": "newOwner",
          "type": "address"
        }
      ],
      "name": "transferOwnership",
      "outputs": [],
      "stateMutability": "nonpayable",
      "type": "function"
    },
    {
      "inputs": [],
      "name": "unlock",
      "outputs": [],
      "stateMutability": "nonpayable",
      "type": "function"
    },
    {
      "inputs": [
        {
          "internalType": "address",
          "name": "account",
          "type": "address"
        }
      ],
      "name": "excludeAccountFromRewards",
      "outputs": [],
      "stateMutability": "nonpayable",
      "type": "function"
    },
    {
      "inputs": [
        {
          "internalType": "address",
          "name": "account",
          "type": "address"
        }
      ],
      "name": "includeAccountInRewards",
      "outputs": [],
      "stateMutability": "nonpayable",
      "type": "function"
    },
    {
      "inputs": [
        {
          "internalType": "address",
          "name": "account",
          "type": "address"
        }
      ],
      "name": "accountBalance",
      "outputs": [
        {
          "internalType": "uint256",
          "name": "",
          "type": "uint256"
        },
        {
          "internalType": "uint256",
          "name": "",
          "type": "uint256"
        },
        {
          "internalType": "bool",
          "name": "",
          "type": "bool"
        },
        {
          "internalType": "uint256",
          "name": "",
          "type": "uint256"
        }
      ],
      "stateMutability": "view",
      "type": "function"
    }
  ],
  "bytecode": "0x608060405234801561001057600080fd5b506040516200196b3803806200196b8339818101604052602081101561003557600080fd5b810190808051906020019092919050505060006100566101cb60201b60201c565b9050806000806101000a81548173ffffffffffffffffffffffffffffffffffffffff021916908373ffffffffffffffffffffffffffffffffffffffff1602179055508073ffffffffffffffffffffffffffffffffffffffff16600073ffffffffffffffffffffffffffffffffffffffff167f8be0079c531659141344cd1fd0a4f28419497f9722a3daafe3b4186f6b6457e060405160405180910390a3506000600381905550806005819055506005546000198161011057fe5b0660001903600681905550600654600460006101306101cb60201b60201c565b73ffffffffffffffffffffffffffffffffffffffff1673ffffffffffffffffffffffffffffffffffffffff1681526020019081526020016000206000018190555042600460006101846101cb60201b60201c565b73ffffffffffffffffffffffffffffffffffffffff1673ffffffffffffffffffffffffffffffffffffffff16815260200190815260200160002060030181905550506101d3565b600033905090565b61178880620001e36000396000f3fe608060405234801561001057600080fd5b506004361061009e5760003560e01c8063b2f3d11c11610066578063b2f3d11c1461014d578063b6c5232414610191578063d294cb0f146101af578063dd4670641461021e578063f2fde38b1461024c5761009e565b806324931c2e146100a3578063715018a6146100e75780638188f71c146100f15780638da5cb5b1461010f578063a69df4b514610143575b600080fd5b6100e5600480360360208110156100b957600080fd5b81019080803573ffffffffffffffffffffffffffffffffffffffff169060200190929190505050610290565b005b6100ef610623565b005b6100f96107a9565b6040518082815260200191505060405180910390f35b6101176107af565b604051808273ffffffffffffffffffffffffffffffffffffffff16815260200191505060405180910390f35b61014b6107d8565b005b61018f6004803603602081101561016357600080fd5b81019080803573ffffffffffffffffffffffffffffffffffffffff1690602001909291905050506109f5565b005b610199610d1e565b6040518082815260200191505060405180910390f35b6101f1600480360360208110156101c557600080fd5b81019080803573ffffffffffffffffffffffffffffffffffffffff169060200190929190505050610d28565b60405180858152602001848152602001831515815260200182815260200194505050505060405180910390f35b61024a6004803603602081101561023457600080fd5b8101908080359060200190929190505050610e56565b005b61028e6004803603602081101561026257600080fd5b81019080803573ffffffffffffffffffffffffffffffffffffffff169060200190929190505050611047565b005b610298611252565b73ffffffffffffffffffffffffffffffffffffffff1660008054906101000a900473ffffffffffffffffffffffffffffffffffffffff1673ffffffffffffffffffffffffffffffffffffffff1614610358576040517f08c379a00000000000000000000000000000000000000000000000000000000081526004018080602001828103825260208152602001807f4f776e61626c653a2063616c6c6572206973206e6f7420746865206f776e657281525060200191505060405180910390fd5b600460008273ffffffffffffffffffffffffffffffffffffffff1673ffffffffffffffffffffffffffffffffffffffff16815260200190815260200160002060020160009054906101000a900460ff1661041a576040517f08c379a00000000000000000000000000000000000000000000000000000000081526004018080602001828103825260138152602001807f4163636f756e74206973206578636c756465640000000000000000000000000081525060200191505060405180910390fd5b60005b60078054905081101561061f578173ffffffffffffffffffffffffffffffffffffffff166007828154811061044e57fe5b9060005260206000200160009054906101000a900473ffffffffffffffffffffffffffffffffffffffff1673ffffffffffffffffffffffffffffffffffffffff161415610612576007600160078054905003815481106104aa57fe5b9060005260206000200160009054906101000a900473ffffffffffffffffffffffffffffffffffffffff16600782815481106104e257fe5b9060005260206000200160006101000a81548173ffffffffffffffffffffffffffffffffffffffff021916908373ffffffffffffffffffffffffffffffffffffffff160217905550600780548061053557fe5b6001900381819060005260206000200160006101000a81549073ffffffffffffffffffffffffffffffffffffffff021916905590556000600460008473ffffffffffffffffffffffffffffffffffffffff1673ffffffffffffffffffffffffffffffffffffffff168152602001908152602001600020600101819055506000600460008473ffffffffffffffffffffffffffffffffffffffff1673ffffffffffffffffffffffffffffffffffffffff16815260200190815260200160002060020160006101000a81548160ff02191690831515021790555061061f565b808060010191505061041d565b5050565b61062b611252565b73ffffffffffffffffffffffffffffffffffffffff1660008054906101000a900473ffffffffffffffffffffffffffffffffffffffff1673ffffffffffffffffffffffffffffffffffffffff16146106eb576040517f08c379a00000000000000000000000000000000000000000000000000000000081526004018080602001828103825260208152602001807f4f776e61626c653a2063616c6c6572206973206e6f7420746865206f776e657281525060200191505060405180910390fd5b600073ffffffffffffffffffffffffffffffffffffffff1660008054906101000a900473ffffffffffffffffffffffffffffffffffffffff1673ffffffffffffffffffffffffffffffffffffffff167f8be0079c531659141344cd1fd0a4f28419497f9722a3daafe3b4186f6b6457e060405160405180910390a360008060006101000a81548173ffffffffffffffffffffffffffffffffffffffff021916908373ffffffffffffffffffffffffffffffffffffffff160217905550565b60035481565b60008060009054906101000a900473ffffffffffffffffffffffffffffffffffffffff16905090565b3373ffffffffffffffffffffffffffffffffffffffff16600160009054906101000a900473ffffffffffffffffffffffffffffffffffffffff1673ffffffffffffffffffffffffffffffffffffffff161461087e576040517f08c379a00000000000000000000000000000000000000000000000000000000081526004018080602001828103825260238152602001806117306023913960400191505060405180910390fd5b60025442116108f5576040517f08c379a000000000000000000000000000000000000000000000000000000000815260040180806020018281038252601f8152602001807f436f6e7472616374206973206c6f636b656420756e74696c203720646179730081525060200191505060405180910390fd5b600160009054906101000a900473ffffffffffffffffffffffffffffffffffffffff1673ffffffffffffffffffffffffffffffffffffffff1660008054906101000a900473ffffffffffffffffffffffffffffffffffffffff1673ffffffffffffffffffffffffffffffffffffffff167f8be0079c531659141344cd1fd0a4f28419497f9722a3daafe3b4186f6b6457e060405160405180910390a3600160009054906101000a900473ffffffffffffffffffffffffffffffffffffffff166000806101000a81548173ffffffffffffffffffffffffffffffffffffffff021916908373ffffffffffffffffffffffffffffffffffffffff160217905550565b6109fd611252565b73ffffffffffffffffffffffffffffffffffffffff1660008054906101000a900473ffffffffffffffffffffffffffffffffffffffff1673ffffffffffffffffffffffffffffffffffffffff1614610abd576040517f08c379a00000000000000000000000000000000000000000000000000000000081526004018080602001828103825260208152602001807f4f776e61626c653a2063616c6c6572206973206e6f7420746865206f776e657281525060200191505060405180910390fd5b600460008273ffffffffffffffffffffffffffffffffffffffff1673ffffffffffffffffffffffffffffffffffffffff16815260200190815260200160002060020160009054906101000a900460ff1615610b80576040517f08c379a00000000000000000000000000000000000000000000000000000000081526004018080602001828103825260178152602001807f4163636f756e74206973206e6f74206578636c7564656400000000000000000081525060200191505060405180910390fd5b6000600460008373ffffffffffffffffffffffffffffffffffffffff1673ffffffffffffffffffffffffffffffffffffffff168152602001908152602001600020600001541115610c5d57610c16600460008373ffffffffffffffffffffffffffffffffffffffff1673ffffffffffffffffffffffffffffffffffffffff1681526020019081526020016000206000015461125a565b600460008373ffffffffffffffffffffffffffffffffffffffff1673ffffffffffffffffffffffffffffffffffffffff168152602001908152602001600020600101819055505b6001600460008373ffffffffffffffffffffffffffffffffffffffff1673ffffffffffffffffffffffffffffffffffffffff16815260200190815260200160002060020160006101000a81548160ff0219169083151502179055506007819080600181540180825580915050600190039060005260206000200160009091909190916101000a81548173ffffffffffffffffffffffffffffffffffffffff021916908373ffffffffffffffffffffffffffffffffffffffff16021790555050565b6000600254905090565b600080600080600460008673ffffffffffffffffffffffffffffffffffffffff1673ffffffffffffffffffffffffffffffffffffffff16815260200190815260200160002060000154600460008773ffffffffffffffffffffffffffffffffffffffff1673ffffffffffffffffffffffffffffffffffffffff16815260200190815260200160002060010154600460008873ffffffffffffffffffffffffffffffffffffffff1673ffffffffffffffffffffffffffffffffffffffff16815260200190815260200160002060020160009054906101000a900460ff16600460008973ffffffffffffffffffffffffffffffffffffffff1673ffffffffffffffffffffffffffffffffffffffff1681526020019081526020016000206003015493509350935093509193509193565b610e5e611252565b73ffffffffffffffffffffffffffffffffffffffff1660008054906101000a900473ffffffffffffffffffffffffffffffffffffffff1673ffffffffffffffffffffffffffffffffffffffff1614610f1e576040517f08c379a00000000000000000000000000000000000000000000000000000000081526004018080602001828103825260208152602001807f4f776e61626c653a2063616c6c6572206973206e6f7420746865206f776e657281525060200191505060405180910390fd5b60008054906101000a900473ffffffffffffffffffffffffffffffffffffffff16600160006101000a81548173ffffffffffffffffffffffffffffffffffffffff021916908373ffffffffffffffffffffffffffffffffffffffff16021790555060008060006101000a81548173ffffffffffffffffffffffffffffffffffffffff021916908373ffffffffffffffffffffffffffffffffffffffff160217905550804201600281905550600073ffffffffffffffffffffffffffffffffffffffff1660008054906101000a900473ffffffffffffffffffffffffffffffffffffffff1673ffffffffffffffffffffffffffffffffffffffff167f8be0079c531659141344cd1fd0a4f28419497f9722a3daafe3b4186f6b6457e060405160405180910390a350565b61104f611252565b73ffffffffffffffffffffffffffffffffffffffff1660008054906101000a900473ffffffffffffffffffffffffffffffffffffffff1673ffffffffffffffffffffffffffffffffffffffff161461110f576040517f08c379a00000000000000000000000000000000000000000000000000000000081526004018080602001828103825260208152602001807f4f776e61626c653a2063616c6c6572206973206e6f7420746865206f776e657281525060200191505060405180910390fd5b600073ffffffffffffffffffffffffffffffffffffffff168173ffffffffffffffffffffffffffffffffffffffff161415611195576040517f08c379a000000000000000000000000000000000000000000000000000000000815260040180806020018281038252602681526020018061170a6026913960400191505060405180910390fd5b8073ffffffffffffffffffffffffffffffffffffffff1660008054906101000a900473ffffffffffffffffffffffffffffffffffffffff1673ffffffffffffffffffffffffffffffffffffffff167f8be0079c531659141344cd1fd0a4f28419497f9722a3daafe3b4186f6b6457e060405160405180910390a3806000806101000a81548173ffffffffffffffffffffffffffffffffffffffff021916908373ffffffffffffffffffffffffffffffffffffffff16021790555050565b600033905090565b60006006548211156112b7576040517f08c379a000000000000000000000000000000000000000000000000000000000815260040180806020018281038252602d8152602001806116dd602d913960400191505060405180910390fd5b60006112c16112de565b90506112d6818461130990919063ffffffff16565b915050919050565b60008060006112eb611353565b91509150611302818361130990919063ffffffff16565b9250505090565b600061134b83836040518060400160405280601a81526020017f536166654d6174683a206469766973696f6e206279207a65726f00000000000081525061150c565b905092915050565b600080600060065490506000600554905060005b6007805490508110156114cf576000600460006007848154811061138757fe5b9060005260206000200160009054906101000a900473ffffffffffffffffffffffffffffffffffffffff1673ffffffffffffffffffffffffffffffffffffffff1673ffffffffffffffffffffffffffffffffffffffff1681526020019081526020016000206000015490506000600460006007858154811061140557fe5b9060005260206000200160009054906101000a900473ffffffffffffffffffffffffffffffffffffffff1673ffffffffffffffffffffffffffffffffffffffff1673ffffffffffffffffffffffffffffffffffffffff1681526020019081526020016000206001015490508482118061147d57508381115b1561149657600654600554965096505050505050611508565b6114a982866115d290919063ffffffff16565b94506114be81856115d290919063ffffffff16565b935050508080600101915050611367565b506114e760055460065461130990919063ffffffff16565b8210156114ff57600654600554935093505050611508565b81819350935050505b9091565b600080831182906115b8576040517f08c379a00000000000000000000000000000000000000000000000000000000081526004018080602001828103825283818151815260200191508051906020019080838360005b8381101561157d578082015181840152602081019050611562565b50505050905090810190601f1680156115aa5780820380516001836020036101000a031916815260200191505b509250505060405180910390fd5b5060008385816115c457fe5b049050809150509392505050565b600061161483836040518060400160405280601e81526020017f536166654d6174683a207375627472616374696f6e206f766572666c6f77000081525061161c565b905092915050565b60008383111582906116c9576040517f08c379a00000000000000000000000000000000000000000000000000000000081526004018080602001828103825283818151815260200191508051906020019080838360005b8381101561168e578082015181840152602081019050611673565b50505050905090810190601f1680156116bb5780820380516001836020036101000a031916815260200191505b509250505060405180910390fd5b506000838503905080915050939250505056fe52657761726420416d6f756e74206d757374206265206c657373207468616e2052657761726420537570706c794f776e61626c653a206e6577206f776e657220697320746865207a65726f2061646472657373596f7520646f6e27742068617665207065726d697373696f6e20746f20756e6c6f636ba2646970667358221220dad8cd1859aeba4a41e48035894f6eb074446db09d388f3c951e88b27a26ff7364736f6c634300060c0033",
  "immutableReferences": {},
  "source": "// SPDX-License-Identifier: MIT\npragma solidity >=0.6.0 <0.7.0;\n\nimport \"./Holder.sol\";\nimport \"./Ownable.sol\";\nimport \"./SafeMath.sol\";\n\ncontract Reward is Ownable, Holder {\n\tusing SafeMath for uint256;\n\t\n\tstruct Balance {\n        uint256 reward; \n        uint256 token;  \n        bool excludedFromReward;    \n\t\tuint timestamp;\n    }\n\t\n    mapping (address => Balance) internal _balances;\n\n    uint256 internal _tokenSupply;\n    uint256 internal _rewardSupply;\n\t\n    address[] private _excludedFromRewardAddr;\n\t\n\tconstructor(uint256 totalSupply) public {\n\t\t_tokenSupply = totalSupply;\n\t\t_rewardSupply = (~uint256(0) - (~uint256(0) % _tokenSupply));\n\t\t\n\t\t_balances[_msgSender()].reward = _rewardSupply;\n\t\t_balances[_msgSender()].timestamp = block.timestamp;\t\t\n\t}\n\t\t\n\t// Transfer Token \n\tfunction _transfer(address sender, address recipient, uint256 tokenAmount, uint256 fee) internal returns (uint256) {\t\t\n\t\tuint256 rate = _getRate();\t\t\n\t\trecipientTransfert(_balances[recipient].reward.div(rate));\n\t\t\n\t\t// Compute Fees\n\t\tuint256 tokenFee = tokenAmount.mul(fee).div(100);\n        uint256 tokenToTransfertAmount = tokenAmount.sub(tokenFee, \"tokenAmount sub tokenFee\");\n\t\t\n\t\t// Convert Token Amount to Transfert to Reward Amount\n\t\tuint256 rewardAmount = tokenAmount.mul(rate);\n        uint256 rewardFee = tokenFee.mul(rate);\n        uint256 rewardToTransferAmount = rewardAmount.sub(rewardFee, \"rewardAmount sub rewardFee\");\n\n\t\t// Transfert Reward\n\t\t_balances[sender].reward = _balances[sender].reward.sub(rewardAmount, \"reward sub rewardAmount\");\n        _balances[recipient].reward = _balances[recipient].reward.add(rewardToTransferAmount);       \n\t\t\n\t\t// Transfert Exclude\n\t\tif(_balances[sender].excludedFromReward)\n\t\t\t_balances[sender].token = _balances[sender].token.sub(tokenAmount, \"token sub tokenAmount\");\n\t\t\n\t\tif(_balances[recipient].excludedFromReward)\n\t\t\t_balances[recipient].token = _balances[recipient].token.add(tokenToTransfertAmount);\n\t\t\n\t\t// Update Reward Supply\n\t\t_rewardSupply = _rewardSupply.sub(rewardFee, \"_rewardSupply sub rewardFee\");\n\t\t\n\t\tsenderTransfert(_balances[sender].reward.div(rate));\n\t\t\n\t\treturn tokenToTransfertAmount;\n\t}\n\n\t// Get Total Token Supply and Rewards \n\tfunction _getTotalSupplyAndTotalReward() private view returns(uint256, uint256) {\n        uint256 rewardTotal = _rewardSupply;\n        uint256 tokenTotal = _tokenSupply;      \n\t\t\n        for (uint256 i = 0; i < _excludedFromRewardAddr.length; i++) {\n\t\t\tuint256 reward = _balances[_excludedFromRewardAddr[i]].reward;\n\t\t\tuint256 token = _balances[_excludedFromRewardAddr[i]].token;\n\t\t\t\n            if (reward > rewardTotal || token > tokenTotal) \n\t\t\t\treturn (_rewardSupply, _tokenSupply);\n\t\t\t\n            rewardTotal = rewardTotal.sub(reward);\n            tokenTotal = tokenTotal.sub(token);\n        }\n\t\t\n        if (rewardTotal < _rewardSupply.div(_tokenSupply)) \n\t\t\treturn (_rewardSupply, _tokenSupply);\n\t\t\n        return (rewardTotal, tokenTotal);\n    }\n\t\n\t// Convert Reward to Token\n\tfunction _rewardToToken(uint256 reward) internal view returns(uint256) {\n        require(reward <= _rewardSupply, \"Reward Amount must be less than Reward Supply\");\n\t\t\n        uint256 rate = _getRate();\n        return reward.div(rate);\n    }\n\t\n\t// Get Rate between Reward Supply and Token Supply\n\tfunction _getRate() private view returns(uint256) {\n        (uint256 rewardSupply, uint256 tokenSupply) = _getTotalSupplyAndTotalReward();\n\t\t\n        return rewardSupply.div(tokenSupply);\n    }\n\t\n\t// Exclude an account from rewards\n\tfunction excludeAccountFromRewards(address account) external onlyOwner()  {\n        require(!_balances[account].excludedFromReward, \"Account is not excluded\");\n\t\t\n        if(_balances[account].reward > 0) \n            _balances[account].token = _rewardToToken(_balances[account].reward); \n        \n        _balances[account].excludedFromReward = true;\n\t\t\n        _excludedFromRewardAddr.push(account);\n    }\n\n\t// Include an account in rewards\n    function includeAccountInRewards(address account) external onlyOwner() {\n        require(_balances[account].excludedFromReward, \"Account is excluded\");\n\t\t\n        for (uint256 i = 0; i < _excludedFromRewardAddr.length; i++) {\n            if (_excludedFromRewardAddr[i] == account) {\n                _excludedFromRewardAddr[i] = _excludedFromRewardAddr[_excludedFromRewardAddr.length - 1];\n\t\t\t\t_excludedFromRewardAddr.pop();\n\n                _balances[account].token = 0;\n\t\t\t\t_balances[account].excludedFromReward = false;\n\t\t\t\t\n                break;\n            }\n        }\n    }\n\t\t\n\t// Account Balance Informations\n\tfunction accountBalance(address account) external view returns(uint256, uint256, bool, uint) {\n        return (_balances[account].reward\n\t\t\t\t, _balances[account].token\n\t\t\t\t, _balances[account].excludedFromReward\n\t\t\t\t, _balances[account].timestamp\n\t\t\t\t);\t\n    }\n}",
  "sourcePath": "C:/Users/Amos/Documents/BEP 20/dynamic/smart contract/contracts/Reward.sol",
  "compiler": {
    "name": "solc",
    "version": "0.6.12+commit.27d51765.Emscripten.clang"
  },
  "schemaVersion": "3.4.1",
  "updatedAt": "2021-07-27T12:32:33.552Z",
  "devdoc": {
    "kind": "dev",
    "methods": {},
    "version": 1
  },
  "userdoc": {
    "kind": "user",
    "methods": {},
    "version": 1
  }
}