{
  "contractName": "TestSwap",
  "abi": [
    {
      "inputs": [],
      "stateMutability": "nonpayable",
      "type": "constructor"
    },
    {
      "anonymous": false,
      "inputs": [
        {
          "indexed": false,
          "internalType": "uint256",
          "name": "bnb",
          "type": "uint256"
        },
        {
          "indexed": false,
          "internalType": "address[]",
          "name": "path",
          "type": "address[]"
        }
      ],
      "name": "BuyBackAndBurned",
      "type": "event"
    },
    {
      "anonymous": false,
      "inputs": [
        {
          "indexed": true,
          "internalType": "address",
          "name": "previousOwner",
          "type": "address"
        },
        {
          "indexed": true,
          "internalType": "address",
          "name": "newOwner",
          "type": "address"
        }
      ],
      "name": "OwnershipTransferred",
      "type": "event"
    },
    {
      "anonymous": false,
      "inputs": [
        {
          "indexed": false,
          "internalType": "uint256",
          "name": "amountIn",
          "type": "uint256"
        },
        {
          "indexed": false,
          "internalType": "address",
          "name": "to",
          "type": "address"
        },
        {
          "indexed": false,
          "internalType": "address[]",
          "name": "path",
          "type": "address[]"
        }
      ],
      "name": "SwapTokensForBNB",
      "type": "event"
    },
    {
      "anonymous": false,
      "inputs": [
        {
          "indexed": false,
          "internalType": "address",
          "name": "addr",
          "type": "address"
        },
        {
          "indexed": false,
          "internalType": "string",
          "name": "addrType",
          "type": "string"
        }
      ],
      "name": "TeamAddressChanged",
      "type": "event"
    },
    {
      "anonymous": false,
      "inputs": [
        {
          "indexed": false,
          "internalType": "bool",
          "name": "enabled",
          "type": "bool"
        },
        {
          "indexed": false,
          "internalType": "uint256",
          "name": "minimumBNBBeforeBuyBack",
          "type": "uint256"
        }
      ],
      "name": "autoBuyBackChanged",
      "type": "event"
    },
    {
      "anonymous": false,
      "inputs": [
        {
          "indexed": false,
          "internalType": "bool",
          "name": "enabled",
          "type": "bool"
        },
        {
          "indexed": false,
          "internalType": "uint256",
          "name": "minimumTokensBeforeSell",
          "type": "uint256"
        }
      ],
      "name": "autoSellChanged",
      "type": "event"
    },
    {
      "inputs": [],
      "name": "autoBuyBackEnabled",
      "outputs": [
        {
          "internalType": "bool",
          "name": "",
          "type": "bool"
        }
      ],
      "stateMutability": "view",
      "type": "function"
    },
    {
      "inputs": [],
      "name": "autoSellEnabled",
      "outputs": [
        {
          "internalType": "bool",
          "name": "",
          "type": "bool"
        }
      ],
      "stateMutability": "view",
      "type": "function"
    },
    {
      "inputs": [],
      "name": "deadAddress",
      "outputs": [
        {
          "internalType": "address",
          "name": "",
          "type": "address"
        }
      ],
      "stateMutability": "view",
      "type": "function"
    },
    {
      "inputs": [],
      "name": "devAddress",
      "outputs": [
        {
          "internalType": "address payable",
          "name": "",
          "type": "address"
        }
      ],
      "stateMutability": "view",
      "type": "function"
    },
    {
      "inputs": [],
      "name": "disableAutoBuy",
      "outputs": [],
      "stateMutability": "nonpayable",
      "type": "function"
    },
    {
      "inputs": [],
      "name": "disableAutoSell",
      "outputs": [],
      "stateMutability": "nonpayable",
      "type": "function"
    },
    {
      "inputs": [
        {
          "internalType": "uint256",
          "name": "bnbBeforeBuyBack",
          "type": "uint256"
        }
      ],
      "name": "enableAutoBuy",
      "outputs": [],
      "stateMutability": "nonpayable",
      "type": "function"
    },
    {
      "inputs": [
        {
          "internalType": "uint256",
          "name": "tokensBeforeSell",
          "type": "uint256"
        }
      ],
      "name": "enableAutoSell",
      "outputs": [],
      "stateMutability": "nonpayable",
      "type": "function"
    },
    {
      "inputs": [],
      "name": "geUnlockTime",
      "outputs": [
        {
          "internalType": "uint256",
          "name": "",
          "type": "uint256"
        }
      ],
      "stateMutability": "view",
      "type": "function"
    },
    {
      "inputs": [
        {
          "internalType": "uint256",
          "name": "time",
          "type": "uint256"
        }
      ],
      "name": "lock",
      "outputs": [],
      "stateMutability": "nonpayable",
      "type": "function"
    },
    {
      "inputs": [],
      "name": "marketingAddress",
      "outputs": [
        {
          "internalType": "address payable",
          "name": "",
          "type": "address"
        }
      ],
      "stateMutability": "view",
      "type": "function"
    },
    {
      "inputs": [],
      "name": "minimumBNBBeforeBuyBack",
      "outputs": [
        {
          "internalType": "uint256",
          "name": "",
          "type": "uint256"
        }
      ],
      "stateMutability": "view",
      "type": "function"
    },
    {
      "inputs": [],
      "name": "minimumTokensBeforeSell",
      "outputs": [
        {
          "internalType": "uint256",
          "name": "",
          "type": "uint256"
        }
      ],
      "stateMutability": "view",
      "type": "function"
    },
    {
      "inputs": [],
      "name": "owner",
      "outputs": [
        {
          "internalType": "address",
          "name": "",
          "type": "address"
        }
      ],
      "stateMutability": "view",
      "type": "function"
    },
    {
      "inputs": [],
      "name": "renounceOwnership",
      "outputs": [],
      "stateMutability": "nonpayable",
      "type": "function"
    },
    {
      "inputs": [
        {
          "internalType": "address",
          "name": "addr",
          "type": "address"
        }
      ],
      "name": "setDevAddress",
      "outputs": [],
      "stateMutability": "nonpayable",
      "type": "function"
    },
    {
      "inputs": [
        {
          "internalType": "address",
          "name": "addr",
          "type": "address"
        }
      ],
      "name": "setMarketingAddress",
      "outputs": [],
      "stateMutability": "nonpayable",
      "type": "function"
    },
    {
      "inputs": [
        {
          "internalType": "address",
          "name": "newOwner",
          "type": "address"
        }
      ],
      "name": "transferOwnership",
      "outputs": [],
      "stateMutability": "nonpayable",
      "type": "function"
    },
    {
      "inputs": [],
      "name": "uniswapV2Pair",
      "outputs": [
        {
          "internalType": "address",
          "name": "",
          "type": "address"
        }
      ],
      "stateMutability": "view",
      "type": "function"
    },
    {
      "inputs": [],
      "name": "uniswapV2Router",
      "outputs": [
        {
          "internalType": "contract IUniswapV2Router02",
          "name": "",
          "type": "address"
        }
      ],
      "stateMutability": "view",
      "type": "function"
    },
    {
      "inputs": [],
      "name": "unlock",
      "outputs": [],
      "stateMutability": "nonpayable",
      "type": "function"
    },
    {
      "inputs": [
        {
          "internalType": "address",
          "name": "to",
          "type": "address"
        },
        {
          "internalType": "uint256",
          "name": "token",
          "type": "uint256"
        }
      ],
      "name": "swapTokensForBNB",
      "outputs": [],
      "stateMutability": "nonpayable",
      "type": "function"
    },
    {
      "inputs": [
        {
          "internalType": "uint256",
          "name": "bnb",
          "type": "uint256"
        }
      ],
      "name": "buyBackAndBurnToken",
      "outputs": [],
      "stateMutability": "nonpayable",
      "type": "function"
    }
  ],
  "bytecode": "0x60c060405261dead600360006101000a81548173ffffffffffffffffffffffffffffffffffffffff021916908373ffffffffffffffffffffffffffffffffffffffff160217905550611001600460006101000a81548173ffffffffffffffffffffffffffffffffffffffff021916908373ffffffffffffffffffffffffffffffffffffffff160217905550611002600560006101000a81548173ffffffffffffffffffffffffffffffffffffffff021916908373ffffffffffffffffffffffffffffffffffffffff1602179055506000600560146101000a81548160ff0219169083151502179055506001600560156101000a81548160ff021916908315150217905550600060065560006007553480156200011a57600080fd5b50600160006200012f6200044b60201b60201c565b9050806000806101000a81548173ffffffffffffffffffffffffffffffffffffffff021916908373ffffffffffffffffffffffffffffffffffffffff1602179055508073ffffffffffffffffffffffffffffffffffffffff16600073ffffffffffffffffffffffffffffffffffffffff167f8be0079c531659141344cd1fd0a4f28419497f9722a3daafe3b4186f6b6457e060405160405180910390a35060008115620001f35773d99d1c33f9fc3444f8101754abc46c52416550d190506200020b565b7310ed43c718714eb63d5aa57b78b54704e256024e90505b8073ffffffffffffffffffffffffffffffffffffffff1663c45a01556040518163ffffffff1660e01b815260040160206040518083038186803b1580156200025257600080fd5b505afa15801562000267573d6000803e3d6000fd5b505050506040513d60208110156200027e57600080fd5b810190808051906020019092919050505073ffffffffffffffffffffffffffffffffffffffff1663c9c65396308373ffffffffffffffffffffffffffffffffffffffff1663ad5c46486040518163ffffffff1660e01b815260040160206040518083038186803b158015620002f257600080fd5b505afa15801562000307573d6000803e3d6000fd5b505050506040513d60208110156200031e57600080fd5b81019080805190602001909291905050506040518363ffffffff1660e01b8152600401808373ffffffffffffffffffffffffffffffffffffffff1681526020018273ffffffffffffffffffffffffffffffffffffffff16815260200192505050602060405180830381600087803b1580156200039957600080fd5b505af1158015620003ae573d6000803e3d6000fd5b505050506040513d6020811015620003c557600080fd5b810190808051906020019092919050505073ffffffffffffffffffffffffffffffffffffffff1660a08173ffffffffffffffffffffffffffffffffffffffff1660601b815250508073ffffffffffffffffffffffffffffffffffffffff1660808173ffffffffffffffffffffffffffffffffffffffff1660601b81525050505062000453565b600033905090565b60805160601c60a05160601c611d6962000491600039806105a4525080610520528061169c5280611784528061197e5280611aae5250611d696000f3fe608060405234801561001057600080fd5b506004361061014d5760003560e01c8063906e9dd0116100c3578063dd4670641161007c578063dd46706414610404578063e77a475e14610432578063f2fde38b14610460578063f30e5327146104a4578063f537614d146104d2578063fc74f4c7146104f05761014d565b8063906e9dd014610316578063a5ece9411461035a578063a69df4b51461038e578063b10182f514610398578063b6c52324146103a2578063d0d41fe1146103c05761014d565b806349bd5a5e1161011557806349bd5a5e1461025a578063715018a61461028e57806375552ea8146102985780637867d510146102b857806380d5bea2146102c25780638da5cb5b146102e25761014d565b80631694505e146101525780631c90ad641461018657806327c8f835146101a45780632827dff0146101d85780633ad10ef614610226575b600080fd5b61015a61051e565b604051808273ffffffffffffffffffffffffffffffffffffffff16815260200191505060405180910390f35b61018e610542565b6040518082815260200191505060405180910390f35b6101ac610548565b604051808273ffffffffffffffffffffffffffffffffffffffff16815260200191505060405180910390f35b610224600480360360408110156101ee57600080fd5b81019080803573ffffffffffffffffffffffffffffffffffffffff1690602001909291908035906020019092919050505061056e565b005b61022e61057c565b604051808273ffffffffffffffffffffffffffffffffffffffff16815260200191505060405180910390f35b6102626105a2565b604051808273ffffffffffffffffffffffffffffffffffffffff16815260200191505060405180910390f35b6102966105c6565b005b6102a061074c565b60405180821515815260200191505060405180910390f35b6102c061075f565b005b6102ca610896565b60405180821515815260200191505060405180910390f35b6102ea6108a9565b604051808273ffffffffffffffffffffffffffffffffffffffff16815260200191505060405180910390f35b6103586004803603602081101561032c57600080fd5b81019080803573ffffffffffffffffffffffffffffffffffffffff1690602001909291905050506108d2565b005b610362610a64565b604051808273ffffffffffffffffffffffffffffffffffffffff16815260200191505060405180910390f35b610396610a8a565b005b6103a0610ca7565b005b6103aa610dde565b6040518082815260200191505060405180910390f35b610402600480360360208110156103d657600080fd5b81019080803573ffffffffffffffffffffffffffffffffffffffff169060200190929190505050610de8565b005b6104306004803603602081101561041a57600080fd5b8101908080359060200190929190505050610f7a565b005b61045e6004803603602081101561044857600080fd5b810190808035906020019092919050505061116b565b005b6104a26004803603602081101561047657600080fd5b81019080803573ffffffffffffffffffffffffffffffffffffffff1690602001909291905050506112aa565b005b6104d0600480360360208110156104ba57600080fd5b81019080803590602001909291905050506114b5565b005b6104da6114c1565b6040518082815260200191505060405180910390f35b61051c6004803603602081101561050657600080fd5b81019080803590602001909291905050506114c7565b005b7f000000000000000000000000000000000000000000000000000000000000000081565b60075481565b600360009054906101000a900473ffffffffffffffffffffffffffffffffffffffff1681565b6105788282611606565b5050565b600560009054906101000a900473ffffffffffffffffffffffffffffffffffffffff1681565b7f000000000000000000000000000000000000000000000000000000000000000081565b6105ce611928565b73ffffffffffffffffffffffffffffffffffffffff1660008054906101000a900473ffffffffffffffffffffffffffffffffffffffff1673ffffffffffffffffffffffffffffffffffffffff161461068e576040517f08c379a00000000000000000000000000000000000000000000000000000000081526004018080602001828103825260208152602001807f4f776e61626c653a2063616c6c6572206973206e6f7420746865206f776e657281525060200191505060405180910390fd5b600073ffffffffffffffffffffffffffffffffffffffff1660008054906101000a900473ffffffffffffffffffffffffffffffffffffffff1673ffffffffffffffffffffffffffffffffffffffff167f8be0079c531659141344cd1fd0a4f28419497f9722a3daafe3b4186f6b6457e060405160405180910390a360008060006101000a81548173ffffffffffffffffffffffffffffffffffffffff021916908373ffffffffffffffffffffffffffffffffffffffff160217905550565b600560159054906101000a900460ff1681565b610767611928565b73ffffffffffffffffffffffffffffffffffffffff1660008054906101000a900473ffffffffffffffffffffffffffffffffffffffff1673ffffffffffffffffffffffffffffffffffffffff1614610827576040517f08c379a00000000000000000000000000000000000000000000000000000000081526004018080602001828103825260208152602001807f4f776e61626c653a2063616c6c6572206973206e6f7420746865206f776e657281525060200191505060405180910390fd5b6000600560156101000a81548160ff0219169083151502179055507f4dc22ee14a29d50c04a1b165e4f38c57689e6050b0a477ae20d3261f999c6477600560159054906101000a900460ff166007546040518083151581526020018281526020019250505060405180910390a1565b600560149054906101000a900460ff1681565b60008060009054906101000a900473ffffffffffffffffffffffffffffffffffffffff16905090565b6108da611928565b73ffffffffffffffffffffffffffffffffffffffff1660008054906101000a900473ffffffffffffffffffffffffffffffffffffffff1673ffffffffffffffffffffffffffffffffffffffff161461099a576040517f08c379a00000000000000000000000000000000000000000000000000000000081526004018080602001828103825260208152602001807f4f776e61626c653a2063616c6c6572206973206e6f7420746865206f776e657281525060200191505060405180910390fd5b80600460006101000a81548173ffffffffffffffffffffffffffffffffffffffff021916908373ffffffffffffffffffffffffffffffffffffffff1602179055507fe0a3ac497e9fac91cc8e82279eaf120c0071ea9ad0011aafda905bf43fc96aa781604051808273ffffffffffffffffffffffffffffffffffffffff16815260200180602001828103825260198152602001807f4d61726b6574696e672050617961626c652041646472657373000000000000008152506020019250505060405180910390a150565b600460009054906101000a900473ffffffffffffffffffffffffffffffffffffffff1681565b3373ffffffffffffffffffffffffffffffffffffffff16600160009054906101000a900473ffffffffffffffffffffffffffffffffffffffff1673ffffffffffffffffffffffffffffffffffffffff1614610b30576040517f08c379a0000000000000000000000000000000000000000000000000000000008152600401808060200182810382526023815260200180611d116023913960400191505060405180910390fd5b6002544211610ba7576040517f08c379a000000000000000000000000000000000000000000000000000000000815260040180806020018281038252601f8152602001807f436f6e7472616374206973206c6f636b656420756e74696c203720646179730081525060200191505060405180910390fd5b600160009054906101000a900473ffffffffffffffffffffffffffffffffffffffff1673ffffffffffffffffffffffffffffffffffffffff1660008054906101000a900473ffffffffffffffffffffffffffffffffffffffff1673ffffffffffffffffffffffffffffffffffffffff167f8be0079c531659141344cd1fd0a4f28419497f9722a3daafe3b4186f6b6457e060405160405180910390a3600160009054906101000a900473ffffffffffffffffffffffffffffffffffffffff166000806101000a81548173ffffffffffffffffffffffffffffffffffffffff021916908373ffffffffffffffffffffffffffffffffffffffff160217905550565b610caf611928565b73ffffffffffffffffffffffffffffffffffffffff1660008054906101000a900473ffffffffffffffffffffffffffffffffffffffff1673ffffffffffffffffffffffffffffffffffffffff1614610d6f576040517f08c379a00000000000000000000000000000000000000000000000000000000081526004018080602001828103825260208152602001807f4f776e61626c653a2063616c6c6572206973206e6f7420746865206f776e657281525060200191505060405180910390fd5b6000600560146101000a81548160ff0219169083151502179055507f378e0efcbf1707cc17e23ea1fe6c338b12fd8abd71efd11bcfb32f6962a3ab8c600560149054906101000a900460ff166006546040518083151581526020018281526020019250505060405180910390a1565b6000600254905090565b610df0611928565b73ffffffffffffffffffffffffffffffffffffffff1660008054906101000a900473ffffffffffffffffffffffffffffffffffffffff1673ffffffffffffffffffffffffffffffffffffffff1614610eb0576040517f08c379a00000000000000000000000000000000000000000000000000000000081526004018080602001828103825260208152602001807f4f776e61626c653a2063616c6c6572206973206e6f7420746865206f776e657281525060200191505060405180910390fd5b80600560006101000a81548173ffffffffffffffffffffffffffffffffffffffff021916908373ffffffffffffffffffffffffffffffffffffffff1602179055507fe0a3ac497e9fac91cc8e82279eaf120c0071ea9ad0011aafda905bf43fc96aa781604051808273ffffffffffffffffffffffffffffffffffffffff16815260200180602001828103825260138152602001807f4465762050617961626c652041646472657373000000000000000000000000008152506020019250505060405180910390a150565b610f82611928565b73ffffffffffffffffffffffffffffffffffffffff1660008054906101000a900473ffffffffffffffffffffffffffffffffffffffff1673ffffffffffffffffffffffffffffffffffffffff1614611042576040517f08c379a00000000000000000000000000000000000000000000000000000000081526004018080602001828103825260208152602001807f4f776e61626c653a2063616c6c6572206973206e6f7420746865206f776e657281525060200191505060405180910390fd5b60008054906101000a900473ffffffffffffffffffffffffffffffffffffffff16600160006101000a81548173ffffffffffffffffffffffffffffffffffffffff021916908373ffffffffffffffffffffffffffffffffffffffff16021790555060008060006101000a81548173ffffffffffffffffffffffffffffffffffffffff021916908373ffffffffffffffffffffffffffffffffffffffff160217905550804201600281905550600073ffffffffffffffffffffffffffffffffffffffff1660008054906101000a900473ffffffffffffffffffffffffffffffffffffffff1673ffffffffffffffffffffffffffffffffffffffff167f8be0079c531659141344cd1fd0a4f28419497f9722a3daafe3b4186f6b6457e060405160405180910390a350565b611173611928565b73ffffffffffffffffffffffffffffffffffffffff1660008054906101000a900473ffffffffffffffffffffffffffffffffffffffff1673ffffffffffffffffffffffffffffffffffffffff1614611233576040517f08c379a00000000000000000000000000000000000000000000000000000000081526004018080602001828103825260208152602001807f4f776e61626c653a2063616c6c6572206973206e6f7420746865206f776e657281525060200191505060405180910390fd5b6001600560146101000a81548160ff021916908315150217905550806006819055507f378e0efcbf1707cc17e23ea1fe6c338b12fd8abd71efd11bcfb32f6962a3ab8c600560149054906101000a900460ff166006546040518083151581526020018281526020019250505060405180910390a150565b6112b2611928565b73ffffffffffffffffffffffffffffffffffffffff1660008054906101000a900473ffffffffffffffffffffffffffffffffffffffff1673ffffffffffffffffffffffffffffffffffffffff1614611372576040517f08c379a00000000000000000000000000000000000000000000000000000000081526004018080602001828103825260208152602001807f4f776e61626c653a2063616c6c6572206973206e6f7420746865206f776e657281525060200191505060405180910390fd5b600073ffffffffffffffffffffffffffffffffffffffff168173ffffffffffffffffffffffffffffffffffffffff1614156113f8576040517f08c379a0000000000000000000000000000000000000000000000000000000008152600401808060200182810382526026815260200180611ceb6026913960400191505060405180910390fd5b8073ffffffffffffffffffffffffffffffffffffffff1660008054906101000a900473ffffffffffffffffffffffffffffffffffffffff1673ffffffffffffffffffffffffffffffffffffffff167f8be0079c531659141344cd1fd0a4f28419497f9722a3daafe3b4186f6b6457e060405160405180910390a3806000806101000a81548173ffffffffffffffffffffffffffffffffffffffff021916908373ffffffffffffffffffffffffffffffffffffffff16021790555050565b6114be81611930565b50565b60065481565b6114cf611928565b73ffffffffffffffffffffffffffffffffffffffff1660008054906101000a900473ffffffffffffffffffffffffffffffffffffffff1673ffffffffffffffffffffffffffffffffffffffff161461158f576040517f08c379a00000000000000000000000000000000000000000000000000000000081526004018080602001828103825260208152602001807f4f776e61626c653a2063616c6c6572206973206e6f7420746865206f776e657281525060200191505060405180910390fd5b6001600560156101000a81548160ff021916908315150217905550806007819055507f4dc22ee14a29d50c04a1b165e4f38c57689e6050b0a477ae20d3261f999c6477600560159054906101000a900460ff166007546040518083151581526020018281526020019250505060405180910390a150565b6060600267ffffffffffffffff8111801561162057600080fd5b5060405190808252806020026020018201604052801561164f5781602001602082028036833780820191505090505b509050308160008151811061166057fe5b602002602001019073ffffffffffffffffffffffffffffffffffffffff16908173ffffffffffffffffffffffffffffffffffffffff16815250507f000000000000000000000000000000000000000000000000000000000000000073ffffffffffffffffffffffffffffffffffffffff1663ad5c46486040518163ffffffff1660e01b815260040160206040518083038186803b15801561170057600080fd5b505afa158015611714573d6000803e3d6000fd5b505050506040513d602081101561172a57600080fd5b81019080805190602001909291905050508160018151811061174857fe5b602002602001019073ffffffffffffffffffffffffffffffffffffffff16908173ffffffffffffffffffffffffffffffffffffffff16815250507f000000000000000000000000000000000000000000000000000000000000000073ffffffffffffffffffffffffffffffffffffffff1663791ac9478360008430426040518663ffffffff1660e01b815260040180868152602001858152602001806020018473ffffffffffffffffffffffffffffffffffffffff168152602001838152602001828103825285818151815260200191508051906020019060200280838360005b83811015611844578082015181840152602081019050611829565b505050509050019650505050505050600060405180830381600087803b15801561186d57600080fd5b505af1158015611881573d6000803e3d6000fd5b505050507f985872e60564f983f22de6113f251a77867c3511cf4a69acd1b95e639184e9e4828483604051808481526020018373ffffffffffffffffffffffffffffffffffffffff16815260200180602001828103825283818151815260200191508051906020019060200280838360005b8381101561190e5780820151818401526020810190506118f3565b5050505090500194505050505060405180910390a1505050565b600033905090565b6060600267ffffffffffffffff8111801561194a57600080fd5b506040519080825280602002602001820160405280156119795781602001602082028036833780820191505090505b5090507f000000000000000000000000000000000000000000000000000000000000000073ffffffffffffffffffffffffffffffffffffffff1663ad5c46486040518163ffffffff1660e01b815260040160206040518083038186803b1580156119e257600080fd5b505afa1580156119f6573d6000803e3d6000fd5b505050506040513d6020811015611a0c57600080fd5b810190808051906020019092919050505081600081518110611a2a57fe5b602002602001019073ffffffffffffffffffffffffffffffffffffffff16908173ffffffffffffffffffffffffffffffffffffffff16815250503081600181518110611a7257fe5b602002602001019073ffffffffffffffffffffffffffffffffffffffff16908173ffffffffffffffffffffffffffffffffffffffff16815250507f000000000000000000000000000000000000000000000000000000000000000073ffffffffffffffffffffffffffffffffffffffff1663b6f9de9583600084600360009054906101000a900473ffffffffffffffffffffffffffffffffffffffff16611b2461012c42611c6290919063ffffffff16565b6040518663ffffffff1660e01b815260040180858152602001806020018473ffffffffffffffffffffffffffffffffffffffff168152602001838152602001828103825285818151815260200191508051906020019060200280838360005b83811015611b9e578082015181840152602081019050611b83565b50505050905001955050505050506000604051808303818588803b158015611bc557600080fd5b505af1158015611bd9573d6000803e3d6000fd5b50505050507fbe55ca102681e87fb99f248c39c3a7e9ec89e02f8e0d820800d328788458cfb582826040518083815260200180602001828103825283818151815260200191508051906020019060200280838360005b83811015611c4a578082015181840152602081019050611c2f565b50505050905001935050505060405180910390a15050565b600080828401905083811015611ce0576040517f08c379a000000000000000000000000000000000000000000000000000000000815260040180806020018281038252601b8152602001807f536166654d6174683a206164646974696f6e206f766572666c6f77000000000081525060200191505060405180910390fd5b809150509291505056fe4f776e61626c653a206e6577206f776e657220697320746865207a65726f2061646472657373596f7520646f6e27742068617665207065726d697373696f6e20746f20756e6c6f636ba264697066735822122085a1c8fa571bf7007f52e75aa31815e5f69a3ed7aa6fd4480d5b31c04835a6b864736f6c634300060c0033",
  "immutableReferences": {
    "2119": [
      {
        "length": 32,
        "start": 1312
      },
      {
        "length": 32,
        "start": 5788
      },
      {
        "length": 32,
        "start": 6020
      },
      {
        "length": 32,
        "start": 6526
      },
      {
        "length": 32,
        "start": 6830
      }
    ],
    "2121": [
      {
        "length": 32,
        "start": 1444
      }
    ]
  },
  "source": "// SPDX-License-Identifier: MIT\npragma solidity >=0.6.0 <0.7.0;\n\nimport \"./Reward.sol\";\nimport \"./Fee.sol\";\nimport \"./Swap.sol\";\n\ncontract TestReward is Reward {\t\t\t\n\tconstructor(uint256 totalSupply) public Reward(totalSupply) {\n\t\t\n\t}\n\t\t\n\tfunction balanceOf(address account) public view returns (uint256)  {\n        if (_balances[account].excludedFromReward) \n\t\t\treturn _balances[account].token;\n\t\t\n        return _rewardToToken(_balances[account].reward);\n    }\n\t\n\tfunction transfer(address sender, address recipient, uint256 amount, uint256 fee) public returns (bool) {\n        _transfer(sender, recipient, amount, fee);\n        return true;\n    }\n}\n\ncontract TestFee is Fee {\t\t\t\n\tconstructor() public {\n\t\t\n\t}\n\t\t\n\tfunction isBuy(address sender) public view returns(bool) {\n        return _isBuy(sender);\n    }\n\t\n\tfunction isSell(address recipient) public view returns(bool) {\n        return _isSell(recipient);\n    }\n\t\n\tfunction getBuyFee(uint256 amount, uint256 holders) public view returns(uint256, uint256, uint256) {\n\t\treturn _getBuyFee(amount, holders);\n    }\n\t\n\tfunction getRewardFee(uint256 holders) public pure returns(uint256) {\n\t\treturn _getRewardFee(holders);\n    }\n\t\n\tfunction getSellFee(uint256 amount, uint timestamp) public view returns(uint256, uint256, uint256) {\n\t\treturn _getSellFee(amount, timestamp);\n    }\n\t\n\tfunction getHoldFee(uint timestamp) public view returns(uint256) {\n\t\treturn _getHoldFee(timestamp);\n    }\n}\n\ncontract TestSwap is Swap(true) {\t\t\t\n\tconstructor() public {\n\t\t\n\t}\n\t\n\tfunction swapTokensForBNB(address to, uint256 token) public {\n\t\t_swapTokensForBNB(to, token);\n    }\n\n    function buyBackAndBurnToken(uint256 bnb) public {\n\t\t_buyBackAndBurnToken(bnb);\n    }\n}",
  "sourcePath": "C:/Users/Amos/Documents/BEP 20/dynamic/smart contract/contracts/TestContract.sol",
  "compiler": {
    "name": "solc",
    "version": "0.6.12+commit.27d51765.Emscripten.clang"
  },
  "schemaVersion": "3.4.1",
  "updatedAt": "2021-07-27T12:30:46.920Z",
  "devdoc": {
    "kind": "dev",
    "methods": {},
    "version": 1
  },
  "userdoc": {
    "kind": "user",
    "methods": {},
    "version": 1
  }
}